{
  "address": "0xee25742413EDCD14b043c822dddc0f097f13bB50",
  "abi": [
    {
      "inputs": [],
      "stateMutability": "nonpayable",
      "type": "constructor"
    },
    {
      "inputs": [
        {
          "internalType": "string",
          "name": "_title",
          "type": "string"
        },
        {
          "internalType": "uint256",
          "name": "_year",
          "type": "uint256"
        },
        {
          "internalType": "string",
          "name": "_writter",
          "type": "string"
        }
      ],
      "name": "addBook",
      "outputs": [],
      "stateMutability": "nonpayable",
      "type": "function"
    },
    {
      "inputs": [],
      "name": "admin",
      "outputs": [
        {
          "internalType": "address",
          "name": "",
          "type": "address"
        }
      ],
      "stateMutability": "view",
      "type": "function"
    },
    {
      "inputs": [
        {
          "internalType": "bytes32",
          "name": "_isbn",
          "type": "bytes32"
        }
      ],
      "name": "bookExist",
      "outputs": [
        {
          "internalType": "bool",
          "name": "",
          "type": "bool"
        }
      ],
      "stateMutability": "view",
      "type": "function"
    },
    {
      "inputs": [],
      "name": "bookLength",
      "outputs": [
        {
          "internalType": "uint256",
          "name": "",
          "type": "uint256"
        }
      ],
      "stateMutability": "view",
      "type": "function"
    },
    {
      "inputs": [
        {
          "internalType": "uint256",
          "name": "",
          "type": "uint256"
        }
      ],
      "name": "books",
      "outputs": [
        {
          "internalType": "bytes32",
          "name": "isbn",
          "type": "bytes32"
        },
        {
          "internalType": "string",
          "name": "title",
          "type": "string"
        },
        {
          "internalType": "uint256",
          "name": "year",
          "type": "uint256"
        },
        {
          "internalType": "string",
          "name": "writter",
          "type": "string"
        }
      ],
      "stateMutability": "view",
      "type": "function"
    },
    {
      "inputs": [
        {
          "internalType": "string",
          "name": "_title",
          "type": "string"
        }
      ],
      "name": "generatorISBN",
      "outputs": [
        {
          "internalType": "bytes32",
          "name": "",
          "type": "bytes32"
        }
      ],
      "stateMutability": "pure",
      "type": "function"
    },
    {
      "inputs": [],
      "name": "getAllBook",
      "outputs": [
        {
          "components": [
            {
              "internalType": "bytes32",
              "name": "isbn",
              "type": "bytes32"
            },
            {
              "internalType": "string",
              "name": "title",
              "type": "string"
            },
            {
              "internalType": "uint256",
              "name": "year",
              "type": "uint256"
            },
            {
              "internalType": "string",
              "name": "writter",
              "type": "string"
            }
          ],
          "internalType": "struct Book.BookAtribut[]",
          "name": "",
          "type": "tuple[]"
        }
      ],
      "stateMutability": "view",
      "type": "function"
    },
    {
      "inputs": [
        {
          "internalType": "bytes32",
          "name": "_isbn",
          "type": "bytes32"
        }
      ],
      "name": "getBook",
      "outputs": [
        {
          "internalType": "bytes32",
          "name": "",
          "type": "bytes32"
        },
        {
          "internalType": "string",
          "name": "",
          "type": "string"
        },
        {
          "internalType": "uint256",
          "name": "",
          "type": "uint256"
        },
        {
          "internalType": "string",
          "name": "",
          "type": "string"
        }
      ],
      "stateMutability": "view",
      "type": "function"
    },
    {
      "inputs": [
        {
          "internalType": "bytes32",
          "name": "_isbn",
          "type": "bytes32"
        }
      ],
      "name": "removeBook",
      "outputs": [],
      "stateMutability": "nonpayable",
      "type": "function"
    },
    {
      "inputs": [
        {
          "internalType": "bytes32",
          "name": "_isbn",
          "type": "bytes32"
        },
        {
          "internalType": "string",
          "name": "_title",
          "type": "string"
        },
        {
          "internalType": "uint256",
          "name": "_year",
          "type": "uint256"
        },
        {
          "internalType": "string",
          "name": "_writter",
          "type": "string"
        }
      ],
      "name": "updateBook",
      "outputs": [],
      "stateMutability": "nonpayable",
      "type": "function"
    }
  ],
  "transactionHash": "0x8f9cee843f5eca7514bd4c43b09337a1d1e4f3a9a8d659e79643ac489fc3077b",
  "args": [],
  "numDeployments": 1,
  "solcInputHash": "cd16c9c0fd810664486492cf416189c6",
  "bytecode": "0x608060405234801561001057600080fd5b50600080546001600160a01b0319163317905561127d806100326000396000f3fe608060405234801561001057600080fd5b506004361061009e5760003560e01c8063ad1a7d0c11610066578063ad1a7d0c1461011e578063c0fd99d814610131578063d0148ee014610144578063efe03fdd14610157578063f851a4401461018957600080fd5b806356c2f3ae146100a35780635ef935fa146100b857806368744046146100d657806382c553bb146100f95780638a5cd7b21461010b575b600080fd5b6100b66100b1366004610d6a565b6101b4565b005b6100c0610489565b6040516100cd9190610dc9565b60405180910390f35b6100e96100e4366004610d6a565b610640565b6040516100cd9493929190610e65565b6001545b6040519081526020016100cd565b6100b6610119366004610eea565b61078c565b6100e961012c366004610d6a565b6108fb565b6100b661013f366004610f64565b610b0e565b6100fd610152366004610fe7565b610cdc565b610179610165366004610d6a565b600090815260026020526040902054151590565b60405190151581526020016100cd565b60005461019c906001600160a01b031681565b6040516001600160a01b0390911681526020016100cd565b6000546001600160a01b031633146101e75760405162461bcd60e51b81526004016101de90611029565b60405180910390fd5b6000818152600260205260409020546102125760405162461bcd60e51b81526004016101de9061104d565b60008181526002602052604081205461022d90600190611086565b60018054919250600091610242908290611086565b8154811061025257610252611099565b906000526020600020906004020160405180608001604052908160008201548152602001600182018054610285906110af565b80601f01602080910402602001604051908101604052809291908181526020018280546102b1906110af565b80156102fe5780601f106102d3576101008083540402835291602001916102fe565b820191906000526020600020905b8154815290600101906020018083116102e157829003601f168201915b5050505050815260200160028201548152602001600382018054610321906110af565b80601f016020809104026020016040519081016040528092919081815260200182805461034d906110af565b801561039a5780601f1061036f5761010080835404028352916020019161039a565b820191906000526020600020905b81548152906001019060200180831161037d57829003601f168201915b505050505081525050905080600183815481106103b9576103b9611099565b90600052602060002090600402016000820151816000015560208201518160010190816103e6919061114e565b506040820151600282015560608201516003820190610405908261114e565b506104159150839050600161120e565b81516000908152600260205260408082209290925584815290812055600180548061044257610442611221565b600082815260208120600460001990930192830201818155906104686001830182610d14565b60028201600090556003820160006104809190610d14565b50509055505050565b6001546060906104ab5760405162461bcd60e51b81526004016101de9061104d565b6001805480602002602001604051908101604052809291908181526020016000905b8282101561063757838290600052602060002090600402016040518060800160405290816000820154815260200160018201805461050a906110af565b80601f0160208091040260200160405190810160405280929190818152602001828054610536906110af565b80156105835780601f1061055857610100808354040283529160200191610583565b820191906000526020600020905b81548152906001019060200180831161056657829003601f168201915b50505050508152602001600282015481526020016003820180546105a6906110af565b80601f01602080910402602001604051908101604052809291908181526020018280546105d2906110af565b801561061f5780601f106105f45761010080835404028352916020019161061f565b820191906000526020600020905b81548152906001019060200180831161060257829003601f168201915b505050505081525050815260200190600101906104cd565b50505050905090565b6001818154811061065057600080fd5b60009182526020909120600490910201805460018201805491935090610675906110af565b80601f01602080910402602001604051908101604052809291908181526020018280546106a1906110af565b80156106ee5780601f106106c3576101008083540402835291602001916106ee565b820191906000526020600020905b8154815290600101906020018083116106d157829003601f168201915b505050505090806002015490806003018054610709906110af565b80601f0160208091040260200160405190810160405280929190818152602001828054610735906110af565b80156107825780601f1061075757610100808354040283529160200191610782565b820191906000526020600020905b81548152906001019060200180831161076557829003601f168201915b5050505050905084565b6000546001600160a01b031633146107b65760405162461bcd60e51b81526004016101de90611029565b600060405180608001604052806107cd8888610cdc565b815260200187878080601f016020809104026020016040519081016040528093929190818152602001838380828437600092019190915250505090825250602080820187905260408051601f8701839004830281018301825286815292019190869086908190840183828082843760009201829052509390945250506001805480820182559152825160049091027fb10e2d527612073b26eecdfd717e6a320cf44b4afac2b0732d9fcbe2b7fa0cf68101918255602084015193945084939192507fb10e2d527612073b26eecdfd717e6a320cf44b4afac2b0732d9fcbe2b7fa0cf701906108bb908261114e565b5060408201516002820155606082015160038201906108da908261114e565b50506001549151600090815260026020526040902091909155505050505050565b600060606000606061091b85600090815260026020526040902054151590565b6109375760405162461bcd60e51b81526004016101de9061104d565b60008581526002602052604081205461095290600190611086565b90506001818154811061096757610967611099565b9060005260206000209060040201600001546001828154811061098c5761098c611099565b9060005260206000209060040201600101600183815481106109b0576109b0611099565b906000526020600020906004020160020154600184815481106109d5576109d5611099565b90600052602060002090600402016003018280546109f2906110af565b80601f0160208091040260200160405190810160405280929190818152602001828054610a1e906110af565b8015610a6b5780601f10610a4057610100808354040283529160200191610a6b565b820191906000526020600020905b815481529060010190602001808311610a4e57829003601f168201915b50505050509250808054610a7e906110af565b80601f0160208091040260200160405190810160405280929190818152602001828054610aaa906110af565b8015610af75780601f10610acc57610100808354040283529160200191610af7565b820191906000526020600020905b815481529060010190602001808311610ada57829003601f168201915b505050505090509450945094509450509193509193565b6000546001600160a01b03163314610b385760405162461bcd60e51b81526004016101de90611029565b600086815260026020526040902054610b635760405162461bcd60e51b81526004016101de9061104d565b600086815260026020526040812054610b7e90600190611086565b90506040518060800160405280610b958888610cdc565b815260200187878080601f016020809104026020016040519081016040528093929190818152602001838380828437600092019190915250505090825250602080820187905260408051601f8701839004830281018301825286815292019190869086908190840183828082843760009201919091525050509152506001805483908110610c2557610c25611099565b9060005260206000209060040201600082015181600001556020820151816001019081610c52919061114e565b506040820151600282015560608201516003820190610c71908261114e565b50610c819150829050600161120e565b6002600060018481548110610c9857610c98611099565b906000526020600020906004020160000154815260200190815260200160002081905550600260008881526020019081526020016000206000905550505050505050565b6000808383604051602001610cf2929190611237565b60408051601f1981840301815291905280516020909101209150505b92915050565b508054610d20906110af565b6000825580601f10610d30575050565b601f016020900490600052602060002090810190610d4e9190610d51565b50565b5b80821115610d665760008155600101610d52565b5090565b600060208284031215610d7c57600080fd5b5035919050565b6000815180845260005b81811015610da957602081850181015186830182015201610d8d565b506000602082860101526020601f19601f83011685010191505092915050565b60006020808301818452808551808352604092508286019150828160051b87010184880160005b83811015610e5757603f19898403018552815160808151855288820151818a870152610e1e82870182610d83565b915050878201518886015260608083015192508582038187015250610e438183610d83565b968901969450505090860190600101610df0565b509098975050505050505050565b848152608060208201526000610e7e6080830186610d83565b8460408401528281036060840152610e968185610d83565b979650505050505050565b60008083601f840112610eb357600080fd5b50813567ffffffffffffffff811115610ecb57600080fd5b602083019150836020828501011115610ee357600080fd5b9250929050565b600080600080600060608688031215610f0257600080fd5b853567ffffffffffffffff80821115610f1a57600080fd5b610f2689838a01610ea1565b9097509550602088013594506040880135915080821115610f4657600080fd5b50610f5388828901610ea1565b969995985093965092949392505050565b60008060008060008060808789031215610f7d57600080fd5b86359550602087013567ffffffffffffffff80821115610f9c57600080fd5b610fa88a838b01610ea1565b9097509550604089013594506060890135915080821115610fc857600080fd5b50610fd589828a01610ea1565b979a9699509497509295939492505050565b60008060208385031215610ffa57600080fd5b823567ffffffffffffffff81111561101157600080fd5b61101d85828601610ea1565b90969095509350505050565b6020808252600a9082015269556e6175746f72697a6560b01b604082015260600190565b602080825260099082015268139bdd08119bdd5b9960ba1b604082015260600190565b634e487b7160e01b600052601160045260246000fd5b81810381811115610d0e57610d0e611070565b634e487b7160e01b600052603260045260246000fd5b600181811c908216806110c357607f821691505b6020821081036110e357634e487b7160e01b600052602260045260246000fd5b50919050565b634e487b7160e01b600052604160045260246000fd5b601f82111561114957600081815260208120601f850160051c810160208610156111265750805b601f850160051c820191505b8181101561114557828155600101611132565b5050505b505050565b815167ffffffffffffffff811115611168576111686110e9565b61117c8161117684546110af565b846110ff565b602080601f8311600181146111b157600084156111995750858301515b600019600386901b1c1916600185901b178555611145565b600085815260208120601f198616915b828110156111e0578886015182559484019460019091019084016111c1565b50858210156111fe5787850151600019600388901b60f8161c191681555b5050505050600190811b01905550565b80820180821115610d0e57610d0e611070565b634e487b7160e01b600052603160045260246000fd5b818382376000910190815291905056fea264697066735822122084b7926e99bd32e3962798d61bfb21b85fdf1e80691f6147d0a393faa4c7875664736f6c63430008130033",
  "devdoc": {
    "kind": "dev",
    "methods": {},
    "version": 1
  },
  "userdoc": {
    "kind": "user",
    "methods": {},
    "version": 1
  },
  "storageLayout": {
    "storage": [
      {
        "astId": 3,
        "contract": "contracts/Book.sol:Book",
        "label": "admin",
        "offset": 0,
        "slot": "0",
        "type": "t_address"
      },
      {
        "astId": 25,
        "contract": "contracts/Book.sol:Book",
        "label": "books",
        "offset": 0,
        "slot": "1",
        "type": "t_array(t_struct(BookAtribut)21_storage)dyn_storage"
      },
      {
        "astId": 29,
        "contract": "contracts/Book.sol:Book",
        "label": "indexBooks",
        "offset": 0,
        "slot": "2",
        "type": "t_mapping(t_bytes32,t_uint256)"
      }
    ],
    "types": {
      "t_address": {
        "encoding": "inplace",
        "label": "address",
        "numberOfBytes": "20"
      },
      "t_array(t_struct(BookAtribut)21_storage)dyn_storage": {
        "base": "t_struct(BookAtribut)21_storage",
        "encoding": "dynamic_array",
        "label": "struct Book.BookAtribut[]",
        "numberOfBytes": "32"
      },
      "t_bytes32": {
        "encoding": "inplace",
        "label": "bytes32",
        "numberOfBytes": "32"
      },
      "t_mapping(t_bytes32,t_uint256)": {
        "encoding": "mapping",
        "key": "t_bytes32",
        "label": "mapping(bytes32 => uint256)",
        "numberOfBytes": "32",
        "value": "t_uint256"
      },
      "t_string_storage": {
        "encoding": "bytes",
        "label": "string",
        "numberOfBytes": "32"
      },
      "t_struct(BookAtribut)21_storage": {
        "encoding": "inplace",
        "label": "struct Book.BookAtribut",
        "members": [
          {
            "astId": 14,
            "contract": "contracts/Book.sol:Book",
            "label": "isbn",
            "offset": 0,
            "slot": "0",
            "type": "t_bytes32"
          },
          {
            "astId": 16,
            "contract": "contracts/Book.sol:Book",
            "label": "title",
            "offset": 0,
            "slot": "1",
            "type": "t_string_storage"
          },
          {
            "astId": 18,
            "contract": "contracts/Book.sol:Book",
            "label": "year",
            "offset": 0,
            "slot": "2",
            "type": "t_uint256"
          },
          {
            "astId": 20,
            "contract": "contracts/Book.sol:Book",
            "label": "writter",
            "offset": 0,
            "slot": "3",
            "type": "t_string_storage"
          }
        ],
        "numberOfBytes": "128"
      },
      "t_uint256": {
        "encoding": "inplace",
        "label": "uint256",
        "numberOfBytes": "32"
      }
    }
  }
}