{
	"contracts/Book.sol": {
		"Book": {
			"abi": [
				{
					"inputs": [
						{
							"internalType": "string",
							"name": "_title",
							"type": "string"
						},
						{
							"internalType": "uint256",
							"name": "_year",
							"type": "uint256"
						},
						{
							"internalType": "string",
							"name": "_writter",
							"type": "string"
						}
					],
					"name": "addBook",
					"outputs": [],
					"stateMutability": "nonpayable",
					"type": "function"
				},
				{
					"inputs": [],
					"name": "admin",
					"outputs": [
						{
							"internalType": "address",
							"name": "",
							"type": "address"
						}
					],
					"stateMutability": "view",
					"type": "function"
				},
				{
					"inputs": [
						{
							"internalType": "bytes32",
							"name": "_isbn",
							"type": "bytes32"
						}
					],
					"name": "bookExist",
					"outputs": [
						{
							"internalType": "bool",
							"name": "",
							"type": "bool"
						}
					],
					"stateMutability": "view",
					"type": "function"
				},
				{
					"inputs": [
						{
							"internalType": "uint256",
							"name": "",
							"type": "uint256"
						}
					],
					"name": "books",
					"outputs": [
						{
							"internalType": "bytes32",
							"name": "isbn",
							"type": "bytes32"
						},
						{
							"internalType": "string",
							"name": "title",
							"type": "string"
						},
						{
							"internalType": "uint256",
							"name": "year",
							"type": "uint256"
						},
						{
							"internalType": "string",
							"name": "writter",
							"type": "string"
						}
					],
					"stateMutability": "view",
					"type": "function"
				},
				{
					"inputs": [
						{
							"internalType": "string",
							"name": "_title",
							"type": "string"
						}
					],
					"name": "generatorISBN",
					"outputs": [
						{
							"internalType": "bytes32",
							"name": "",
							"type": "bytes32"
						}
					],
					"stateMutability": "pure",
					"type": "function"
				},
				{
					"inputs": [
						{
							"internalType": "bytes32",
							"name": "_isbn",
							"type": "bytes32"
						}
					],
					"name": "getBook",
					"outputs": [
						{
							"internalType": "bytes32",
							"name": "",
							"type": "bytes32"
						},
						{
							"internalType": "string",
							"name": "",
							"type": "string"
						},
						{
							"internalType": "uint256",
							"name": "",
							"type": "uint256"
						},
						{
							"internalType": "string",
							"name": "",
							"type": "string"
						}
					],
					"stateMutability": "view",
					"type": "function"
				},
				{
					"inputs": [
						{
							"internalType": "bytes32",
							"name": "_isbn",
							"type": "bytes32"
						}
					],
					"name": "removeBook",
					"outputs": [],
					"stateMutability": "nonpayable",
					"type": "function"
				},
				{
					"inputs": [
						{
							"internalType": "bytes32",
							"name": "_isbn",
							"type": "bytes32"
						},
						{
							"internalType": "string",
							"name": "_title",
							"type": "string"
						},
						{
							"internalType": "uint256",
							"name": "_year",
							"type": "uint256"
						},
						{
							"internalType": "string",
							"name": "_writter",
							"type": "string"
						}
					],
					"name": "updateBook",
					"outputs": [],
					"stateMutability": "nonpayable",
					"type": "function"
				}
			],
			"devdoc": {
				"kind": "dev",
				"methods": {},
				"version": 1
			},
			"evm": {
				"assembly": "    /* \"contracts/Book.sol\":57:2366  contract Book {... */\n  mstore(0x40, 0x80)\n    /* \"contracts/Book.sol\":100:142  0x5B38Da6a701c568545dCfcB03FcB875f56beddC4 */\n  0x5b38da6a701c568545dcfcb03fcb875f56beddc4\n    /* \"contracts/Book.sol\":77:142  address public admin = 0x5B38Da6a701c568545dCfcB03FcB875f56beddC4 */\n  0x00\n  dup1\n  0x0100\n  exp\n  dup2\n  sload\n  dup2\n  0xffffffffffffffffffffffffffffffffffffffff\n  mul\n  not\n  and\n  swap1\n  dup4\n  0xffffffffffffffffffffffffffffffffffffffff\n  and\n  mul\n  or\n  swap1\n  sstore\n  pop\n    /* \"contracts/Book.sol\":57:2366  contract Book {... */\n  callvalue\n  dup1\n  iszero\n  tag_1\n  jumpi\n  0x00\n  dup1\n  revert\ntag_1:\n  pop\n  dataSize(sub_0)\n  dup1\n  dataOffset(sub_0)\n  0x00\n  codecopy\n  0x00\n  return\nstop\n\nsub_0: assembly {\n        /* \"contracts/Book.sol\":57:2366  contract Book {... */\n      mstore(0x40, 0x80)\n      callvalue\n      dup1\n      iszero\n      tag_1\n      jumpi\n      0x00\n      dup1\n      revert\n    tag_1:\n      pop\n      jumpi(tag_2, lt(calldatasize, 0x04))\n      shr(0xe0, calldataload(0x00))\n      dup1\n      0xc0fd99d8\n      gt\n      tag_11\n      jumpi\n      dup1\n      0xc0fd99d8\n      eq\n      tag_7\n      jumpi\n      dup1\n      0xd0148ee0\n      eq\n      tag_8\n      jumpi\n      dup1\n      0xefe03fdd\n      eq\n      tag_9\n      jumpi\n      dup1\n      0xf851a440\n      eq\n      tag_10\n      jumpi\n      jump(tag_2)\n    tag_11:\n      dup1\n      0x56c2f3ae\n      eq\n      tag_3\n      jumpi\n      dup1\n      0x68744046\n      eq\n      tag_4\n      jumpi\n      dup1\n      0x8a5cd7b2\n      eq\n      tag_5\n      jumpi\n      dup1\n      0xad1a7d0c\n      eq\n      tag_6\n      jumpi\n    tag_2:\n      0x00\n      dup1\n      revert\n        /* \"contracts/Book.sol\":1471:1833  function removeBook (bytes32 _isbn) public onlyAdmin {... */\n    tag_3:\n      tag_12\n      0x04\n      dup1\n      calldatasize\n      sub\n      dup2\n      add\n      swap1\n      tag_13\n      swap2\n      swap1\n      tag_14\n      jump\t// in\n    tag_13:\n      tag_15\n      jump\t// in\n    tag_12:\n      stop\n        /* \"contracts/Book.sol\":268:294  BookAtribut[] public books */\n    tag_4:\n      tag_16\n      0x04\n      dup1\n      calldatasize\n      sub\n      dup2\n      add\n      swap1\n      tag_17\n      swap2\n      swap1\n      tag_18\n      jump\t// in\n    tag_17:\n      tag_19\n      jump\t// in\n    tag_16:\n      mload(0x40)\n      tag_20\n      swap5\n      swap4\n      swap3\n      swap2\n      swap1\n      tag_21\n      jump\t// in\n    tag_20:\n      mload(0x40)\n      dup1\n      swap2\n      sub\n      swap1\n      return\n        /* \"contracts/Book.sol\":631:1034  function addBook (... */\n    tag_5:\n      tag_22\n      0x04\n      dup1\n      calldatasize\n      sub\n      dup2\n      add\n      swap1\n      tag_23\n      swap2\n      swap1\n      tag_24\n      jump\t// in\n    tag_23:\n      tag_25\n      jump\t// in\n    tag_22:\n      stop\n        /* \"contracts/Book.sol\":1153:1465  function getBook (bytes32 _isbn) public view returns(bytes32, string memory, uint , string memory) {... */\n    tag_6:\n      tag_26\n      0x04\n      dup1\n      calldatasize\n      sub\n      dup2\n      add\n      swap1\n      tag_27\n      swap2\n      swap1\n      tag_14\n      jump\t// in\n    tag_27:\n      tag_28\n      jump\t// in\n    tag_26:\n      mload(0x40)\n      tag_29\n      swap5\n      swap4\n      swap3\n      swap2\n      swap1\n      tag_21\n      jump\t// in\n    tag_29:\n      mload(0x40)\n      dup1\n      swap2\n      sub\n      swap1\n      return\n        /* \"contracts/Book.sol\":1839:2364  function updateBook (... */\n    tag_7:\n      tag_30\n      0x04\n      dup1\n      calldatasize\n      sub\n      dup2\n      add\n      swap1\n      tag_31\n      swap2\n      swap1\n      tag_32\n      jump\t// in\n    tag_31:\n      tag_33\n      jump\t// in\n    tag_30:\n      stop\n        /* \"contracts/Book.sol\":439:625  function generatorISBN(string calldata _title) public pure returns (bytes32) {... */\n    tag_8:\n      tag_34\n      0x04\n      dup1\n      calldatasize\n      sub\n      dup2\n      add\n      swap1\n      tag_35\n      swap2\n      swap1\n      tag_36\n      jump\t// in\n    tag_35:\n      tag_37\n      jump\t// in\n    tag_34:\n      mload(0x40)\n      tag_38\n      swap2\n      swap1\n      tag_39\n      jump\t// in\n    tag_38:\n      mload(0x40)\n      dup1\n      swap2\n      sub\n      swap1\n      return\n        /* \"contracts/Book.sol\":1040:1147  function bookExist (bytes32 _isbn) public view returns (bool){... */\n    tag_9:\n      tag_40\n      0x04\n      dup1\n      calldatasize\n      sub\n      dup2\n      add\n      swap1\n      tag_41\n      swap2\n      swap1\n      tag_14\n      jump\t// in\n    tag_41:\n      tag_42\n      jump\t// in\n    tag_40:\n      mload(0x40)\n      tag_43\n      swap2\n      swap1\n      tag_44\n      jump\t// in\n    tag_43:\n      mload(0x40)\n      dup1\n      swap2\n      sub\n      swap1\n      return\n        /* \"contracts/Book.sol\":77:142  address public admin = 0x5B38Da6a701c568545dCfcB03FcB875f56beddC4 */\n    tag_10:\n      tag_45\n      tag_46\n      jump\t// in\n    tag_45:\n      mload(0x40)\n      tag_47\n      swap2\n      swap1\n      tag_48\n      jump\t// in\n    tag_47:\n      mload(0x40)\n      dup1\n      swap2\n      sub\n      swap1\n      return\n        /* \"contracts/Book.sol\":1471:1833  function removeBook (bytes32 _isbn) public onlyAdmin {... */\n    tag_15:\n        /* \"contracts/Book.sol\":395:400  admin */\n      0x00\n      dup1\n      sload\n      swap1\n      0x0100\n      exp\n      swap1\n      div\n      0xffffffffffffffffffffffffffffffffffffffff\n      and\n        /* \"contracts/Book.sol\":381:400  msg.sender == admin */\n      0xffffffffffffffffffffffffffffffffffffffff\n      and\n        /* \"contracts/Book.sol\":381:391  msg.sender */\n      caller\n        /* \"contracts/Book.sol\":381:400  msg.sender == admin */\n      0xffffffffffffffffffffffffffffffffffffffff\n      and\n      eq\n        /* \"contracts/Book.sol\":373:415  require(msg.sender == admin, \"Unautorize\") */\n      tag_50\n      jumpi\n      mload(0x40)\n      0x08c379a000000000000000000000000000000000000000000000000000000000\n      dup2\n      mstore\n      0x04\n      add\n      tag_51\n      swap1\n      tag_52\n      jump\t// in\n    tag_51:\n      mload(0x40)\n      dup1\n      swap2\n      sub\n      swap1\n      revert\n    tag_50:\n        /* \"contracts/Book.sol\":1542:1558  bookExist(_isbn) */\n      tag_54\n        /* \"contracts/Book.sol\":1552:1557  _isbn */\n      dup2\n        /* \"contracts/Book.sol\":1542:1551  bookExist */\n      tag_42\n        /* \"contracts/Book.sol\":1542:1558  bookExist(_isbn) */\n      jump\t// in\n    tag_54:\n        /* \"contracts/Book.sol\":1534:1572  require(bookExist(_isbn), \"Not Found\") */\n      tag_55\n      jumpi\n      mload(0x40)\n      0x08c379a000000000000000000000000000000000000000000000000000000000\n      dup2\n      mstore\n      0x04\n      add\n      tag_56\n      swap1\n      tag_57\n      jump\t// in\n    tag_56:\n      mload(0x40)\n      dup1\n      swap2\n      sub\n      swap1\n      revert\n    tag_55:\n        /* \"contracts/Book.sol\":1583:1596  uint getIndex */\n      0x00\n        /* \"contracts/Book.sol\":1619:1620  1 */\n      0x01\n        /* \"contracts/Book.sol\":1599:1609  indexBooks */\n      0x02\n        /* \"contracts/Book.sol\":1599:1616  indexBooks[_isbn] */\n      0x00\n        /* \"contracts/Book.sol\":1610:1615  _isbn */\n      dup5\n        /* \"contracts/Book.sol\":1599:1616  indexBooks[_isbn] */\n      dup2\n      mstore\n      0x20\n      add\n      swap1\n      dup2\n      mstore\n      0x20\n      add\n      0x00\n      keccak256\n      sload\n        /* \"contracts/Book.sol\":1599:1620  indexBooks[_isbn] - 1 */\n      tag_58\n      swap2\n      swap1\n      tag_59\n      jump\t// in\n    tag_58:\n        /* \"contracts/Book.sol\":1583:1620  uint getIndex = indexBooks[_isbn] - 1 */\n      swap1\n      pop\n        /* \"contracts/Book.sol\":1630:1657  BookAtribut memory lastBook */\n      0x00\n        /* \"contracts/Book.sol\":1660:1665  books */\n      0x01\n        /* \"contracts/Book.sol\":1681:1682  1 */\n      dup1\n        /* \"contracts/Book.sol\":1666:1671  books */\n      dup1\n        /* \"contracts/Book.sol\":1666:1678  books.length */\n      dup1\n      sload\n      swap1\n      pop\n        /* \"contracts/Book.sol\":1666:1682  books.length - 1 */\n      tag_60\n      swap2\n      swap1\n      tag_59\n      jump\t// in\n    tag_60:\n        /* \"contracts/Book.sol\":1660:1683  books[books.length - 1] */\n      dup2\n      sload\n      dup2\n      lt\n      tag_61\n      jumpi\n      tag_62\n      tag_63\n      jump\t// in\n    tag_62:\n    tag_61:\n      swap1\n      0x00\n      mstore\n      keccak256(0x00, 0x20)\n      swap1\n      0x04\n      mul\n      add\n        /* \"contracts/Book.sol\":1630:1683  BookAtribut memory lastBook = books[books.length - 1] */\n      mload(0x40)\n      dup1\n      0x80\n      add\n      0x40\n      mstore\n      swap1\n      dup2\n      0x00\n      dup3\n      add\n      sload\n      dup2\n      mstore\n      0x20\n      add\n      0x01\n      dup3\n      add\n      dup1\n      sload\n      tag_65\n      swap1\n      tag_66\n      jump\t// in\n    tag_65:\n      dup1\n      0x1f\n      add\n      0x20\n      dup1\n      swap2\n      div\n      mul\n      0x20\n      add\n      mload(0x40)\n      swap1\n      dup2\n      add\n      0x40\n      mstore\n      dup1\n      swap3\n      swap2\n      swap1\n      dup2\n      dup2\n      mstore\n      0x20\n      add\n      dup3\n      dup1\n      sload\n      tag_67\n      swap1\n      tag_66\n      jump\t// in\n    tag_67:\n      dup1\n      iszero\n      tag_68\n      jumpi\n      dup1\n      0x1f\n      lt\n      tag_69\n      jumpi\n      0x0100\n      dup1\n      dup4\n      sload\n      div\n      mul\n      dup4\n      mstore\n      swap2\n      0x20\n      add\n      swap2\n      jump(tag_68)\n    tag_69:\n      dup3\n      add\n      swap2\n      swap1\n      0x00\n      mstore\n      keccak256(0x00, 0x20)\n      swap1\n    tag_70:\n      dup2\n      sload\n      dup2\n      mstore\n      swap1\n      0x01\n      add\n      swap1\n      0x20\n      add\n      dup1\n      dup4\n      gt\n      tag_70\n      jumpi\n      dup3\n      swap1\n      sub\n      0x1f\n      and\n      dup3\n      add\n      swap2\n    tag_68:\n      pop\n      pop\n      pop\n      pop\n      pop\n      dup2\n      mstore\n      0x20\n      add\n      0x02\n      dup3\n      add\n      sload\n      dup2\n      mstore\n      0x20\n      add\n      0x03\n      dup3\n      add\n      dup1\n      sload\n      tag_71\n      swap1\n      tag_66\n      jump\t// in\n    tag_71:\n      dup1\n      0x1f\n      add\n      0x20\n      dup1\n      swap2\n      div\n      mul\n      0x20\n      add\n      mload(0x40)\n      swap1\n      dup2\n      add\n      0x40\n      mstore\n      dup1\n      swap3\n      swap2\n      swap1\n      dup2\n      dup2\n      mstore\n      0x20\n      add\n      dup3\n      dup1\n      sload\n      tag_72\n      swap1\n      tag_66\n      jump\t// in\n    tag_72:\n      dup1\n      iszero\n      tag_73\n      jumpi\n      dup1\n      0x1f\n      lt\n      tag_74\n      jumpi\n      0x0100\n      dup1\n      dup4\n      sload\n      div\n      mul\n      dup4\n      mstore\n      swap2\n      0x20\n      add\n      swap2\n      jump(tag_73)\n    tag_74:\n      dup3\n      add\n      swap2\n      swap1\n      0x00\n      mstore\n      keccak256(0x00, 0x20)\n      swap1\n    tag_75:\n      dup2\n      sload\n      dup2\n      mstore\n      swap1\n      0x01\n      add\n      swap1\n      0x20\n      add\n      dup1\n      dup4\n      gt\n      tag_75\n      jumpi\n      dup3\n      swap1\n      sub\n      0x1f\n      and\n      dup3\n      add\n      swap2\n    tag_73:\n      pop\n      pop\n      pop\n      pop\n      pop\n      dup2\n      mstore\n      pop\n      pop\n      swap1\n      pop\n        /* \"contracts/Book.sol\":1712:1720  lastBook */\n      dup1\n        /* \"contracts/Book.sol\":1694:1699  books */\n      0x01\n        /* \"contracts/Book.sol\":1700:1708  getIndex */\n      dup4\n        /* \"contracts/Book.sol\":1694:1709  books[getIndex] */\n      dup2\n      sload\n      dup2\n      lt\n      tag_76\n      jumpi\n      tag_77\n      tag_63\n      jump\t// in\n    tag_77:\n    tag_76:\n      swap1\n      0x00\n      mstore\n      keccak256(0x00, 0x20)\n      swap1\n      0x04\n      mul\n      add\n        /* \"contracts/Book.sol\":1694:1720  books[getIndex] = lastBook */\n      0x00\n      dup3\n      add\n      mload\n      dup2\n      0x00\n      add\n      sstore\n      0x20\n      dup3\n      add\n      mload\n      dup2\n      0x01\n      add\n      swap1\n      dup2\n      tag_79\n      swap2\n      swap1\n      tag_80\n      jump\t// in\n    tag_79:\n      pop\n      0x40\n      dup3\n      add\n      mload\n      dup2\n      0x02\n      add\n      sstore\n      0x60\n      dup3\n      add\n      mload\n      dup2\n      0x03\n      add\n      swap1\n      dup2\n      tag_81\n      swap2\n      swap1\n      tag_80\n      jump\t// in\n    tag_81:\n      pop\n      swap1\n      pop\n      pop\n        /* \"contracts/Book.sol\":1769:1770  1 */\n      0x01\n        /* \"contracts/Book.sol\":1758:1766  getIndex */\n      dup3\n        /* \"contracts/Book.sol\":1758:1770  getIndex + 1 */\n      tag_82\n      swap2\n      swap1\n      tag_83\n      jump\t// in\n    tag_82:\n        /* \"contracts/Book.sol\":1730:1740  indexBooks */\n      0x02\n        /* \"contracts/Book.sol\":1730:1755  indexBooks[lastBook.isbn] */\n      0x00\n        /* \"contracts/Book.sol\":1741:1749  lastBook */\n      dup4\n        /* \"contracts/Book.sol\":1741:1754  lastBook.isbn */\n      0x00\n      add\n      mload\n        /* \"contracts/Book.sol\":1730:1755  indexBooks[lastBook.isbn] */\n      dup2\n      mstore\n      0x20\n      add\n      swap1\n      dup2\n      mstore\n      0x20\n      add\n      0x00\n      keccak256\n        /* \"contracts/Book.sol\":1730:1770  indexBooks[lastBook.isbn] = getIndex + 1 */\n      dup2\n      swap1\n      sstore\n      pop\n        /* \"contracts/Book.sol\":1788:1798  indexBooks */\n      0x02\n        /* \"contracts/Book.sol\":1788:1805  indexBooks[_isbn] */\n      0x00\n        /* \"contracts/Book.sol\":1799:1804  _isbn */\n      dup5\n        /* \"contracts/Book.sol\":1788:1805  indexBooks[_isbn] */\n      dup2\n      mstore\n      0x20\n      add\n      swap1\n      dup2\n      mstore\n      0x20\n      add\n      0x00\n      keccak256\n        /* \"contracts/Book.sol\":1781:1805  delete indexBooks[_isbn] */\n      0x00\n      swap1\n      sstore\n        /* \"contracts/Book.sol\":1815:1820  books */\n      0x01\n        /* \"contracts/Book.sol\":1815:1826  books.pop() */\n      dup1\n      sload\n      dup1\n      tag_84\n      jumpi\n      tag_85\n      tag_86\n      jump\t// in\n    tag_85:\n    tag_84:\n      0x01\n      swap1\n      sub\n      dup2\n      dup2\n      swap1\n      0x00\n      mstore\n      keccak256(0x00, 0x20)\n      swap1\n      0x04\n      mul\n      add\n      0x00\n      dup1\n      dup3\n      add\n      0x00\n      swap1\n      sstore\n      0x01\n      dup3\n      add\n      0x00\n      tag_88\n      swap2\n      swap1\n      tag_89\n      jump\t// in\n    tag_88:\n      0x02\n      dup3\n      add\n      0x00\n      swap1\n      sstore\n      0x03\n      dup3\n      add\n      0x00\n      tag_90\n      swap2\n      swap1\n      tag_89\n      jump\t// in\n    tag_90:\n      pop\n      pop\n      swap1\n      sstore\n        /* \"contracts/Book.sol\":1524:1833  {... */\n      pop\n      pop\n        /* \"contracts/Book.sol\":1471:1833  function removeBook (bytes32 _isbn) public onlyAdmin {... */\n      pop\n      jump\t// out\n        /* \"contracts/Book.sol\":268:294  BookAtribut[] public books */\n    tag_19:\n      0x01\n      dup2\n      dup2\n      sload\n      dup2\n      lt\n      tag_91\n      jumpi\n      0x00\n      dup1\n      revert\n    tag_91:\n      swap1\n      0x00\n      mstore\n      keccak256(0x00, 0x20)\n      swap1\n      0x04\n      mul\n      add\n      0x00\n      swap2\n      pop\n      swap1\n      pop\n      dup1\n      0x00\n      add\n      sload\n      swap1\n      dup1\n      0x01\n      add\n      dup1\n      sload\n      tag_93\n      swap1\n      tag_66\n      jump\t// in\n    tag_93:\n      dup1\n      0x1f\n      add\n      0x20\n      dup1\n      swap2\n      div\n      mul\n      0x20\n      add\n      mload(0x40)\n      swap1\n      dup2\n      add\n      0x40\n      mstore\n      dup1\n      swap3\n      swap2\n      swap1\n      dup2\n      dup2\n      mstore\n      0x20\n      add\n      dup3\n      dup1\n      sload\n      tag_94\n      swap1\n      tag_66\n      jump\t// in\n    tag_94:\n      dup1\n      iszero\n      tag_95\n      jumpi\n      dup1\n      0x1f\n      lt\n      tag_96\n      jumpi\n      0x0100\n      dup1\n      dup4\n      sload\n      div\n      mul\n      dup4\n      mstore\n      swap2\n      0x20\n      add\n      swap2\n      jump(tag_95)\n    tag_96:\n      dup3\n      add\n      swap2\n      swap1\n      0x00\n      mstore\n      keccak256(0x00, 0x20)\n      swap1\n    tag_97:\n      dup2\n      sload\n      dup2\n      mstore\n      swap1\n      0x01\n      add\n      swap1\n      0x20\n      add\n      dup1\n      dup4\n      gt\n      tag_97\n      jumpi\n      dup3\n      swap1\n      sub\n      0x1f\n      and\n      dup3\n      add\n      swap2\n    tag_95:\n      pop\n      pop\n      pop\n      pop\n      pop\n      swap1\n      dup1\n      0x02\n      add\n      sload\n      swap1\n      dup1\n      0x03\n      add\n      dup1\n      sload\n      tag_98\n      swap1\n      tag_66\n      jump\t// in\n    tag_98:\n      dup1\n      0x1f\n      add\n      0x20\n      dup1\n      swap2\n      div\n      mul\n      0x20\n      add\n      mload(0x40)\n      swap1\n      dup2\n      add\n      0x40\n      mstore\n      dup1\n      swap3\n      swap2\n      swap1\n      dup2\n      dup2\n      mstore\n      0x20\n      add\n      dup3\n      dup1\n      sload\n      tag_99\n      swap1\n      tag_66\n      jump\t// in\n    tag_99:\n      dup1\n      iszero\n      tag_100\n      jumpi\n      dup1\n      0x1f\n      lt\n      tag_101\n      jumpi\n      0x0100\n      dup1\n      dup4\n      sload\n      div\n      mul\n      dup4\n      mstore\n      swap2\n      0x20\n      add\n      swap2\n      jump(tag_100)\n    tag_101:\n      dup3\n      add\n      swap2\n      swap1\n      0x00\n      mstore\n      keccak256(0x00, 0x20)\n      swap1\n    tag_102:\n      dup2\n      sload\n      dup2\n      mstore\n      swap1\n      0x01\n      add\n      swap1\n      0x20\n      add\n      dup1\n      dup4\n      gt\n      tag_102\n      jumpi\n      dup3\n      swap1\n      sub\n      0x1f\n      and\n      dup3\n      add\n      swap2\n    tag_100:\n      pop\n      pop\n      pop\n      pop\n      pop\n      swap1\n      pop\n      dup5\n      jump\t// out\n        /* \"contracts/Book.sol\":631:1034  function addBook (... */\n    tag_25:\n        /* \"contracts/Book.sol\":395:400  admin */\n      0x00\n      dup1\n      sload\n      swap1\n      0x0100\n      exp\n      swap1\n      div\n      0xffffffffffffffffffffffffffffffffffffffff\n      and\n        /* \"contracts/Book.sol\":381:400  msg.sender == admin */\n      0xffffffffffffffffffffffffffffffffffffffff\n      and\n        /* \"contracts/Book.sol\":381:391  msg.sender */\n      caller\n        /* \"contracts/Book.sol\":381:400  msg.sender == admin */\n      0xffffffffffffffffffffffffffffffffffffffff\n      and\n      eq\n        /* \"contracts/Book.sol\":373:415  require(msg.sender == admin, \"Unautorize\") */\n      tag_104\n      jumpi\n      mload(0x40)\n      0x08c379a000000000000000000000000000000000000000000000000000000000\n      dup2\n      mstore\n      0x04\n      add\n      tag_105\n      swap1\n      tag_52\n      jump\t// in\n    tag_105:\n      mload(0x40)\n      dup1\n      swap2\n      sub\n      swap1\n      revert\n    tag_104:\n        /* \"contracts/Book.sol\":768:795  BookAtribut memory newBooks */\n      0x00\n        /* \"contracts/Book.sol\":798:945  BookAtribut({... */\n      mload(0x40)\n      dup1\n      0x80\n      add\n      0x40\n      mstore\n      dup1\n        /* \"contracts/Book.sol\":830:851  generatorISBN(_title) */\n      tag_107\n        /* \"contracts/Book.sol\":844:850  _title */\n      dup9\n      dup9\n        /* \"contracts/Book.sol\":830:843  generatorISBN */\n      tag_37\n        /* \"contracts/Book.sol\":830:851  generatorISBN(_title) */\n      jump\t// in\n    tag_107:\n        /* \"contracts/Book.sol\":798:945  BookAtribut({... */\n      dup2\n      mstore\n      0x20\n      add\n        /* \"contracts/Book.sol\":872:878  _title */\n      dup8\n      dup8\n        /* \"contracts/Book.sol\":798:945  BookAtribut({... */\n      dup1\n      dup1\n      0x1f\n      add\n      0x20\n      dup1\n      swap2\n      div\n      mul\n      0x20\n      add\n      mload(0x40)\n      swap1\n      dup2\n      add\n      0x40\n      mstore\n      dup1\n      swap4\n      swap3\n      swap2\n      swap1\n      dup2\n      dup2\n      mstore\n      0x20\n      add\n      dup4\n      dup4\n      dup1\n      dup3\n      dup5\n      calldatacopy\n      0x00\n      dup2\n      dup5\n      add\n      mstore\n      not(0x1f)\n      0x1f\n      dup3\n      add\n      and\n      swap1\n      pop\n      dup1\n      dup4\n      add\n      swap3\n      pop\n      pop\n      pop\n      pop\n      pop\n      pop\n      pop\n      dup2\n      mstore\n      0x20\n      add\n        /* \"contracts/Book.sol\":898:903  _year */\n      dup6\n        /* \"contracts/Book.sol\":798:945  BookAtribut({... */\n      dup2\n      mstore\n      0x20\n      add\n        /* \"contracts/Book.sol\":926:934  _writter */\n      dup5\n      dup5\n        /* \"contracts/Book.sol\":798:945  BookAtribut({... */\n      dup1\n      dup1\n      0x1f\n      add\n      0x20\n      dup1\n      swap2\n      div\n      mul\n      0x20\n      add\n      mload(0x40)\n      swap1\n      dup2\n      add\n      0x40\n      mstore\n      dup1\n      swap4\n      swap3\n      swap2\n      swap1\n      dup2\n      dup2\n      mstore\n      0x20\n      add\n      dup4\n      dup4\n      dup1\n      dup3\n      dup5\n      calldatacopy\n      0x00\n      dup2\n      dup5\n      add\n      mstore\n      not(0x1f)\n      0x1f\n      dup3\n      add\n      and\n      swap1\n      pop\n      dup1\n      dup4\n      add\n      swap3\n      pop\n      pop\n      pop\n      pop\n      pop\n      pop\n      pop\n      dup2\n      mstore\n      pop\n        /* \"contracts/Book.sol\":768:945  BookAtribut memory newBooks = BookAtribut({... */\n      swap1\n      pop\n        /* \"contracts/Book.sol\":956:961  books */\n      0x01\n        /* \"contracts/Book.sol\":967:975  newBooks */\n      dup2\n        /* \"contracts/Book.sol\":956:976  books.push(newBooks) */\n      swap1\n      dup1\n      0x01\n      dup2\n      sload\n      add\n      dup1\n      dup3\n      sstore\n      dup1\n      swap2\n      pop\n      pop\n      0x01\n      swap1\n      sub\n      swap1\n      0x00\n      mstore\n      keccak256(0x00, 0x20)\n      swap1\n      0x04\n      mul\n      add\n      0x00\n      swap1\n      swap2\n      swap1\n      swap2\n      swap1\n      swap2\n      pop\n      0x00\n      dup3\n      add\n      mload\n      dup2\n      0x00\n      add\n      sstore\n      0x20\n      dup3\n      add\n      mload\n      dup2\n      0x01\n      add\n      swap1\n      dup2\n      tag_109\n      swap2\n      swap1\n      tag_80\n      jump\t// in\n    tag_109:\n      pop\n      0x40\n      dup3\n      add\n      mload\n      dup2\n      0x02\n      add\n      sstore\n      0x60\n      dup3\n      add\n      mload\n      dup2\n      0x03\n      add\n      swap1\n      dup2\n      tag_110\n      swap2\n      swap1\n      tag_80\n      jump\t// in\n    tag_110:\n      pop\n      pop\n      pop\n        /* \"contracts/Book.sol\":1015:1020  books */\n      0x01\n        /* \"contracts/Book.sol\":1015:1027  books.length */\n      dup1\n      sload\n      swap1\n      pop\n        /* \"contracts/Book.sol\":987:997  indexBooks */\n      0x02\n        /* \"contracts/Book.sol\":987:1012  indexBooks[newBooks.isbn] */\n      0x00\n        /* \"contracts/Book.sol\":998:1006  newBooks */\n      dup4\n        /* \"contracts/Book.sol\":998:1011  newBooks.isbn */\n      0x00\n      add\n      mload\n        /* \"contracts/Book.sol\":987:1012  indexBooks[newBooks.isbn] */\n      dup2\n      mstore\n      0x20\n      add\n      swap1\n      dup2\n      mstore\n      0x20\n      add\n      0x00\n      keccak256\n        /* \"contracts/Book.sol\":987:1027  indexBooks[newBooks.isbn] = books.length */\n      dup2\n      swap1\n      sstore\n      pop\n        /* \"contracts/Book.sol\":758:1034  {... */\n      pop\n        /* \"contracts/Book.sol\":631:1034  function addBook (... */\n      pop\n      pop\n      pop\n      pop\n      pop\n      jump\t// out\n        /* \"contracts/Book.sol\":1153:1465  function getBook (bytes32 _isbn) public view returns(bytes32, string memory, uint , string memory) {... */\n    tag_28:\n        /* \"contracts/Book.sol\":1206:1213  bytes32 */\n      0x00\n        /* \"contracts/Book.sol\":1215:1228  string memory */\n      0x60\n        /* \"contracts/Book.sol\":1230:1234  uint */\n      0x00\n        /* \"contracts/Book.sol\":1237:1250  string memory */\n      0x60\n        /* \"contracts/Book.sol\":1270:1286  bookExist(_isbn) */\n      tag_112\n        /* \"contracts/Book.sol\":1280:1285  _isbn */\n      dup6\n        /* \"contracts/Book.sol\":1270:1279  bookExist */\n      tag_42\n        /* \"contracts/Book.sol\":1270:1286  bookExist(_isbn) */\n      jump\t// in\n    tag_112:\n        /* \"contracts/Book.sol\":1262:1300  require(bookExist(_isbn), \"Not Found\") */\n      tag_113\n      jumpi\n      mload(0x40)\n      0x08c379a000000000000000000000000000000000000000000000000000000000\n      dup2\n      mstore\n      0x04\n      add\n      tag_114\n      swap1\n      tag_57\n      jump\t// in\n    tag_114:\n      mload(0x40)\n      dup1\n      swap2\n      sub\n      swap1\n      revert\n    tag_113:\n        /* \"contracts/Book.sol\":1311:1324  uint getIndex */\n      0x00\n        /* \"contracts/Book.sol\":1347:1348  1 */\n      0x01\n        /* \"contracts/Book.sol\":1327:1337  indexBooks */\n      0x02\n        /* \"contracts/Book.sol\":1327:1344  indexBooks[_isbn] */\n      0x00\n        /* \"contracts/Book.sol\":1338:1343  _isbn */\n      dup9\n        /* \"contracts/Book.sol\":1327:1344  indexBooks[_isbn] */\n      dup2\n      mstore\n      0x20\n      add\n      swap1\n      dup2\n      mstore\n      0x20\n      add\n      0x00\n      keccak256\n      sload\n        /* \"contracts/Book.sol\":1327:1348  indexBooks[_isbn] - 1 */\n      tag_115\n      swap2\n      swap1\n      tag_59\n      jump\t// in\n    tag_115:\n        /* \"contracts/Book.sol\":1311:1348  uint getIndex = indexBooks[_isbn] - 1 */\n      swap1\n      pop\n        /* \"contracts/Book.sol\":1367:1372  books */\n      0x01\n        /* \"contracts/Book.sol\":1373:1381  getIndex */\n      dup2\n        /* \"contracts/Book.sol\":1367:1382  books[getIndex] */\n      dup2\n      sload\n      dup2\n      lt\n      tag_116\n      jumpi\n      tag_117\n      tag_63\n      jump\t// in\n    tag_117:\n    tag_116:\n      swap1\n      0x00\n      mstore\n      keccak256(0x00, 0x20)\n      swap1\n      0x04\n      mul\n      add\n        /* \"contracts/Book.sol\":1367:1387  books[getIndex].isbn */\n      0x00\n      add\n      sload\n        /* \"contracts/Book.sol\":1389:1394  books */\n      0x01\n        /* \"contracts/Book.sol\":1395:1403  getIndex */\n      dup3\n        /* \"contracts/Book.sol\":1389:1404  books[getIndex] */\n      dup2\n      sload\n      dup2\n      lt\n      tag_119\n      jumpi\n      tag_120\n      tag_63\n      jump\t// in\n    tag_120:\n    tag_119:\n      swap1\n      0x00\n      mstore\n      keccak256(0x00, 0x20)\n      swap1\n      0x04\n      mul\n      add\n        /* \"contracts/Book.sol\":1389:1410  books[getIndex].title */\n      0x01\n      add\n        /* \"contracts/Book.sol\":1412:1417  books */\n      0x01\n        /* \"contracts/Book.sol\":1418:1426  getIndex */\n      dup4\n        /* \"contracts/Book.sol\":1412:1427  books[getIndex] */\n      dup2\n      sload\n      dup2\n      lt\n      tag_122\n      jumpi\n      tag_123\n      tag_63\n      jump\t// in\n    tag_123:\n    tag_122:\n      swap1\n      0x00\n      mstore\n      keccak256(0x00, 0x20)\n      swap1\n      0x04\n      mul\n      add\n        /* \"contracts/Book.sol\":1412:1432  books[getIndex].year */\n      0x02\n      add\n      sload\n        /* \"contracts/Book.sol\":1434:1439  books */\n      0x01\n        /* \"contracts/Book.sol\":1440:1448  getIndex */\n      dup5\n        /* \"contracts/Book.sol\":1434:1449  books[getIndex] */\n      dup2\n      sload\n      dup2\n      lt\n      tag_125\n      jumpi\n      tag_126\n      tag_63\n      jump\t// in\n    tag_126:\n    tag_125:\n      swap1\n      0x00\n      mstore\n      keccak256(0x00, 0x20)\n      swap1\n      0x04\n      mul\n      add\n        /* \"contracts/Book.sol\":1434:1457  books[getIndex].writter */\n      0x03\n      add\n        /* \"contracts/Book.sol\":1359:1458  return (books[getIndex].isbn, books[getIndex].title, books[getIndex].year, books[getIndex].writter) */\n      dup3\n      dup1\n      sload\n      tag_128\n      swap1\n      tag_66\n      jump\t// in\n    tag_128:\n      dup1\n      0x1f\n      add\n      0x20\n      dup1\n      swap2\n      div\n      mul\n      0x20\n      add\n      mload(0x40)\n      swap1\n      dup2\n      add\n      0x40\n      mstore\n      dup1\n      swap3\n      swap2\n      swap1\n      dup2\n      dup2\n      mstore\n      0x20\n      add\n      dup3\n      dup1\n      sload\n      tag_129\n      swap1\n      tag_66\n      jump\t// in\n    tag_129:\n      dup1\n      iszero\n      tag_130\n      jumpi\n      dup1\n      0x1f\n      lt\n      tag_131\n      jumpi\n      0x0100\n      dup1\n      dup4\n      sload\n      div\n      mul\n      dup4\n      mstore\n      swap2\n      0x20\n      add\n      swap2\n      jump(tag_130)\n    tag_131:\n      dup3\n      add\n      swap2\n      swap1\n      0x00\n      mstore\n      keccak256(0x00, 0x20)\n      swap1\n    tag_132:\n      dup2\n      sload\n      dup2\n      mstore\n      swap1\n      0x01\n      add\n      swap1\n      0x20\n      add\n      dup1\n      dup4\n      gt\n      tag_132\n      jumpi\n      dup3\n      swap1\n      sub\n      0x1f\n      and\n      dup3\n      add\n      swap2\n    tag_130:\n      pop\n      pop\n      pop\n      pop\n      pop\n      swap3\n      pop\n      dup1\n      dup1\n      sload\n      tag_133\n      swap1\n      tag_66\n      jump\t// in\n    tag_133:\n      dup1\n      0x1f\n      add\n      0x20\n      dup1\n      swap2\n      div\n      mul\n      0x20\n      add\n      mload(0x40)\n      swap1\n      dup2\n      add\n      0x40\n      mstore\n      dup1\n      swap3\n      swap2\n      swap1\n      dup2\n      dup2\n      mstore\n      0x20\n      add\n      dup3\n      dup1\n      sload\n      tag_134\n      swap1\n      tag_66\n      jump\t// in\n    tag_134:\n      dup1\n      iszero\n      tag_135\n      jumpi\n      dup1\n      0x1f\n      lt\n      tag_136\n      jumpi\n      0x0100\n      dup1\n      dup4\n      sload\n      div\n      mul\n      dup4\n      mstore\n      swap2\n      0x20\n      add\n      swap2\n      jump(tag_135)\n    tag_136:\n      dup3\n      add\n      swap2\n      swap1\n      0x00\n      mstore\n      keccak256(0x00, 0x20)\n      swap1\n    tag_137:\n      dup2\n      sload\n      dup2\n      mstore\n      swap1\n      0x01\n      add\n      swap1\n      0x20\n      add\n      dup1\n      dup4\n      gt\n      tag_137\n      jumpi\n      dup3\n      swap1\n      sub\n      0x1f\n      and\n      dup3\n      add\n      swap2\n    tag_135:\n      pop\n      pop\n      pop\n      pop\n      pop\n      swap1\n      pop\n      swap5\n      pop\n      swap5\n      pop\n      swap5\n      pop\n      swap5\n      pop\n      pop\n        /* \"contracts/Book.sol\":1153:1465  function getBook (bytes32 _isbn) public view returns(bytes32, string memory, uint , string memory) {... */\n      swap2\n      swap4\n      pop\n      swap2\n      swap4\n      jump\t// out\n        /* \"contracts/Book.sol\":1839:2364  function updateBook (... */\n    tag_33:\n        /* \"contracts/Book.sol\":395:400  admin */\n      0x00\n      dup1\n      sload\n      swap1\n      0x0100\n      exp\n      swap1\n      div\n      0xffffffffffffffffffffffffffffffffffffffff\n      and\n        /* \"contracts/Book.sol\":381:400  msg.sender == admin */\n      0xffffffffffffffffffffffffffffffffffffffff\n      and\n        /* \"contracts/Book.sol\":381:391  msg.sender */\n      caller\n        /* \"contracts/Book.sol\":381:400  msg.sender == admin */\n      0xffffffffffffffffffffffffffffffffffffffff\n      and\n      eq\n        /* \"contracts/Book.sol\":373:415  require(msg.sender == admin, \"Unautorize\") */\n      tag_139\n      jumpi\n      mload(0x40)\n      0x08c379a000000000000000000000000000000000000000000000000000000000\n      dup2\n      mstore\n      0x04\n      add\n      tag_140\n      swap1\n      tag_52\n      jump\t// in\n    tag_140:\n      mload(0x40)\n      dup1\n      swap2\n      sub\n      swap1\n      revert\n    tag_139:\n        /* \"contracts/Book.sol\":2010:2026  bookExist(_isbn) */\n      tag_142\n        /* \"contracts/Book.sol\":2020:2025  _isbn */\n      dup7\n        /* \"contracts/Book.sol\":2010:2019  bookExist */\n      tag_42\n        /* \"contracts/Book.sol\":2010:2026  bookExist(_isbn) */\n      jump\t// in\n    tag_142:\n        /* \"contracts/Book.sol\":2002:2040  require(bookExist(_isbn), \"Not Found\") */\n      tag_143\n      jumpi\n      mload(0x40)\n      0x08c379a000000000000000000000000000000000000000000000000000000000\n      dup2\n      mstore\n      0x04\n      add\n      tag_144\n      swap1\n      tag_57\n      jump\t// in\n    tag_144:\n      mload(0x40)\n      dup1\n      swap2\n      sub\n      swap1\n      revert\n    tag_143:\n        /* \"contracts/Book.sol\":2051:2064  uint getIndex */\n      0x00\n        /* \"contracts/Book.sol\":2087:2088  1 */\n      0x01\n        /* \"contracts/Book.sol\":2067:2077  indexBooks */\n      0x02\n        /* \"contracts/Book.sol\":2067:2084  indexBooks[_isbn] */\n      0x00\n        /* \"contracts/Book.sol\":2078:2083  _isbn */\n      dup10\n        /* \"contracts/Book.sol\":2067:2084  indexBooks[_isbn] */\n      dup2\n      mstore\n      0x20\n      add\n      swap1\n      dup2\n      mstore\n      0x20\n      add\n      0x00\n      keccak256\n      sload\n        /* \"contracts/Book.sol\":2067:2088  indexBooks[_isbn] - 1 */\n      tag_145\n      swap2\n      swap1\n      tag_59\n      jump\t// in\n    tag_145:\n        /* \"contracts/Book.sol\":2051:2088  uint getIndex = indexBooks[_isbn] - 1 */\n      swap1\n      pop\n        /* \"contracts/Book.sol\":2117:2264  BookAtribut({... */\n      mload(0x40)\n      dup1\n      0x80\n      add\n      0x40\n      mstore\n      dup1\n        /* \"contracts/Book.sol\":2149:2170  generatorISBN(_title) */\n      tag_146\n        /* \"contracts/Book.sol\":2163:2169  _title */\n      dup9\n      dup9\n        /* \"contracts/Book.sol\":2149:2162  generatorISBN */\n      tag_37\n        /* \"contracts/Book.sol\":2149:2170  generatorISBN(_title) */\n      jump\t// in\n    tag_146:\n        /* \"contracts/Book.sol\":2117:2264  BookAtribut({... */\n      dup2\n      mstore\n      0x20\n      add\n        /* \"contracts/Book.sol\":2191:2197  _title */\n      dup8\n      dup8\n        /* \"contracts/Book.sol\":2117:2264  BookAtribut({... */\n      dup1\n      dup1\n      0x1f\n      add\n      0x20\n      dup1\n      swap2\n      div\n      mul\n      0x20\n      add\n      mload(0x40)\n      swap1\n      dup2\n      add\n      0x40\n      mstore\n      dup1\n      swap4\n      swap3\n      swap2\n      swap1\n      dup2\n      dup2\n      mstore\n      0x20\n      add\n      dup4\n      dup4\n      dup1\n      dup3\n      dup5\n      calldatacopy\n      0x00\n      dup2\n      dup5\n      add\n      mstore\n      not(0x1f)\n      0x1f\n      dup3\n      add\n      and\n      swap1\n      pop\n      dup1\n      dup4\n      add\n      swap3\n      pop\n      pop\n      pop\n      pop\n      pop\n      pop\n      pop\n      dup2\n      mstore\n      0x20\n      add\n        /* \"contracts/Book.sol\":2217:2222  _year */\n      dup6\n        /* \"contracts/Book.sol\":2117:2264  BookAtribut({... */\n      dup2\n      mstore\n      0x20\n      add\n        /* \"contracts/Book.sol\":2245:2253  _writter */\n      dup5\n      dup5\n        /* \"contracts/Book.sol\":2117:2264  BookAtribut({... */\n      dup1\n      dup1\n      0x1f\n      add\n      0x20\n      dup1\n      swap2\n      div\n      mul\n      0x20\n      add\n      mload(0x40)\n      swap1\n      dup2\n      add\n      0x40\n      mstore\n      dup1\n      swap4\n      swap3\n      swap2\n      swap1\n      dup2\n      dup2\n      mstore\n      0x20\n      add\n      dup4\n      dup4\n      dup1\n      dup3\n      dup5\n      calldatacopy\n      0x00\n      dup2\n      dup5\n      add\n      mstore\n      not(0x1f)\n      0x1f\n      dup3\n      add\n      and\n      swap1\n      pop\n      dup1\n      dup4\n      add\n      swap3\n      pop\n      pop\n      pop\n      pop\n      pop\n      pop\n      pop\n      dup2\n      mstore\n      pop\n        /* \"contracts/Book.sol\":2099:2104  books */\n      0x01\n        /* \"contracts/Book.sol\":2105:2113  getIndex */\n      dup3\n        /* \"contracts/Book.sol\":2099:2114  books[getIndex] */\n      dup2\n      sload\n      dup2\n      lt\n      tag_147\n      jumpi\n      tag_148\n      tag_63\n      jump\t// in\n    tag_148:\n    tag_147:\n      swap1\n      0x00\n      mstore\n      keccak256(0x00, 0x20)\n      swap1\n      0x04\n      mul\n      add\n        /* \"contracts/Book.sol\":2099:2264  books[getIndex] = BookAtribut({... */\n      0x00\n      dup3\n      add\n      mload\n      dup2\n      0x00\n      add\n      sstore\n      0x20\n      dup3\n      add\n      mload\n      dup2\n      0x01\n      add\n      swap1\n      dup2\n      tag_150\n      swap2\n      swap1\n      tag_80\n      jump\t// in\n    tag_150:\n      pop\n      0x40\n      dup3\n      add\n      mload\n      dup2\n      0x02\n      add\n      sstore\n      0x60\n      dup3\n      add\n      mload\n      dup2\n      0x03\n      add\n      swap1\n      dup2\n      tag_151\n      swap2\n      swap1\n      tag_80\n      jump\t// in\n    tag_151:\n      pop\n      swap1\n      pop\n      pop\n        /* \"contracts/Book.sol\":2321:2322  1 */\n      0x01\n        /* \"contracts/Book.sol\":2310:2318  getIndex */\n      dup2\n        /* \"contracts/Book.sol\":2310:2322  getIndex + 1 */\n      tag_152\n      swap2\n      swap1\n      tag_83\n      jump\t// in\n    tag_152:\n        /* \"contracts/Book.sol\":2275:2285  indexBooks */\n      0x02\n        /* \"contracts/Book.sol\":2275:2307  indexBooks[books[getIndex].isbn] */\n      0x00\n        /* \"contracts/Book.sol\":2286:2291  books */\n      0x01\n        /* \"contracts/Book.sol\":2292:2300  getIndex */\n      dup5\n        /* \"contracts/Book.sol\":2286:2301  books[getIndex] */\n      dup2\n      sload\n      dup2\n      lt\n      tag_153\n      jumpi\n      tag_154\n      tag_63\n      jump\t// in\n    tag_154:\n    tag_153:\n      swap1\n      0x00\n      mstore\n      keccak256(0x00, 0x20)\n      swap1\n      0x04\n      mul\n      add\n        /* \"contracts/Book.sol\":2286:2306  books[getIndex].isbn */\n      0x00\n      add\n      sload\n        /* \"contracts/Book.sol\":2275:2307  indexBooks[books[getIndex].isbn] */\n      dup2\n      mstore\n      0x20\n      add\n      swap1\n      dup2\n      mstore\n      0x20\n      add\n      0x00\n      keccak256\n        /* \"contracts/Book.sol\":2275:2322  indexBooks[books[getIndex].isbn] = getIndex + 1 */\n      dup2\n      swap1\n      sstore\n      pop\n        /* \"contracts/Book.sol\":2339:2349  indexBooks */\n      0x02\n        /* \"contracts/Book.sol\":2339:2356  indexBooks[_isbn] */\n      0x00\n        /* \"contracts/Book.sol\":2350:2355  _isbn */\n      dup9\n        /* \"contracts/Book.sol\":2339:2356  indexBooks[_isbn] */\n      dup2\n      mstore\n      0x20\n      add\n      swap1\n      dup2\n      mstore\n      0x20\n      add\n      0x00\n      keccak256\n        /* \"contracts/Book.sol\":2332:2356  delete indexBooks[_isbn] */\n      0x00\n      swap1\n      sstore\n        /* \"contracts/Book.sol\":1992:2364  {... */\n      pop\n        /* \"contracts/Book.sol\":1839:2364  function updateBook (... */\n      pop\n      pop\n      pop\n      pop\n      pop\n      pop\n      jump\t// out\n        /* \"contracts/Book.sol\":439:625  function generatorISBN(string calldata _title) public pure returns (bytes32) {... */\n    tag_37:\n        /* \"contracts/Book.sol\":507:514  bytes32 */\n      0x00\n        /* \"contracts/Book.sol\":526:544  bytes32 randomIsdn */\n      dup1\n        /* \"contracts/Book.sol\":574:580  _title */\n      dup4\n      dup4\n        /* \"contracts/Book.sol\":557:581  abi.encodePacked(_title) */\n      add(0x20, mload(0x40))\n      tag_157\n      swap3\n      swap2\n      swap1\n      tag_158\n      jump\t// in\n    tag_157:\n      mload(0x40)\n      0x20\n      dup2\n      dup4\n      sub\n      sub\n      dup2\n      mstore\n      swap1\n      0x40\n      mstore\n        /* \"contracts/Book.sol\":547:582  keccak256(abi.encodePacked(_title)) */\n      dup1\n      mload\n      swap1\n      0x20\n      add\n      keccak256\n        /* \"contracts/Book.sol\":526:582  bytes32 randomIsdn = keccak256(abi.encodePacked(_title)) */\n      swap1\n      pop\n        /* \"contracts/Book.sol\":608:618  randomIsdn */\n      dup1\n        /* \"contracts/Book.sol\":601:618  return randomIsdn */\n      swap2\n      pop\n      pop\n        /* \"contracts/Book.sol\":439:625  function generatorISBN(string calldata _title) public pure returns (bytes32) {... */\n      swap3\n      swap2\n      pop\n      pop\n      jump\t// out\n        /* \"contracts/Book.sol\":1040:1147  function bookExist (bytes32 _isbn) public view returns (bool){... */\n    tag_42:\n        /* \"contracts/Book.sol\":1096:1100  bool */\n      0x00\n        /* \"contracts/Book.sol\":1139:1140  0 */\n      dup1\n        /* \"contracts/Book.sol\":1118:1128  indexBooks */\n      0x02\n        /* \"contracts/Book.sol\":1118:1135  indexBooks[_isbn] */\n      0x00\n        /* \"contracts/Book.sol\":1129:1134  _isbn */\n      dup5\n        /* \"contracts/Book.sol\":1118:1135  indexBooks[_isbn] */\n      dup2\n      mstore\n      0x20\n      add\n      swap1\n      dup2\n      mstore\n      0x20\n      add\n      0x00\n      keccak256\n      sload\n        /* \"contracts/Book.sol\":1118:1140  indexBooks[_isbn] != 0 */\n      eq\n      iszero\n        /* \"contracts/Book.sol\":1111:1140  return indexBooks[_isbn] != 0 */\n      swap1\n      pop\n        /* \"contracts/Book.sol\":1040:1147  function bookExist (bytes32 _isbn) public view returns (bool){... */\n      swap2\n      swap1\n      pop\n      jump\t// out\n        /* \"contracts/Book.sol\":77:142  address public admin = 0x5B38Da6a701c568545dCfcB03FcB875f56beddC4 */\n    tag_46:\n      0x00\n      dup1\n      sload\n      swap1\n      0x0100\n      exp\n      swap1\n      div\n      0xffffffffffffffffffffffffffffffffffffffff\n      and\n      dup2\n      jump\t// out\n    tag_89:\n      pop\n      dup1\n      sload\n      tag_160\n      swap1\n      tag_66\n      jump\t// in\n    tag_160:\n      0x00\n      dup3\n      sstore\n      dup1\n      0x1f\n      lt\n      tag_162\n      jumpi\n      pop\n      jump(tag_161)\n    tag_162:\n      0x1f\n      add\n      0x20\n      swap1\n      div\n      swap1\n      0x00\n      mstore\n      keccak256(0x00, 0x20)\n      swap1\n      dup2\n      add\n      swap1\n      tag_163\n      swap2\n      swap1\n      tag_164\n      jump\t// in\n    tag_163:\n    tag_161:\n      pop\n      jump\t// out\n    tag_164:\n    tag_165:\n      dup1\n      dup3\n      gt\n      iszero\n      tag_166\n      jumpi\n      0x00\n      dup2\n      0x00\n      swap1\n      sstore\n      pop\n      0x01\n      add\n      jump(tag_165)\n    tag_166:\n      pop\n      swap1\n      jump\t// out\n        /* \"#utility.yul\":88:205   */\n    tag_168:\n        /* \"#utility.yul\":197:198   */\n      0x00\n        /* \"#utility.yul\":194:195   */\n      dup1\n        /* \"#utility.yul\":187:199   */\n      revert\n        /* \"#utility.yul\":211:328   */\n    tag_169:\n        /* \"#utility.yul\":320:321   */\n      0x00\n        /* \"#utility.yul\":317:318   */\n      dup1\n        /* \"#utility.yul\":310:322   */\n      revert\n        /* \"#utility.yul\":334:411   */\n    tag_170:\n        /* \"#utility.yul\":371:378   */\n      0x00\n        /* \"#utility.yul\":400:405   */\n      dup2\n        /* \"#utility.yul\":389:405   */\n      swap1\n      pop\n        /* \"#utility.yul\":334:411   */\n      swap2\n      swap1\n      pop\n      jump\t// out\n        /* \"#utility.yul\":417:539   */\n    tag_171:\n        /* \"#utility.yul\":490:514   */\n      tag_223\n        /* \"#utility.yul\":508:513   */\n      dup2\n        /* \"#utility.yul\":490:514   */\n      tag_170\n      jump\t// in\n    tag_223:\n        /* \"#utility.yul\":483:488   */\n      dup2\n        /* \"#utility.yul\":480:515   */\n      eq\n        /* \"#utility.yul\":470:533   */\n      tag_224\n      jumpi\n        /* \"#utility.yul\":529:530   */\n      0x00\n        /* \"#utility.yul\":526:527   */\n      dup1\n        /* \"#utility.yul\":519:531   */\n      revert\n        /* \"#utility.yul\":470:533   */\n    tag_224:\n        /* \"#utility.yul\":417:539   */\n      pop\n      jump\t// out\n        /* \"#utility.yul\":545:684   */\n    tag_172:\n        /* \"#utility.yul\":591:596   */\n      0x00\n        /* \"#utility.yul\":629:635   */\n      dup2\n        /* \"#utility.yul\":616:636   */\n      calldataload\n        /* \"#utility.yul\":607:636   */\n      swap1\n      pop\n        /* \"#utility.yul\":645:678   */\n      tag_226\n        /* \"#utility.yul\":672:677   */\n      dup2\n        /* \"#utility.yul\":645:678   */\n      tag_171\n      jump\t// in\n    tag_226:\n        /* \"#utility.yul\":545:684   */\n      swap3\n      swap2\n      pop\n      pop\n      jump\t// out\n        /* \"#utility.yul\":690:1019   */\n    tag_14:\n        /* \"#utility.yul\":749:755   */\n      0x00\n        /* \"#utility.yul\":798:800   */\n      0x20\n        /* \"#utility.yul\":786:795   */\n      dup3\n        /* \"#utility.yul\":777:784   */\n      dup5\n        /* \"#utility.yul\":773:796   */\n      sub\n        /* \"#utility.yul\":769:801   */\n      slt\n        /* \"#utility.yul\":766:885   */\n      iszero\n      tag_228\n      jumpi\n        /* \"#utility.yul\":804:883   */\n      tag_229\n      tag_168\n      jump\t// in\n    tag_229:\n        /* \"#utility.yul\":766:885   */\n    tag_228:\n        /* \"#utility.yul\":924:925   */\n      0x00\n        /* \"#utility.yul\":949:1002   */\n      tag_230\n        /* \"#utility.yul\":994:1001   */\n      dup5\n        /* \"#utility.yul\":985:991   */\n      dup3\n        /* \"#utility.yul\":974:983   */\n      dup6\n        /* \"#utility.yul\":970:992   */\n      add\n        /* \"#utility.yul\":949:1002   */\n      tag_172\n      jump\t// in\n    tag_230:\n        /* \"#utility.yul\":939:1002   */\n      swap2\n      pop\n        /* \"#utility.yul\":895:1012   */\n      pop\n        /* \"#utility.yul\":690:1019   */\n      swap3\n      swap2\n      pop\n      pop\n      jump\t// out\n        /* \"#utility.yul\":1025:1102   */\n    tag_173:\n        /* \"#utility.yul\":1062:1069   */\n      0x00\n        /* \"#utility.yul\":1091:1096   */\n      dup2\n        /* \"#utility.yul\":1080:1096   */\n      swap1\n      pop\n        /* \"#utility.yul\":1025:1102   */\n      swap2\n      swap1\n      pop\n      jump\t// out\n        /* \"#utility.yul\":1108:1230   */\n    tag_174:\n        /* \"#utility.yul\":1181:1205   */\n      tag_233\n        /* \"#utility.yul\":1199:1204   */\n      dup2\n        /* \"#utility.yul\":1181:1205   */\n      tag_173\n      jump\t// in\n    tag_233:\n        /* \"#utility.yul\":1174:1179   */\n      dup2\n        /* \"#utility.yul\":1171:1206   */\n      eq\n        /* \"#utility.yul\":1161:1224   */\n      tag_234\n      jumpi\n        /* \"#utility.yul\":1220:1221   */\n      0x00\n        /* \"#utility.yul\":1217:1218   */\n      dup1\n        /* \"#utility.yul\":1210:1222   */\n      revert\n        /* \"#utility.yul\":1161:1224   */\n    tag_234:\n        /* \"#utility.yul\":1108:1230   */\n      pop\n      jump\t// out\n        /* \"#utility.yul\":1236:1375   */\n    tag_175:\n        /* \"#utility.yul\":1282:1287   */\n      0x00\n        /* \"#utility.yul\":1320:1326   */\n      dup2\n        /* \"#utility.yul\":1307:1327   */\n      calldataload\n        /* \"#utility.yul\":1298:1327   */\n      swap1\n      pop\n        /* \"#utility.yul\":1336:1369   */\n      tag_236\n        /* \"#utility.yul\":1363:1368   */\n      dup2\n        /* \"#utility.yul\":1336:1369   */\n      tag_174\n      jump\t// in\n    tag_236:\n        /* \"#utility.yul\":1236:1375   */\n      swap3\n      swap2\n      pop\n      pop\n      jump\t// out\n        /* \"#utility.yul\":1381:1710   */\n    tag_18:\n        /* \"#utility.yul\":1440:1446   */\n      0x00\n        /* \"#utility.yul\":1489:1491   */\n      0x20\n        /* \"#utility.yul\":1477:1486   */\n      dup3\n        /* \"#utility.yul\":1468:1475   */\n      dup5\n        /* \"#utility.yul\":1464:1487   */\n      sub\n        /* \"#utility.yul\":1460:1492   */\n      slt\n        /* \"#utility.yul\":1457:1576   */\n      iszero\n      tag_238\n      jumpi\n        /* \"#utility.yul\":1495:1574   */\n      tag_239\n      tag_168\n      jump\t// in\n    tag_239:\n        /* \"#utility.yul\":1457:1576   */\n    tag_238:\n        /* \"#utility.yul\":1615:1616   */\n      0x00\n        /* \"#utility.yul\":1640:1693   */\n      tag_240\n        /* \"#utility.yul\":1685:1692   */\n      dup5\n        /* \"#utility.yul\":1676:1682   */\n      dup3\n        /* \"#utility.yul\":1665:1674   */\n      dup6\n        /* \"#utility.yul\":1661:1683   */\n      add\n        /* \"#utility.yul\":1640:1693   */\n      tag_175\n      jump\t// in\n    tag_240:\n        /* \"#utility.yul\":1630:1693   */\n      swap2\n      pop\n        /* \"#utility.yul\":1586:1703   */\n      pop\n        /* \"#utility.yul\":1381:1710   */\n      swap3\n      swap2\n      pop\n      pop\n      jump\t// out\n        /* \"#utility.yul\":1716:1834   */\n    tag_176:\n        /* \"#utility.yul\":1803:1827   */\n      tag_242\n        /* \"#utility.yul\":1821:1826   */\n      dup2\n        /* \"#utility.yul\":1803:1827   */\n      tag_170\n      jump\t// in\n    tag_242:\n        /* \"#utility.yul\":1798:1801   */\n      dup3\n        /* \"#utility.yul\":1791:1828   */\n      mstore\n        /* \"#utility.yul\":1716:1834   */\n      pop\n      pop\n      jump\t// out\n        /* \"#utility.yul\":1840:1939   */\n    tag_177:\n        /* \"#utility.yul\":1892:1898   */\n      0x00\n        /* \"#utility.yul\":1926:1931   */\n      dup2\n        /* \"#utility.yul\":1920:1932   */\n      mload\n        /* \"#utility.yul\":1910:1932   */\n      swap1\n      pop\n        /* \"#utility.yul\":1840:1939   */\n      swap2\n      swap1\n      pop\n      jump\t// out\n        /* \"#utility.yul\":1945:2114   */\n    tag_178:\n        /* \"#utility.yul\":2029:2040   */\n      0x00\n        /* \"#utility.yul\":2063:2069   */\n      dup3\n        /* \"#utility.yul\":2058:2061   */\n      dup3\n        /* \"#utility.yul\":2051:2070   */\n      mstore\n        /* \"#utility.yul\":2103:2107   */\n      0x20\n        /* \"#utility.yul\":2098:2101   */\n      dup3\n        /* \"#utility.yul\":2094:2108   */\n      add\n        /* \"#utility.yul\":2079:2108   */\n      swap1\n      pop\n        /* \"#utility.yul\":1945:2114   */\n      swap3\n      swap2\n      pop\n      pop\n      jump\t// out\n        /* \"#utility.yul\":2120:2366   */\n    tag_179:\n        /* \"#utility.yul\":2201:2202   */\n      0x00\n        /* \"#utility.yul\":2211:2324   */\n    tag_246:\n        /* \"#utility.yul\":2225:2231   */\n      dup4\n        /* \"#utility.yul\":2222:2223   */\n      dup2\n        /* \"#utility.yul\":2219:2232   */\n      lt\n        /* \"#utility.yul\":2211:2324   */\n      iszero\n      tag_248\n      jumpi\n        /* \"#utility.yul\":2310:2311   */\n      dup1\n        /* \"#utility.yul\":2305:2308   */\n      dup3\n        /* \"#utility.yul\":2301:2312   */\n      add\n        /* \"#utility.yul\":2295:2313   */\n      mload\n        /* \"#utility.yul\":2291:2292   */\n      dup2\n        /* \"#utility.yul\":2286:2289   */\n      dup5\n        /* \"#utility.yul\":2282:2293   */\n      add\n        /* \"#utility.yul\":2275:2314   */\n      mstore\n        /* \"#utility.yul\":2247:2249   */\n      0x20\n        /* \"#utility.yul\":2244:2245   */\n      dup2\n        /* \"#utility.yul\":2240:2250   */\n      add\n        /* \"#utility.yul\":2235:2250   */\n      swap1\n      pop\n        /* \"#utility.yul\":2211:2324   */\n      jump(tag_246)\n    tag_248:\n        /* \"#utility.yul\":2358:2359   */\n      0x00\n        /* \"#utility.yul\":2349:2355   */\n      dup5\n        /* \"#utility.yul\":2344:2347   */\n      dup5\n        /* \"#utility.yul\":2340:2356   */\n      add\n        /* \"#utility.yul\":2333:2360   */\n      mstore\n        /* \"#utility.yul\":2182:2366   */\n      pop\n        /* \"#utility.yul\":2120:2366   */\n      pop\n      pop\n      pop\n      jump\t// out\n        /* \"#utility.yul\":2372:2474   */\n    tag_180:\n        /* \"#utility.yul\":2413:2419   */\n      0x00\n        /* \"#utility.yul\":2464:2466   */\n      0x1f\n        /* \"#utility.yul\":2460:2467   */\n      not\n        /* \"#utility.yul\":2455:2457   */\n      0x1f\n        /* \"#utility.yul\":2448:2453   */\n      dup4\n        /* \"#utility.yul\":2444:2458   */\n      add\n        /* \"#utility.yul\":2440:2468   */\n      and\n        /* \"#utility.yul\":2430:2468   */\n      swap1\n      pop\n        /* \"#utility.yul\":2372:2474   */\n      swap2\n      swap1\n      pop\n      jump\t// out\n        /* \"#utility.yul\":2480:2857   */\n    tag_181:\n        /* \"#utility.yul\":2568:2571   */\n      0x00\n        /* \"#utility.yul\":2596:2635   */\n      tag_251\n        /* \"#utility.yul\":2629:2634   */\n      dup3\n        /* \"#utility.yul\":2596:2635   */\n      tag_177\n      jump\t// in\n    tag_251:\n        /* \"#utility.yul\":2651:2722   */\n      tag_252\n        /* \"#utility.yul\":2715:2721   */\n      dup2\n        /* \"#utility.yul\":2710:2713   */\n      dup6\n        /* \"#utility.yul\":2651:2722   */\n      tag_178\n      jump\t// in\n    tag_252:\n        /* \"#utility.yul\":2644:2722   */\n      swap4\n      pop\n        /* \"#utility.yul\":2731:2796   */\n      tag_253\n        /* \"#utility.yul\":2789:2795   */\n      dup2\n        /* \"#utility.yul\":2784:2787   */\n      dup6\n        /* \"#utility.yul\":2777:2781   */\n      0x20\n        /* \"#utility.yul\":2770:2775   */\n      dup7\n        /* \"#utility.yul\":2766:2782   */\n      add\n        /* \"#utility.yul\":2731:2796   */\n      tag_179\n      jump\t// in\n    tag_253:\n        /* \"#utility.yul\":2821:2850   */\n      tag_254\n        /* \"#utility.yul\":2843:2849   */\n      dup2\n        /* \"#utility.yul\":2821:2850   */\n      tag_180\n      jump\t// in\n    tag_254:\n        /* \"#utility.yul\":2816:2819   */\n      dup5\n        /* \"#utility.yul\":2812:2851   */\n      add\n        /* \"#utility.yul\":2805:2851   */\n      swap2\n      pop\n        /* \"#utility.yul\":2572:2857   */\n      pop\n        /* \"#utility.yul\":2480:2857   */\n      swap3\n      swap2\n      pop\n      pop\n      jump\t// out\n        /* \"#utility.yul\":2863:2981   */\n    tag_182:\n        /* \"#utility.yul\":2950:2974   */\n      tag_256\n        /* \"#utility.yul\":2968:2973   */\n      dup2\n        /* \"#utility.yul\":2950:2974   */\n      tag_173\n      jump\t// in\n    tag_256:\n        /* \"#utility.yul\":2945:2948   */\n      dup3\n        /* \"#utility.yul\":2938:2975   */\n      mstore\n        /* \"#utility.yul\":2863:2981   */\n      pop\n      pop\n      jump\t// out\n        /* \"#utility.yul\":2987:3722   */\n    tag_21:\n        /* \"#utility.yul\":3204:3208   */\n      0x00\n        /* \"#utility.yul\":3242:3245   */\n      0x80\n        /* \"#utility.yul\":3231:3240   */\n      dup3\n        /* \"#utility.yul\":3227:3246   */\n      add\n        /* \"#utility.yul\":3219:3246   */\n      swap1\n      pop\n        /* \"#utility.yul\":3256:3327   */\n      tag_258\n        /* \"#utility.yul\":3324:3325   */\n      0x00\n        /* \"#utility.yul\":3313:3322   */\n      dup4\n        /* \"#utility.yul\":3309:3326   */\n      add\n        /* \"#utility.yul\":3300:3306   */\n      dup8\n        /* \"#utility.yul\":3256:3327   */\n      tag_176\n      jump\t// in\n    tag_258:\n        /* \"#utility.yul\":3374:3383   */\n      dup2\n        /* \"#utility.yul\":3368:3372   */\n      dup2\n        /* \"#utility.yul\":3364:3384   */\n      sub\n        /* \"#utility.yul\":3359:3361   */\n      0x20\n        /* \"#utility.yul\":3348:3357   */\n      dup4\n        /* \"#utility.yul\":3344:3362   */\n      add\n        /* \"#utility.yul\":3337:3385   */\n      mstore\n        /* \"#utility.yul\":3402:3480   */\n      tag_259\n        /* \"#utility.yul\":3475:3479   */\n      dup2\n        /* \"#utility.yul\":3466:3472   */\n      dup7\n        /* \"#utility.yul\":3402:3480   */\n      tag_181\n      jump\t// in\n    tag_259:\n        /* \"#utility.yul\":3394:3480   */\n      swap1\n      pop\n        /* \"#utility.yul\":3490:3562   */\n      tag_260\n        /* \"#utility.yul\":3558:3560   */\n      0x40\n        /* \"#utility.yul\":3547:3556   */\n      dup4\n        /* \"#utility.yul\":3543:3561   */\n      add\n        /* \"#utility.yul\":3534:3540   */\n      dup6\n        /* \"#utility.yul\":3490:3562   */\n      tag_182\n      jump\t// in\n    tag_260:\n        /* \"#utility.yul\":3609:3618   */\n      dup2\n        /* \"#utility.yul\":3603:3607   */\n      dup2\n        /* \"#utility.yul\":3599:3619   */\n      sub\n        /* \"#utility.yul\":3594:3596   */\n      0x60\n        /* \"#utility.yul\":3583:3592   */\n      dup4\n        /* \"#utility.yul\":3579:3597   */\n      add\n        /* \"#utility.yul\":3572:3620   */\n      mstore\n        /* \"#utility.yul\":3637:3715   */\n      tag_261\n        /* \"#utility.yul\":3710:3714   */\n      dup2\n        /* \"#utility.yul\":3701:3707   */\n      dup5\n        /* \"#utility.yul\":3637:3715   */\n      tag_181\n      jump\t// in\n    tag_261:\n        /* \"#utility.yul\":3629:3715   */\n      swap1\n      pop\n        /* \"#utility.yul\":2987:3722   */\n      swap6\n      swap5\n      pop\n      pop\n      pop\n      pop\n      pop\n      jump\t// out\n        /* \"#utility.yul\":3728:3845   */\n    tag_183:\n        /* \"#utility.yul\":3837:3838   */\n      0x00\n        /* \"#utility.yul\":3834:3835   */\n      dup1\n        /* \"#utility.yul\":3827:3839   */\n      revert\n        /* \"#utility.yul\":3851:3968   */\n    tag_184:\n        /* \"#utility.yul\":3960:3961   */\n      0x00\n        /* \"#utility.yul\":3957:3958   */\n      dup1\n        /* \"#utility.yul\":3950:3962   */\n      revert\n        /* \"#utility.yul\":3974:4091   */\n    tag_185:\n        /* \"#utility.yul\":4083:4084   */\n      0x00\n        /* \"#utility.yul\":4080:4081   */\n      dup1\n        /* \"#utility.yul\":4073:4085   */\n      revert\n        /* \"#utility.yul\":4111:4664   */\n    tag_186:\n        /* \"#utility.yul\":4169:4177   */\n      0x00\n        /* \"#utility.yul\":4179:4185   */\n      dup1\n        /* \"#utility.yul\":4229:4232   */\n      dup4\n        /* \"#utility.yul\":4222:4226   */\n      0x1f\n        /* \"#utility.yul\":4214:4220   */\n      dup5\n        /* \"#utility.yul\":4210:4227   */\n      add\n        /* \"#utility.yul\":4206:4233   */\n      slt\n        /* \"#utility.yul\":4196:4318   */\n      tag_266\n      jumpi\n        /* \"#utility.yul\":4237:4316   */\n      tag_267\n      tag_183\n      jump\t// in\n    tag_267:\n        /* \"#utility.yul\":4196:4318   */\n    tag_266:\n        /* \"#utility.yul\":4350:4356   */\n      dup3\n        /* \"#utility.yul\":4337:4357   */\n      calldataload\n        /* \"#utility.yul\":4327:4357   */\n      swap1\n      pop\n        /* \"#utility.yul\":4380:4398   */\n      0xffffffffffffffff\n        /* \"#utility.yul\":4372:4378   */\n      dup2\n        /* \"#utility.yul\":4369:4399   */\n      gt\n        /* \"#utility.yul\":4366:4483   */\n      iszero\n      tag_268\n      jumpi\n        /* \"#utility.yul\":4402:4481   */\n      tag_269\n      tag_184\n      jump\t// in\n    tag_269:\n        /* \"#utility.yul\":4366:4483   */\n    tag_268:\n        /* \"#utility.yul\":4516:4520   */\n      0x20\n        /* \"#utility.yul\":4508:4514   */\n      dup4\n        /* \"#utility.yul\":4504:4521   */\n      add\n        /* \"#utility.yul\":4492:4521   */\n      swap2\n      pop\n        /* \"#utility.yul\":4570:4573   */\n      dup4\n        /* \"#utility.yul\":4562:4566   */\n      0x01\n        /* \"#utility.yul\":4554:4560   */\n      dup3\n        /* \"#utility.yul\":4550:4567   */\n      mul\n        /* \"#utility.yul\":4540:4548   */\n      dup4\n        /* \"#utility.yul\":4536:4568   */\n      add\n        /* \"#utility.yul\":4533:4574   */\n      gt\n        /* \"#utility.yul\":4530:4658   */\n      iszero\n      tag_270\n      jumpi\n        /* \"#utility.yul\":4577:4656   */\n      tag_271\n      tag_185\n      jump\t// in\n    tag_271:\n        /* \"#utility.yul\":4530:4658   */\n    tag_270:\n        /* \"#utility.yul\":4111:4664   */\n      swap3\n      pop\n      swap3\n      swap1\n      pop\n      jump\t// out\n        /* \"#utility.yul\":4670:5689   */\n    tag_24:\n        /* \"#utility.yul\":4771:4777   */\n      0x00\n        /* \"#utility.yul\":4779:4785   */\n      dup1\n        /* \"#utility.yul\":4787:4793   */\n      0x00\n        /* \"#utility.yul\":4795:4801   */\n      dup1\n        /* \"#utility.yul\":4803:4809   */\n      0x00\n        /* \"#utility.yul\":4852:4854   */\n      0x60\n        /* \"#utility.yul\":4840:4849   */\n      dup7\n        /* \"#utility.yul\":4831:4838   */\n      dup9\n        /* \"#utility.yul\":4827:4850   */\n      sub\n        /* \"#utility.yul\":4823:4855   */\n      slt\n        /* \"#utility.yul\":4820:4939   */\n      iszero\n      tag_273\n      jumpi\n        /* \"#utility.yul\":4858:4937   */\n      tag_274\n      tag_168\n      jump\t// in\n    tag_274:\n        /* \"#utility.yul\":4820:4939   */\n    tag_273:\n        /* \"#utility.yul\":5006:5007   */\n      0x00\n        /* \"#utility.yul\":4995:5004   */\n      dup7\n        /* \"#utility.yul\":4991:5008   */\n      add\n        /* \"#utility.yul\":4978:5009   */\n      calldataload\n        /* \"#utility.yul\":5036:5054   */\n      0xffffffffffffffff\n        /* \"#utility.yul\":5028:5034   */\n      dup2\n        /* \"#utility.yul\":5025:5055   */\n      gt\n        /* \"#utility.yul\":5022:5139   */\n      iszero\n      tag_275\n      jumpi\n        /* \"#utility.yul\":5058:5137   */\n      tag_276\n      tag_169\n      jump\t// in\n    tag_276:\n        /* \"#utility.yul\":5022:5139   */\n    tag_275:\n        /* \"#utility.yul\":5171:5236   */\n      tag_277\n        /* \"#utility.yul\":5228:5235   */\n      dup9\n        /* \"#utility.yul\":5219:5225   */\n      dup3\n        /* \"#utility.yul\":5208:5217   */\n      dup10\n        /* \"#utility.yul\":5204:5226   */\n      add\n        /* \"#utility.yul\":5171:5236   */\n      tag_186\n      jump\t// in\n    tag_277:\n        /* \"#utility.yul\":5153:5236   */\n      swap6\n      pop\n      swap6\n      pop\n        /* \"#utility.yul\":4949:5246   */\n      pop\n        /* \"#utility.yul\":5285:5287   */\n      0x20\n        /* \"#utility.yul\":5311:5364   */\n      tag_278\n        /* \"#utility.yul\":5356:5363   */\n      dup9\n        /* \"#utility.yul\":5347:5353   */\n      dup3\n        /* \"#utility.yul\":5336:5345   */\n      dup10\n        /* \"#utility.yul\":5332:5354   */\n      add\n        /* \"#utility.yul\":5311:5364   */\n      tag_175\n      jump\t// in\n    tag_278:\n        /* \"#utility.yul\":5301:5364   */\n      swap4\n      pop\n        /* \"#utility.yul\":5256:5374   */\n      pop\n        /* \"#utility.yul\":5441:5443   */\n      0x40\n        /* \"#utility.yul\":5430:5439   */\n      dup7\n        /* \"#utility.yul\":5426:5444   */\n      add\n        /* \"#utility.yul\":5413:5445   */\n      calldataload\n        /* \"#utility.yul\":5472:5490   */\n      0xffffffffffffffff\n        /* \"#utility.yul\":5464:5470   */\n      dup2\n        /* \"#utility.yul\":5461:5491   */\n      gt\n        /* \"#utility.yul\":5458:5575   */\n      iszero\n      tag_279\n      jumpi\n        /* \"#utility.yul\":5494:5573   */\n      tag_280\n      tag_169\n      jump\t// in\n    tag_280:\n        /* \"#utility.yul\":5458:5575   */\n    tag_279:\n        /* \"#utility.yul\":5607:5672   */\n      tag_281\n        /* \"#utility.yul\":5664:5671   */\n      dup9\n        /* \"#utility.yul\":5655:5661   */\n      dup3\n        /* \"#utility.yul\":5644:5653   */\n      dup10\n        /* \"#utility.yul\":5640:5662   */\n      add\n        /* \"#utility.yul\":5607:5672   */\n      tag_186\n      jump\t// in\n    tag_281:\n        /* \"#utility.yul\":5589:5672   */\n      swap3\n      pop\n      swap3\n      pop\n        /* \"#utility.yul\":5384:5682   */\n      pop\n        /* \"#utility.yul\":4670:5689   */\n      swap3\n      swap6\n      pop\n      swap3\n      swap6\n      swap1\n      swap4\n      pop\n      jump\t// out\n        /* \"#utility.yul\":5695:6860   */\n    tag_32:\n        /* \"#utility.yul\":5805:5811   */\n      0x00\n        /* \"#utility.yul\":5813:5819   */\n      dup1\n        /* \"#utility.yul\":5821:5827   */\n      0x00\n        /* \"#utility.yul\":5829:5835   */\n      dup1\n        /* \"#utility.yul\":5837:5843   */\n      0x00\n        /* \"#utility.yul\":5845:5851   */\n      dup1\n        /* \"#utility.yul\":5894:5897   */\n      0x80\n        /* \"#utility.yul\":5882:5891   */\n      dup8\n        /* \"#utility.yul\":5873:5880   */\n      dup10\n        /* \"#utility.yul\":5869:5892   */\n      sub\n        /* \"#utility.yul\":5865:5898   */\n      slt\n        /* \"#utility.yul\":5862:5982   */\n      iszero\n      tag_283\n      jumpi\n        /* \"#utility.yul\":5901:5980   */\n      tag_284\n      tag_168\n      jump\t// in\n    tag_284:\n        /* \"#utility.yul\":5862:5982   */\n    tag_283:\n        /* \"#utility.yul\":6021:6022   */\n      0x00\n        /* \"#utility.yul\":6046:6099   */\n      tag_285\n        /* \"#utility.yul\":6091:6098   */\n      dup10\n        /* \"#utility.yul\":6082:6088   */\n      dup3\n        /* \"#utility.yul\":6071:6080   */\n      dup11\n        /* \"#utility.yul\":6067:6089   */\n      add\n        /* \"#utility.yul\":6046:6099   */\n      tag_172\n      jump\t// in\n    tag_285:\n        /* \"#utility.yul\":6036:6099   */\n      swap7\n      pop\n        /* \"#utility.yul\":5992:6109   */\n      pop\n        /* \"#utility.yul\":6176:6178   */\n      0x20\n        /* \"#utility.yul\":6165:6174   */\n      dup8\n        /* \"#utility.yul\":6161:6179   */\n      add\n        /* \"#utility.yul\":6148:6180   */\n      calldataload\n        /* \"#utility.yul\":6207:6225   */\n      0xffffffffffffffff\n        /* \"#utility.yul\":6199:6205   */\n      dup2\n        /* \"#utility.yul\":6196:6226   */\n      gt\n        /* \"#utility.yul\":6193:6310   */\n      iszero\n      tag_286\n      jumpi\n        /* \"#utility.yul\":6229:6308   */\n      tag_287\n      tag_169\n      jump\t// in\n    tag_287:\n        /* \"#utility.yul\":6193:6310   */\n    tag_286:\n        /* \"#utility.yul\":6342:6407   */\n      tag_288\n        /* \"#utility.yul\":6399:6406   */\n      dup10\n        /* \"#utility.yul\":6390:6396   */\n      dup3\n        /* \"#utility.yul\":6379:6388   */\n      dup11\n        /* \"#utility.yul\":6375:6397   */\n      add\n        /* \"#utility.yul\":6342:6407   */\n      tag_186\n      jump\t// in\n    tag_288:\n        /* \"#utility.yul\":6324:6407   */\n      swap6\n      pop\n      swap6\n      pop\n        /* \"#utility.yul\":6119:6417   */\n      pop\n        /* \"#utility.yul\":6456:6458   */\n      0x40\n        /* \"#utility.yul\":6482:6535   */\n      tag_289\n        /* \"#utility.yul\":6527:6534   */\n      dup10\n        /* \"#utility.yul\":6518:6524   */\n      dup3\n        /* \"#utility.yul\":6507:6516   */\n      dup11\n        /* \"#utility.yul\":6503:6525   */\n      add\n        /* \"#utility.yul\":6482:6535   */\n      tag_175\n      jump\t// in\n    tag_289:\n        /* \"#utility.yul\":6472:6535   */\n      swap4\n      pop\n        /* \"#utility.yul\":6427:6545   */\n      pop\n        /* \"#utility.yul\":6612:6614   */\n      0x60\n        /* \"#utility.yul\":6601:6610   */\n      dup8\n        /* \"#utility.yul\":6597:6615   */\n      add\n        /* \"#utility.yul\":6584:6616   */\n      calldataload\n        /* \"#utility.yul\":6643:6661   */\n      0xffffffffffffffff\n        /* \"#utility.yul\":6635:6641   */\n      dup2\n        /* \"#utility.yul\":6632:6662   */\n      gt\n        /* \"#utility.yul\":6629:6746   */\n      iszero\n      tag_290\n      jumpi\n        /* \"#utility.yul\":6665:6744   */\n      tag_291\n      tag_169\n      jump\t// in\n    tag_291:\n        /* \"#utility.yul\":6629:6746   */\n    tag_290:\n        /* \"#utility.yul\":6778:6843   */\n      tag_292\n        /* \"#utility.yul\":6835:6842   */\n      dup10\n        /* \"#utility.yul\":6826:6832   */\n      dup3\n        /* \"#utility.yul\":6815:6824   */\n      dup11\n        /* \"#utility.yul\":6811:6833   */\n      add\n        /* \"#utility.yul\":6778:6843   */\n      tag_186\n      jump\t// in\n    tag_292:\n        /* \"#utility.yul\":6760:6843   */\n      swap3\n      pop\n      swap3\n      pop\n        /* \"#utility.yul\":6555:6853   */\n      pop\n        /* \"#utility.yul\":5695:6860   */\n      swap3\n      swap6\n      pop\n      swap3\n      swap6\n      pop\n      swap3\n      swap6\n      jump\t// out\n        /* \"#utility.yul\":6866:7395   */\n    tag_36:\n        /* \"#utility.yul\":6937:6943   */\n      0x00\n        /* \"#utility.yul\":6945:6951   */\n      dup1\n        /* \"#utility.yul\":6994:6996   */\n      0x20\n        /* \"#utility.yul\":6982:6991   */\n      dup4\n        /* \"#utility.yul\":6973:6980   */\n      dup6\n        /* \"#utility.yul\":6969:6992   */\n      sub\n        /* \"#utility.yul\":6965:6997   */\n      slt\n        /* \"#utility.yul\":6962:7081   */\n      iszero\n      tag_294\n      jumpi\n        /* \"#utility.yul\":7000:7079   */\n      tag_295\n      tag_168\n      jump\t// in\n    tag_295:\n        /* \"#utility.yul\":6962:7081   */\n    tag_294:\n        /* \"#utility.yul\":7148:7149   */\n      0x00\n        /* \"#utility.yul\":7137:7146   */\n      dup4\n        /* \"#utility.yul\":7133:7150   */\n      add\n        /* \"#utility.yul\":7120:7151   */\n      calldataload\n        /* \"#utility.yul\":7178:7196   */\n      0xffffffffffffffff\n        /* \"#utility.yul\":7170:7176   */\n      dup2\n        /* \"#utility.yul\":7167:7197   */\n      gt\n        /* \"#utility.yul\":7164:7281   */\n      iszero\n      tag_296\n      jumpi\n        /* \"#utility.yul\":7200:7279   */\n      tag_297\n      tag_169\n      jump\t// in\n    tag_297:\n        /* \"#utility.yul\":7164:7281   */\n    tag_296:\n        /* \"#utility.yul\":7313:7378   */\n      tag_298\n        /* \"#utility.yul\":7370:7377   */\n      dup6\n        /* \"#utility.yul\":7361:7367   */\n      dup3\n        /* \"#utility.yul\":7350:7359   */\n      dup7\n        /* \"#utility.yul\":7346:7368   */\n      add\n        /* \"#utility.yul\":7313:7378   */\n      tag_186\n      jump\t// in\n    tag_298:\n        /* \"#utility.yul\":7295:7378   */\n      swap3\n      pop\n      swap3\n      pop\n        /* \"#utility.yul\":7091:7388   */\n      pop\n        /* \"#utility.yul\":6866:7395   */\n      swap3\n      pop\n      swap3\n      swap1\n      pop\n      jump\t// out\n        /* \"#utility.yul\":7401:7623   */\n    tag_39:\n        /* \"#utility.yul\":7494:7498   */\n      0x00\n        /* \"#utility.yul\":7532:7534   */\n      0x20\n        /* \"#utility.yul\":7521:7530   */\n      dup3\n        /* \"#utility.yul\":7517:7535   */\n      add\n        /* \"#utility.yul\":7509:7535   */\n      swap1\n      pop\n        /* \"#utility.yul\":7545:7616   */\n      tag_300\n        /* \"#utility.yul\":7613:7614   */\n      0x00\n        /* \"#utility.yul\":7602:7611   */\n      dup4\n        /* \"#utility.yul\":7598:7615   */\n      add\n        /* \"#utility.yul\":7589:7595   */\n      dup5\n        /* \"#utility.yul\":7545:7616   */\n      tag_176\n      jump\t// in\n    tag_300:\n        /* \"#utility.yul\":7401:7623   */\n      swap3\n      swap2\n      pop\n      pop\n      jump\t// out\n        /* \"#utility.yul\":7629:7719   */\n    tag_187:\n        /* \"#utility.yul\":7663:7670   */\n      0x00\n        /* \"#utility.yul\":7706:7711   */\n      dup2\n        /* \"#utility.yul\":7699:7712   */\n      iszero\n        /* \"#utility.yul\":7692:7713   */\n      iszero\n        /* \"#utility.yul\":7681:7713   */\n      swap1\n      pop\n        /* \"#utility.yul\":7629:7719   */\n      swap2\n      swap1\n      pop\n      jump\t// out\n        /* \"#utility.yul\":7725:7834   */\n    tag_188:\n        /* \"#utility.yul\":7806:7827   */\n      tag_303\n        /* \"#utility.yul\":7821:7826   */\n      dup2\n        /* \"#utility.yul\":7806:7827   */\n      tag_187\n      jump\t// in\n    tag_303:\n        /* \"#utility.yul\":7801:7804   */\n      dup3\n        /* \"#utility.yul\":7794:7828   */\n      mstore\n        /* \"#utility.yul\":7725:7834   */\n      pop\n      pop\n      jump\t// out\n        /* \"#utility.yul\":7840:8050   */\n    tag_44:\n        /* \"#utility.yul\":7927:7931   */\n      0x00\n        /* \"#utility.yul\":7965:7967   */\n      0x20\n        /* \"#utility.yul\":7954:7963   */\n      dup3\n        /* \"#utility.yul\":7950:7968   */\n      add\n        /* \"#utility.yul\":7942:7968   */\n      swap1\n      pop\n        /* \"#utility.yul\":7978:8043   */\n      tag_305\n        /* \"#utility.yul\":8040:8041   */\n      0x00\n        /* \"#utility.yul\":8029:8038   */\n      dup4\n        /* \"#utility.yul\":8025:8042   */\n      add\n        /* \"#utility.yul\":8016:8022   */\n      dup5\n        /* \"#utility.yul\":7978:8043   */\n      tag_188\n      jump\t// in\n    tag_305:\n        /* \"#utility.yul\":7840:8050   */\n      swap3\n      swap2\n      pop\n      pop\n      jump\t// out\n        /* \"#utility.yul\":8056:8182   */\n    tag_189:\n        /* \"#utility.yul\":8093:8100   */\n      0x00\n        /* \"#utility.yul\":8133:8175   */\n      0xffffffffffffffffffffffffffffffffffffffff\n        /* \"#utility.yul\":8126:8131   */\n      dup3\n        /* \"#utility.yul\":8122:8176   */\n      and\n        /* \"#utility.yul\":8111:8176   */\n      swap1\n      pop\n        /* \"#utility.yul\":8056:8182   */\n      swap2\n      swap1\n      pop\n      jump\t// out\n        /* \"#utility.yul\":8188:8284   */\n    tag_190:\n        /* \"#utility.yul\":8225:8232   */\n      0x00\n        /* \"#utility.yul\":8254:8278   */\n      tag_308\n        /* \"#utility.yul\":8272:8277   */\n      dup3\n        /* \"#utility.yul\":8254:8278   */\n      tag_189\n      jump\t// in\n    tag_308:\n        /* \"#utility.yul\":8243:8278   */\n      swap1\n      pop\n        /* \"#utility.yul\":8188:8284   */\n      swap2\n      swap1\n      pop\n      jump\t// out\n        /* \"#utility.yul\":8290:8408   */\n    tag_191:\n        /* \"#utility.yul\":8377:8401   */\n      tag_310\n        /* \"#utility.yul\":8395:8400   */\n      dup2\n        /* \"#utility.yul\":8377:8401   */\n      tag_190\n      jump\t// in\n    tag_310:\n        /* \"#utility.yul\":8372:8375   */\n      dup3\n        /* \"#utility.yul\":8365:8402   */\n      mstore\n        /* \"#utility.yul\":8290:8408   */\n      pop\n      pop\n      jump\t// out\n        /* \"#utility.yul\":8414:8636   */\n    tag_48:\n        /* \"#utility.yul\":8507:8511   */\n      0x00\n        /* \"#utility.yul\":8545:8547   */\n      0x20\n        /* \"#utility.yul\":8534:8543   */\n      dup3\n        /* \"#utility.yul\":8530:8548   */\n      add\n        /* \"#utility.yul\":8522:8548   */\n      swap1\n      pop\n        /* \"#utility.yul\":8558:8629   */\n      tag_312\n        /* \"#utility.yul\":8626:8627   */\n      0x00\n        /* \"#utility.yul\":8615:8624   */\n      dup4\n        /* \"#utility.yul\":8611:8628   */\n      add\n        /* \"#utility.yul\":8602:8608   */\n      dup5\n        /* \"#utility.yul\":8558:8629   */\n      tag_191\n      jump\t// in\n    tag_312:\n        /* \"#utility.yul\":8414:8636   */\n      swap3\n      swap2\n      pop\n      pop\n      jump\t// out\n        /* \"#utility.yul\":8642:8802   */\n    tag_192:\n        /* \"#utility.yul\":8782:8794   */\n      0x556e6175746f72697a6500000000000000000000000000000000000000000000\n        /* \"#utility.yul\":8778:8779   */\n      0x00\n        /* \"#utility.yul\":8770:8776   */\n      dup3\n        /* \"#utility.yul\":8766:8780   */\n      add\n        /* \"#utility.yul\":8759:8795   */\n      mstore\n        /* \"#utility.yul\":8642:8802   */\n      pop\n      jump\t// out\n        /* \"#utility.yul\":8808:9174   */\n    tag_193:\n        /* \"#utility.yul\":8950:8953   */\n      0x00\n        /* \"#utility.yul\":8971:9038   */\n      tag_315\n        /* \"#utility.yul\":9035:9037   */\n      0x0a\n        /* \"#utility.yul\":9030:9033   */\n      dup4\n        /* \"#utility.yul\":8971:9038   */\n      tag_178\n      jump\t// in\n    tag_315:\n        /* \"#utility.yul\":8964:9038   */\n      swap2\n      pop\n        /* \"#utility.yul\":9047:9140   */\n      tag_316\n        /* \"#utility.yul\":9136:9139   */\n      dup3\n        /* \"#utility.yul\":9047:9140   */\n      tag_192\n      jump\t// in\n    tag_316:\n        /* \"#utility.yul\":9165:9167   */\n      0x20\n        /* \"#utility.yul\":9160:9163   */\n      dup3\n        /* \"#utility.yul\":9156:9168   */\n      add\n        /* \"#utility.yul\":9149:9168   */\n      swap1\n      pop\n        /* \"#utility.yul\":8808:9174   */\n      swap2\n      swap1\n      pop\n      jump\t// out\n        /* \"#utility.yul\":9180:9599   */\n    tag_52:\n        /* \"#utility.yul\":9346:9350   */\n      0x00\n        /* \"#utility.yul\":9384:9386   */\n      0x20\n        /* \"#utility.yul\":9373:9382   */\n      dup3\n        /* \"#utility.yul\":9369:9387   */\n      add\n        /* \"#utility.yul\":9361:9387   */\n      swap1\n      pop\n        /* \"#utility.yul\":9433:9442   */\n      dup2\n        /* \"#utility.yul\":9427:9431   */\n      dup2\n        /* \"#utility.yul\":9423:9443   */\n      sub\n        /* \"#utility.yul\":9419:9420   */\n      0x00\n        /* \"#utility.yul\":9408:9417   */\n      dup4\n        /* \"#utility.yul\":9404:9421   */\n      add\n        /* \"#utility.yul\":9397:9444   */\n      mstore\n        /* \"#utility.yul\":9461:9592   */\n      tag_318\n        /* \"#utility.yul\":9587:9591   */\n      dup2\n        /* \"#utility.yul\":9461:9592   */\n      tag_193\n      jump\t// in\n    tag_318:\n        /* \"#utility.yul\":9453:9592   */\n      swap1\n      pop\n        /* \"#utility.yul\":9180:9599   */\n      swap2\n      swap1\n      pop\n      jump\t// out\n        /* \"#utility.yul\":9605:9764   */\n    tag_194:\n        /* \"#utility.yul\":9745:9756   */\n      0x4e6f7420466f756e640000000000000000000000000000000000000000000000\n        /* \"#utility.yul\":9741:9742   */\n      0x00\n        /* \"#utility.yul\":9733:9739   */\n      dup3\n        /* \"#utility.yul\":9729:9743   */\n      add\n        /* \"#utility.yul\":9722:9757   */\n      mstore\n        /* \"#utility.yul\":9605:9764   */\n      pop\n      jump\t// out\n        /* \"#utility.yul\":9770:10135   */\n    tag_195:\n        /* \"#utility.yul\":9912:9915   */\n      0x00\n        /* \"#utility.yul\":9933:9999   */\n      tag_321\n        /* \"#utility.yul\":9997:9998   */\n      0x09\n        /* \"#utility.yul\":9992:9995   */\n      dup4\n        /* \"#utility.yul\":9933:9999   */\n      tag_178\n      jump\t// in\n    tag_321:\n        /* \"#utility.yul\":9926:9999   */\n      swap2\n      pop\n        /* \"#utility.yul\":10008:10101   */\n      tag_322\n        /* \"#utility.yul\":10097:10100   */\n      dup3\n        /* \"#utility.yul\":10008:10101   */\n      tag_194\n      jump\t// in\n    tag_322:\n        /* \"#utility.yul\":10126:10128   */\n      0x20\n        /* \"#utility.yul\":10121:10124   */\n      dup3\n        /* \"#utility.yul\":10117:10129   */\n      add\n        /* \"#utility.yul\":10110:10129   */\n      swap1\n      pop\n        /* \"#utility.yul\":9770:10135   */\n      swap2\n      swap1\n      pop\n      jump\t// out\n        /* \"#utility.yul\":10141:10560   */\n    tag_57:\n        /* \"#utility.yul\":10307:10311   */\n      0x00\n        /* \"#utility.yul\":10345:10347   */\n      0x20\n        /* \"#utility.yul\":10334:10343   */\n      dup3\n        /* \"#utility.yul\":10330:10348   */\n      add\n        /* \"#utility.yul\":10322:10348   */\n      swap1\n      pop\n        /* \"#utility.yul\":10394:10403   */\n      dup2\n        /* \"#utility.yul\":10388:10392   */\n      dup2\n        /* \"#utility.yul\":10384:10404   */\n      sub\n        /* \"#utility.yul\":10380:10381   */\n      0x00\n        /* \"#utility.yul\":10369:10378   */\n      dup4\n        /* \"#utility.yul\":10365:10382   */\n      add\n        /* \"#utility.yul\":10358:10405   */\n      mstore\n        /* \"#utility.yul\":10422:10553   */\n      tag_324\n        /* \"#utility.yul\":10548:10552   */\n      dup2\n        /* \"#utility.yul\":10422:10553   */\n      tag_195\n      jump\t// in\n    tag_324:\n        /* \"#utility.yul\":10414:10553   */\n      swap1\n      pop\n        /* \"#utility.yul\":10141:10560   */\n      swap2\n      swap1\n      pop\n      jump\t// out\n        /* \"#utility.yul\":10566:10746   */\n    tag_196:\n        /* \"#utility.yul\":10614:10691   */\n      0x4e487b7100000000000000000000000000000000000000000000000000000000\n        /* \"#utility.yul\":10611:10612   */\n      0x00\n        /* \"#utility.yul\":10604:10692   */\n      mstore\n        /* \"#utility.yul\":10711:10715   */\n      0x11\n        /* \"#utility.yul\":10708:10709   */\n      0x04\n        /* \"#utility.yul\":10701:10716   */\n      mstore\n        /* \"#utility.yul\":10735:10739   */\n      0x24\n        /* \"#utility.yul\":10732:10733   */\n      0x00\n        /* \"#utility.yul\":10725:10740   */\n      revert\n        /* \"#utility.yul\":10752:10946   */\n    tag_59:\n        /* \"#utility.yul\":10792:10796   */\n      0x00\n        /* \"#utility.yul\":10812:10832   */\n      tag_327\n        /* \"#utility.yul\":10830:10831   */\n      dup3\n        /* \"#utility.yul\":10812:10832   */\n      tag_173\n      jump\t// in\n    tag_327:\n        /* \"#utility.yul\":10807:10832   */\n      swap2\n      pop\n        /* \"#utility.yul\":10846:10866   */\n      tag_328\n        /* \"#utility.yul\":10864:10865   */\n      dup4\n        /* \"#utility.yul\":10846:10866   */\n      tag_173\n      jump\t// in\n    tag_328:\n        /* \"#utility.yul\":10841:10866   */\n      swap3\n      pop\n        /* \"#utility.yul\":10890:10891   */\n      dup3\n        /* \"#utility.yul\":10887:10888   */\n      dup3\n        /* \"#utility.yul\":10883:10892   */\n      sub\n        /* \"#utility.yul\":10875:10892   */\n      swap1\n      pop\n        /* \"#utility.yul\":10914:10915   */\n      dup2\n        /* \"#utility.yul\":10908:10912   */\n      dup2\n        /* \"#utility.yul\":10905:10916   */\n      gt\n        /* \"#utility.yul\":10902:10939   */\n      iszero\n      tag_329\n      jumpi\n        /* \"#utility.yul\":10919:10937   */\n      tag_330\n      tag_196\n      jump\t// in\n    tag_330:\n        /* \"#utility.yul\":10902:10939   */\n    tag_329:\n        /* \"#utility.yul\":10752:10946   */\n      swap3\n      swap2\n      pop\n      pop\n      jump\t// out\n        /* \"#utility.yul\":10952:11132   */\n    tag_63:\n        /* \"#utility.yul\":11000:11077   */\n      0x4e487b7100000000000000000000000000000000000000000000000000000000\n        /* \"#utility.yul\":10997:10998   */\n      0x00\n        /* \"#utility.yul\":10990:11078   */\n      mstore\n        /* \"#utility.yul\":11097:11101   */\n      0x32\n        /* \"#utility.yul\":11094:11095   */\n      0x04\n        /* \"#utility.yul\":11087:11102   */\n      mstore\n        /* \"#utility.yul\":11121:11125   */\n      0x24\n        /* \"#utility.yul\":11118:11119   */\n      0x00\n        /* \"#utility.yul\":11111:11126   */\n      revert\n        /* \"#utility.yul\":11138:11318   */\n    tag_197:\n        /* \"#utility.yul\":11186:11263   */\n      0x4e487b7100000000000000000000000000000000000000000000000000000000\n        /* \"#utility.yul\":11183:11184   */\n      0x00\n        /* \"#utility.yul\":11176:11264   */\n      mstore\n        /* \"#utility.yul\":11283:11287   */\n      0x22\n        /* \"#utility.yul\":11280:11281   */\n      0x04\n        /* \"#utility.yul\":11273:11288   */\n      mstore\n        /* \"#utility.yul\":11307:11311   */\n      0x24\n        /* \"#utility.yul\":11304:11305   */\n      0x00\n        /* \"#utility.yul\":11297:11312   */\n      revert\n        /* \"#utility.yul\":11324:11644   */\n    tag_66:\n        /* \"#utility.yul\":11368:11374   */\n      0x00\n        /* \"#utility.yul\":11405:11406   */\n      0x02\n        /* \"#utility.yul\":11399:11403   */\n      dup3\n        /* \"#utility.yul\":11395:11407   */\n      div\n        /* \"#utility.yul\":11385:11407   */\n      swap1\n      pop\n        /* \"#utility.yul\":11452:11453   */\n      0x01\n        /* \"#utility.yul\":11446:11450   */\n      dup3\n        /* \"#utility.yul\":11442:11454   */\n      and\n        /* \"#utility.yul\":11473:11491   */\n      dup1\n        /* \"#utility.yul\":11463:11544   */\n      tag_334\n      jumpi\n        /* \"#utility.yul\":11529:11533   */\n      0x7f\n        /* \"#utility.yul\":11521:11527   */\n      dup3\n        /* \"#utility.yul\":11517:11534   */\n      and\n        /* \"#utility.yul\":11507:11534   */\n      swap2\n      pop\n        /* \"#utility.yul\":11463:11544   */\n    tag_334:\n        /* \"#utility.yul\":11591:11593   */\n      0x20\n        /* \"#utility.yul\":11583:11589   */\n      dup3\n        /* \"#utility.yul\":11580:11594   */\n      lt\n        /* \"#utility.yul\":11560:11578   */\n      dup2\n        /* \"#utility.yul\":11557:11595   */\n      sub\n        /* \"#utility.yul\":11554:11638   */\n      tag_335\n      jumpi\n        /* \"#utility.yul\":11610:11628   */\n      tag_336\n      tag_197\n      jump\t// in\n    tag_336:\n        /* \"#utility.yul\":11554:11638   */\n    tag_335:\n        /* \"#utility.yul\":11375:11644   */\n      pop\n        /* \"#utility.yul\":11324:11644   */\n      swap2\n      swap1\n      pop\n      jump\t// out\n        /* \"#utility.yul\":11650:11830   */\n    tag_198:\n        /* \"#utility.yul\":11698:11775   */\n      0x4e487b7100000000000000000000000000000000000000000000000000000000\n        /* \"#utility.yul\":11695:11696   */\n      0x00\n        /* \"#utility.yul\":11688:11776   */\n      mstore\n        /* \"#utility.yul\":11795:11799   */\n      0x41\n        /* \"#utility.yul\":11792:11793   */\n      0x04\n        /* \"#utility.yul\":11785:11800   */\n      mstore\n        /* \"#utility.yul\":11819:11823   */\n      0x24\n        /* \"#utility.yul\":11816:11817   */\n      0x00\n        /* \"#utility.yul\":11809:11824   */\n      revert\n        /* \"#utility.yul\":11836:11977   */\n    tag_199:\n        /* \"#utility.yul\":11885:11889   */\n      0x00\n        /* \"#utility.yul\":11908:11911   */\n      dup2\n        /* \"#utility.yul\":11900:11911   */\n      swap1\n      pop\n        /* \"#utility.yul\":11931:11934   */\n      dup2\n        /* \"#utility.yul\":11928:11929   */\n      0x00\n        /* \"#utility.yul\":11921:11935   */\n      mstore\n        /* \"#utility.yul\":11965:11969   */\n      0x20\n        /* \"#utility.yul\":11962:11963   */\n      0x00\n        /* \"#utility.yul\":11952:11970   */\n      keccak256\n        /* \"#utility.yul\":11944:11970   */\n      swap1\n      pop\n        /* \"#utility.yul\":11836:11977   */\n      swap2\n      swap1\n      pop\n      jump\t// out\n        /* \"#utility.yul\":11983:12076   */\n    tag_200:\n        /* \"#utility.yul\":12020:12026   */\n      0x00\n        /* \"#utility.yul\":12067:12069   */\n      0x20\n        /* \"#utility.yul\":12062:12064   */\n      0x1f\n        /* \"#utility.yul\":12055:12060   */\n      dup4\n        /* \"#utility.yul\":12051:12065   */\n      add\n        /* \"#utility.yul\":12047:12070   */\n      div\n        /* \"#utility.yul\":12037:12070   */\n      swap1\n      pop\n        /* \"#utility.yul\":11983:12076   */\n      swap2\n      swap1\n      pop\n      jump\t// out\n        /* \"#utility.yul\":12082:12189   */\n    tag_201:\n        /* \"#utility.yul\":12126:12134   */\n      0x00\n        /* \"#utility.yul\":12176:12181   */\n      dup3\n        /* \"#utility.yul\":12170:12174   */\n      dup3\n        /* \"#utility.yul\":12166:12182   */\n      shl\n        /* \"#utility.yul\":12145:12182   */\n      swap1\n      pop\n        /* \"#utility.yul\":12082:12189   */\n      swap3\n      swap2\n      pop\n      pop\n      jump\t// out\n        /* \"#utility.yul\":12195:12588   */\n    tag_202:\n        /* \"#utility.yul\":12264:12270   */\n      0x00\n        /* \"#utility.yul\":12314:12315   */\n      0x08\n        /* \"#utility.yul\":12302:12312   */\n      dup4\n        /* \"#utility.yul\":12298:12316   */\n      mul\n        /* \"#utility.yul\":12337:12434   */\n      tag_342\n        /* \"#utility.yul\":12367:12433   */\n      0xffffffffffffffffffffffffffffffffffffffffffffffffffffffffffffffff\n        /* \"#utility.yul\":12356:12365   */\n      dup3\n        /* \"#utility.yul\":12337:12434   */\n      tag_201\n      jump\t// in\n    tag_342:\n        /* \"#utility.yul\":12455:12494   */\n      tag_343\n        /* \"#utility.yul\":12485:12493   */\n      dup7\n        /* \"#utility.yul\":12474:12483   */\n      dup4\n        /* \"#utility.yul\":12455:12494   */\n      tag_201\n      jump\t// in\n    tag_343:\n        /* \"#utility.yul\":12443:12494   */\n      swap6\n      pop\n        /* \"#utility.yul\":12527:12531   */\n      dup1\n        /* \"#utility.yul\":12523:12532   */\n      not\n        /* \"#utility.yul\":12516:12521   */\n      dup5\n        /* \"#utility.yul\":12512:12533   */\n      and\n        /* \"#utility.yul\":12503:12533   */\n      swap4\n      pop\n        /* \"#utility.yul\":12576:12580   */\n      dup1\n        /* \"#utility.yul\":12566:12574   */\n      dup7\n        /* \"#utility.yul\":12562:12581   */\n      and\n        /* \"#utility.yul\":12555:12560   */\n      dup5\n        /* \"#utility.yul\":12552:12582   */\n      or\n        /* \"#utility.yul\":12542:12582   */\n      swap3\n      pop\n        /* \"#utility.yul\":12271:12588   */\n      pop\n      pop\n        /* \"#utility.yul\":12195:12588   */\n      swap4\n      swap3\n      pop\n      pop\n      pop\n      jump\t// out\n        /* \"#utility.yul\":12594:12654   */\n    tag_203:\n        /* \"#utility.yul\":12622:12625   */\n      0x00\n        /* \"#utility.yul\":12643:12648   */\n      dup2\n        /* \"#utility.yul\":12636:12648   */\n      swap1\n      pop\n        /* \"#utility.yul\":12594:12654   */\n      swap2\n      swap1\n      pop\n      jump\t// out\n        /* \"#utility.yul\":12660:12802   */\n    tag_204:\n        /* \"#utility.yul\":12710:12719   */\n      0x00\n        /* \"#utility.yul\":12743:12796   */\n      tag_346\n        /* \"#utility.yul\":12761:12795   */\n      tag_347\n        /* \"#utility.yul\":12770:12794   */\n      tag_348\n        /* \"#utility.yul\":12788:12793   */\n      dup5\n        /* \"#utility.yul\":12770:12794   */\n      tag_173\n      jump\t// in\n    tag_348:\n        /* \"#utility.yul\":12761:12795   */\n      tag_203\n      jump\t// in\n    tag_347:\n        /* \"#utility.yul\":12743:12796   */\n      tag_173\n      jump\t// in\n    tag_346:\n        /* \"#utility.yul\":12730:12796   */\n      swap1\n      pop\n        /* \"#utility.yul\":12660:12802   */\n      swap2\n      swap1\n      pop\n      jump\t// out\n        /* \"#utility.yul\":12808:12883   */\n    tag_205:\n        /* \"#utility.yul\":12851:12854   */\n      0x00\n        /* \"#utility.yul\":12872:12877   */\n      dup2\n        /* \"#utility.yul\":12865:12877   */\n      swap1\n      pop\n        /* \"#utility.yul\":12808:12883   */\n      swap2\n      swap1\n      pop\n      jump\t// out\n        /* \"#utility.yul\":12889:13158   */\n    tag_206:\n        /* \"#utility.yul\":12999:13038   */\n      tag_351\n        /* \"#utility.yul\":13030:13037   */\n      dup4\n        /* \"#utility.yul\":12999:13038   */\n      tag_204\n      jump\t// in\n    tag_351:\n        /* \"#utility.yul\":13060:13151   */\n      tag_352\n        /* \"#utility.yul\":13109:13150   */\n      tag_353\n        /* \"#utility.yul\":13133:13149   */\n      dup3\n        /* \"#utility.yul\":13109:13150   */\n      tag_205\n      jump\t// in\n    tag_353:\n        /* \"#utility.yul\":13101:13107   */\n      dup5\n        /* \"#utility.yul\":13094:13098   */\n      dup5\n        /* \"#utility.yul\":13088:13099   */\n      sload\n        /* \"#utility.yul\":13060:13151   */\n      tag_202\n      jump\t// in\n    tag_352:\n        /* \"#utility.yul\":13054:13058   */\n      dup3\n        /* \"#utility.yul\":13047:13152   */\n      sstore\n        /* \"#utility.yul\":12965:13158   */\n      pop\n        /* \"#utility.yul\":12889:13158   */\n      pop\n      pop\n      pop\n      jump\t// out\n        /* \"#utility.yul\":13164:13237   */\n    tag_207:\n        /* \"#utility.yul\":13209:13212   */\n      0x00\n        /* \"#utility.yul\":13164:13237   */\n      swap1\n      jump\t// out\n        /* \"#utility.yul\":13243:13432   */\n    tag_208:\n        /* \"#utility.yul\":13320:13352   */\n      tag_356\n      tag_207\n      jump\t// in\n    tag_356:\n        /* \"#utility.yul\":13361:13426   */\n      tag_357\n        /* \"#utility.yul\":13419:13425   */\n      dup2\n        /* \"#utility.yul\":13411:13417   */\n      dup5\n        /* \"#utility.yul\":13405:13409   */\n      dup5\n        /* \"#utility.yul\":13361:13426   */\n      tag_206\n      jump\t// in\n    tag_357:\n        /* \"#utility.yul\":13296:13432   */\n      pop\n        /* \"#utility.yul\":13243:13432   */\n      pop\n      pop\n      jump\t// out\n        /* \"#utility.yul\":13438:13624   */\n    tag_209:\n        /* \"#utility.yul\":13498:13618   */\n    tag_359:\n        /* \"#utility.yul\":13515:13518   */\n      dup2\n        /* \"#utility.yul\":13508:13513   */\n      dup2\n        /* \"#utility.yul\":13505:13519   */\n      lt\n        /* \"#utility.yul\":13498:13618   */\n      iszero\n      tag_361\n      jumpi\n        /* \"#utility.yul\":13569:13608   */\n      tag_362\n        /* \"#utility.yul\":13606:13607   */\n      0x00\n        /* \"#utility.yul\":13599:13604   */\n      dup3\n        /* \"#utility.yul\":13569:13608   */\n      tag_208\n      jump\t// in\n    tag_362:\n        /* \"#utility.yul\":13542:13543   */\n      0x01\n        /* \"#utility.yul\":13535:13540   */\n      dup2\n        /* \"#utility.yul\":13531:13544   */\n      add\n        /* \"#utility.yul\":13522:13544   */\n      swap1\n      pop\n        /* \"#utility.yul\":13498:13618   */\n      jump(tag_359)\n    tag_361:\n        /* \"#utility.yul\":13438:13624   */\n      pop\n      pop\n      jump\t// out\n        /* \"#utility.yul\":13630:14173   */\n    tag_210:\n        /* \"#utility.yul\":13731:13733   */\n      0x1f\n        /* \"#utility.yul\":13726:13729   */\n      dup3\n        /* \"#utility.yul\":13723:13734   */\n      gt\n        /* \"#utility.yul\":13720:14166   */\n      iszero\n      tag_364\n      jumpi\n        /* \"#utility.yul\":13765:13803   */\n      tag_365\n        /* \"#utility.yul\":13797:13802   */\n      dup2\n        /* \"#utility.yul\":13765:13803   */\n      tag_199\n      jump\t// in\n    tag_365:\n        /* \"#utility.yul\":13849:13878   */\n      tag_366\n        /* \"#utility.yul\":13867:13877   */\n      dup5\n        /* \"#utility.yul\":13849:13878   */\n      tag_200\n      jump\t// in\n    tag_366:\n        /* \"#utility.yul\":13839:13847   */\n      dup2\n        /* \"#utility.yul\":13835:13879   */\n      add\n        /* \"#utility.yul\":14032:14034   */\n      0x20\n        /* \"#utility.yul\":14020:14030   */\n      dup6\n        /* \"#utility.yul\":14017:14035   */\n      lt\n        /* \"#utility.yul\":14014:14063   */\n      iszero\n      tag_367\n      jumpi\n        /* \"#utility.yul\":14053:14061   */\n      dup2\n        /* \"#utility.yul\":14038:14061   */\n      swap1\n      pop\n        /* \"#utility.yul\":14014:14063   */\n    tag_367:\n        /* \"#utility.yul\":14076:14156   */\n      tag_368\n        /* \"#utility.yul\":14132:14154   */\n      tag_369\n        /* \"#utility.yul\":14150:14153   */\n      dup6\n        /* \"#utility.yul\":14132:14154   */\n      tag_200\n      jump\t// in\n    tag_369:\n        /* \"#utility.yul\":14122:14130   */\n      dup4\n        /* \"#utility.yul\":14118:14155   */\n      add\n        /* \"#utility.yul\":14105:14116   */\n      dup3\n        /* \"#utility.yul\":14076:14156   */\n      tag_209\n      jump\t// in\n    tag_368:\n        /* \"#utility.yul\":13735:14166   */\n      pop\n      pop\n        /* \"#utility.yul\":13720:14166   */\n    tag_364:\n        /* \"#utility.yul\":13630:14173   */\n      pop\n      pop\n      pop\n      jump\t// out\n        /* \"#utility.yul\":14179:14296   */\n    tag_211:\n        /* \"#utility.yul\":14233:14241   */\n      0x00\n        /* \"#utility.yul\":14283:14288   */\n      dup3\n        /* \"#utility.yul\":14277:14281   */\n      dup3\n        /* \"#utility.yul\":14273:14289   */\n      shr\n        /* \"#utility.yul\":14252:14289   */\n      swap1\n      pop\n        /* \"#utility.yul\":14179:14296   */\n      swap3\n      swap2\n      pop\n      pop\n      jump\t// out\n        /* \"#utility.yul\":14302:14471   */\n    tag_212:\n        /* \"#utility.yul\":14346:14352   */\n      0x00\n        /* \"#utility.yul\":14379:14430   */\n      tag_372\n        /* \"#utility.yul\":14427:14428   */\n      0x00\n        /* \"#utility.yul\":14423:14429   */\n      not\n        /* \"#utility.yul\":14415:14420   */\n      dup5\n        /* \"#utility.yul\":14412:14413   */\n      0x08\n        /* \"#utility.yul\":14408:14421   */\n      mul\n        /* \"#utility.yul\":14379:14430   */\n      tag_211\n      jump\t// in\n    tag_372:\n        /* \"#utility.yul\":14375:14431   */\n      not\n        /* \"#utility.yul\":14460:14464   */\n      dup1\n        /* \"#utility.yul\":14454:14458   */\n      dup4\n        /* \"#utility.yul\":14450:14465   */\n      and\n        /* \"#utility.yul\":14440:14465   */\n      swap2\n      pop\n        /* \"#utility.yul\":14353:14471   */\n      pop\n        /* \"#utility.yul\":14302:14471   */\n      swap3\n      swap2\n      pop\n      pop\n      jump\t// out\n        /* \"#utility.yul\":14476:14771   */\n    tag_213:\n        /* \"#utility.yul\":14552:14556   */\n      0x00\n        /* \"#utility.yul\":14698:14727   */\n      tag_374\n        /* \"#utility.yul\":14723:14726   */\n      dup4\n        /* \"#utility.yul\":14717:14721   */\n      dup4\n        /* \"#utility.yul\":14698:14727   */\n      tag_212\n      jump\t// in\n    tag_374:\n        /* \"#utility.yul\":14690:14727   */\n      swap2\n      pop\n        /* \"#utility.yul\":14760:14763   */\n      dup3\n        /* \"#utility.yul\":14757:14758   */\n      0x02\n        /* \"#utility.yul\":14753:14764   */\n      mul\n        /* \"#utility.yul\":14747:14751   */\n      dup3\n        /* \"#utility.yul\":14744:14765   */\n      or\n        /* \"#utility.yul\":14736:14765   */\n      swap1\n      pop\n        /* \"#utility.yul\":14476:14771   */\n      swap3\n      swap2\n      pop\n      pop\n      jump\t// out\n        /* \"#utility.yul\":14776:16171   */\n    tag_80:\n        /* \"#utility.yul\":14893:14930   */\n      tag_376\n        /* \"#utility.yul\":14926:14929   */\n      dup3\n        /* \"#utility.yul\":14893:14930   */\n      tag_177\n      jump\t// in\n    tag_376:\n        /* \"#utility.yul\":14995:15013   */\n      0xffffffffffffffff\n        /* \"#utility.yul\":14987:14993   */\n      dup2\n        /* \"#utility.yul\":14984:15014   */\n      gt\n        /* \"#utility.yul\":14981:15037   */\n      iszero\n      tag_377\n      jumpi\n        /* \"#utility.yul\":15017:15035   */\n      tag_378\n      tag_198\n      jump\t// in\n    tag_378:\n        /* \"#utility.yul\":14981:15037   */\n    tag_377:\n        /* \"#utility.yul\":15061:15099   */\n      tag_379\n        /* \"#utility.yul\":15093:15097   */\n      dup3\n        /* \"#utility.yul\":15087:15098   */\n      sload\n        /* \"#utility.yul\":15061:15099   */\n      tag_66\n      jump\t// in\n    tag_379:\n        /* \"#utility.yul\":15146:15213   */\n      tag_380\n        /* \"#utility.yul\":15206:15212   */\n      dup3\n        /* \"#utility.yul\":15198:15204   */\n      dup3\n        /* \"#utility.yul\":15192:15196   */\n      dup6\n        /* \"#utility.yul\":15146:15213   */\n      tag_210\n      jump\t// in\n    tag_380:\n        /* \"#utility.yul\":15240:15241   */\n      0x00\n        /* \"#utility.yul\":15264:15268   */\n      0x20\n        /* \"#utility.yul\":15251:15268   */\n      swap1\n      pop\n        /* \"#utility.yul\":15296:15298   */\n      0x1f\n        /* \"#utility.yul\":15288:15294   */\n      dup4\n        /* \"#utility.yul\":15285:15299   */\n      gt\n        /* \"#utility.yul\":15313:15314   */\n      0x01\n        /* \"#utility.yul\":15308:15926   */\n      dup2\n      eq\n      tag_382\n      jumpi\n        /* \"#utility.yul\":15970:15971   */\n      0x00\n        /* \"#utility.yul\":15987:15993   */\n      dup5\n        /* \"#utility.yul\":15984:16061   */\n      iszero\n      tag_383\n      jumpi\n        /* \"#utility.yul\":16036:16045   */\n      dup3\n        /* \"#utility.yul\":16031:16034   */\n      dup8\n        /* \"#utility.yul\":16027:16046   */\n      add\n        /* \"#utility.yul\":16021:16047   */\n      mload\n        /* \"#utility.yul\":16012:16047   */\n      swap1\n      pop\n        /* \"#utility.yul\":15984:16061   */\n    tag_383:\n        /* \"#utility.yul\":16087:16154   */\n      tag_384\n        /* \"#utility.yul\":16147:16153   */\n      dup6\n        /* \"#utility.yul\":16140:16145   */\n      dup3\n        /* \"#utility.yul\":16087:16154   */\n      tag_213\n      jump\t// in\n    tag_384:\n        /* \"#utility.yul\":16081:16085   */\n      dup7\n        /* \"#utility.yul\":16074:16155   */\n      sstore\n        /* \"#utility.yul\":15943:16165   */\n      pop\n        /* \"#utility.yul\":15278:16165   */\n      jump(tag_381)\n        /* \"#utility.yul\":15308:15926   */\n    tag_382:\n        /* \"#utility.yul\":15360:15364   */\n      0x1f\n        /* \"#utility.yul\":15356:15365   */\n      not\n        /* \"#utility.yul\":15348:15354   */\n      dup5\n        /* \"#utility.yul\":15344:15366   */\n      and\n        /* \"#utility.yul\":15394:15431   */\n      tag_385\n        /* \"#utility.yul\":15426:15430   */\n      dup7\n        /* \"#utility.yul\":15394:15431   */\n      tag_199\n      jump\t// in\n    tag_385:\n        /* \"#utility.yul\":15453:15454   */\n      0x00\n        /* \"#utility.yul\":15467:15675   */\n    tag_386:\n        /* \"#utility.yul\":15481:15488   */\n      dup3\n        /* \"#utility.yul\":15478:15479   */\n      dup2\n        /* \"#utility.yul\":15475:15489   */\n      lt\n        /* \"#utility.yul\":15467:15675   */\n      iszero\n      tag_388\n      jumpi\n        /* \"#utility.yul\":15560:15569   */\n      dup5\n        /* \"#utility.yul\":15555:15558   */\n      dup10\n        /* \"#utility.yul\":15551:15570   */\n      add\n        /* \"#utility.yul\":15545:15571   */\n      mload\n        /* \"#utility.yul\":15537:15543   */\n      dup3\n        /* \"#utility.yul\":15530:15572   */\n      sstore\n        /* \"#utility.yul\":15611:15612   */\n      0x01\n        /* \"#utility.yul\":15603:15609   */\n      dup3\n        /* \"#utility.yul\":15599:15613   */\n      add\n        /* \"#utility.yul\":15589:15613   */\n      swap2\n      pop\n        /* \"#utility.yul\":15658:15660   */\n      0x20\n        /* \"#utility.yul\":15647:15656   */\n      dup6\n        /* \"#utility.yul\":15643:15661   */\n      add\n        /* \"#utility.yul\":15630:15661   */\n      swap5\n      pop\n        /* \"#utility.yul\":15504:15508   */\n      0x20\n        /* \"#utility.yul\":15501:15502   */\n      dup2\n        /* \"#utility.yul\":15497:15509   */\n      add\n        /* \"#utility.yul\":15492:15509   */\n      swap1\n      pop\n        /* \"#utility.yul\":15467:15675   */\n      jump(tag_386)\n    tag_388:\n        /* \"#utility.yul\":15703:15709   */\n      dup7\n        /* \"#utility.yul\":15694:15701   */\n      dup4\n        /* \"#utility.yul\":15691:15710   */\n      lt\n        /* \"#utility.yul\":15688:15867   */\n      iszero\n      tag_389\n      jumpi\n        /* \"#utility.yul\":15761:15770   */\n      dup5\n        /* \"#utility.yul\":15756:15759   */\n      dup10\n        /* \"#utility.yul\":15752:15771   */\n      add\n        /* \"#utility.yul\":15746:15772   */\n      mload\n        /* \"#utility.yul\":15804:15852   */\n      tag_390\n        /* \"#utility.yul\":15846:15850   */\n      0x1f\n        /* \"#utility.yul\":15838:15844   */\n      dup10\n        /* \"#utility.yul\":15834:15851   */\n      and\n        /* \"#utility.yul\":15823:15832   */\n      dup3\n        /* \"#utility.yul\":15804:15852   */\n      tag_212\n      jump\t// in\n    tag_390:\n        /* \"#utility.yul\":15796:15802   */\n      dup4\n        /* \"#utility.yul\":15789:15853   */\n      sstore\n        /* \"#utility.yul\":15711:15867   */\n      pop\n        /* \"#utility.yul\":15688:15867   */\n    tag_389:\n        /* \"#utility.yul\":15913:15914   */\n      0x01\n        /* \"#utility.yul\":15909:15910   */\n      0x02\n        /* \"#utility.yul\":15901:15907   */\n      dup9\n        /* \"#utility.yul\":15897:15911   */\n      mul\n        /* \"#utility.yul\":15893:15915   */\n      add\n        /* \"#utility.yul\":15887:15891   */\n      dup9\n        /* \"#utility.yul\":15880:15916   */\n      sstore\n        /* \"#utility.yul\":15315:15926   */\n      pop\n      pop\n      pop\n        /* \"#utility.yul\":15278:16165   */\n    tag_381:\n      pop\n        /* \"#utility.yul\":14868:16171   */\n      pop\n      pop\n      pop\n        /* \"#utility.yul\":14776:16171   */\n      pop\n      pop\n      jump\t// out\n        /* \"#utility.yul\":16177:16368   */\n    tag_83:\n        /* \"#utility.yul\":16217:16220   */\n      0x00\n        /* \"#utility.yul\":16236:16256   */\n      tag_392\n        /* \"#utility.yul\":16254:16255   */\n      dup3\n        /* \"#utility.yul\":16236:16256   */\n      tag_173\n      jump\t// in\n    tag_392:\n        /* \"#utility.yul\":16231:16256   */\n      swap2\n      pop\n        /* \"#utility.yul\":16270:16290   */\n      tag_393\n        /* \"#utility.yul\":16288:16289   */\n      dup4\n        /* \"#utility.yul\":16270:16290   */\n      tag_173\n      jump\t// in\n    tag_393:\n        /* \"#utility.yul\":16265:16290   */\n      swap3\n      pop\n        /* \"#utility.yul\":16313:16314   */\n      dup3\n        /* \"#utility.yul\":16310:16311   */\n      dup3\n        /* \"#utility.yul\":16306:16315   */\n      add\n        /* \"#utility.yul\":16299:16315   */\n      swap1\n      pop\n        /* \"#utility.yul\":16334:16337   */\n      dup1\n        /* \"#utility.yul\":16331:16332   */\n      dup3\n        /* \"#utility.yul\":16328:16338   */\n      gt\n        /* \"#utility.yul\":16325:16361   */\n      iszero\n      tag_394\n      jumpi\n        /* \"#utility.yul\":16341:16359   */\n      tag_395\n      tag_196\n      jump\t// in\n    tag_395:\n        /* \"#utility.yul\":16325:16361   */\n    tag_394:\n        /* \"#utility.yul\":16177:16368   */\n      swap3\n      swap2\n      pop\n      pop\n      jump\t// out\n        /* \"#utility.yul\":16374:16554   */\n    tag_86:\n        /* \"#utility.yul\":16422:16499   */\n      0x4e487b7100000000000000000000000000000000000000000000000000000000\n        /* \"#utility.yul\":16419:16420   */\n      0x00\n        /* \"#utility.yul\":16412:16500   */\n      mstore\n        /* \"#utility.yul\":16519:16523   */\n      0x31\n        /* \"#utility.yul\":16516:16517   */\n      0x04\n        /* \"#utility.yul\":16509:16524   */\n      mstore\n        /* \"#utility.yul\":16543:16547   */\n      0x24\n        /* \"#utility.yul\":16540:16541   */\n      0x00\n        /* \"#utility.yul\":16533:16548   */\n      revert\n        /* \"#utility.yul\":16560:16708   */\n    tag_214:\n        /* \"#utility.yul\":16662:16673   */\n      0x00\n        /* \"#utility.yul\":16699:16702   */\n      dup2\n        /* \"#utility.yul\":16684:16702   */\n      swap1\n      pop\n        /* \"#utility.yul\":16560:16708   */\n      swap3\n      swap2\n      pop\n      pop\n      jump\t// out\n        /* \"#utility.yul\":16714:16860   */\n    tag_215:\n        /* \"#utility.yul\":16811:16817   */\n      dup3\n        /* \"#utility.yul\":16806:16809   */\n      dup2\n        /* \"#utility.yul\":16801:16804   */\n      dup4\n        /* \"#utility.yul\":16788:16818   */\n      calldatacopy\n        /* \"#utility.yul\":16852:16853   */\n      0x00\n        /* \"#utility.yul\":16843:16849   */\n      dup4\n        /* \"#utility.yul\":16838:16841   */\n      dup4\n        /* \"#utility.yul\":16834:16850   */\n      add\n        /* \"#utility.yul\":16827:16854   */\n      mstore\n        /* \"#utility.yul\":16714:16860   */\n      pop\n      pop\n      pop\n      jump\t// out\n        /* \"#utility.yul\":16890:17220   */\n    tag_216:\n        /* \"#utility.yul\":17006:17009   */\n      0x00\n        /* \"#utility.yul\":17027:17116   */\n      tag_400\n        /* \"#utility.yul\":17109:17115   */\n      dup4\n        /* \"#utility.yul\":17104:17107   */\n      dup6\n        /* \"#utility.yul\":17027:17116   */\n      tag_214\n      jump\t// in\n    tag_400:\n        /* \"#utility.yul\":17020:17116   */\n      swap4\n      pop\n        /* \"#utility.yul\":17126:17182   */\n      tag_401\n        /* \"#utility.yul\":17175:17181   */\n      dup4\n        /* \"#utility.yul\":17170:17173   */\n      dup6\n        /* \"#utility.yul\":17163:17168   */\n      dup5\n        /* \"#utility.yul\":17126:17182   */\n      tag_215\n      jump\t// in\n    tag_401:\n        /* \"#utility.yul\":17207:17213   */\n      dup3\n        /* \"#utility.yul\":17202:17205   */\n      dup5\n        /* \"#utility.yul\":17198:17214   */\n      add\n        /* \"#utility.yul\":17191:17214   */\n      swap1\n      pop\n        /* \"#utility.yul\":16890:17220   */\n      swap4\n      swap3\n      pop\n      pop\n      pop\n      jump\t// out\n        /* \"#utility.yul\":17226:17521   */\n    tag_158:\n        /* \"#utility.yul\":17368:17371   */\n      0x00\n        /* \"#utility.yul\":17390:17495   */\n      tag_403\n        /* \"#utility.yul\":17491:17494   */\n      dup3\n        /* \"#utility.yul\":17482:17488   */\n      dup5\n        /* \"#utility.yul\":17474:17480   */\n      dup7\n        /* \"#utility.yul\":17390:17495   */\n      tag_216\n      jump\t// in\n    tag_403:\n        /* \"#utility.yul\":17383:17495   */\n      swap2\n      pop\n        /* \"#utility.yul\":17512:17515   */\n      dup2\n        /* \"#utility.yul\":17505:17515   */\n      swap1\n      pop\n        /* \"#utility.yul\":17226:17521   */\n      swap4\n      swap3\n      pop\n      pop\n      pop\n      jump\t// out\n\n    auxdata: 0xa2646970667358221220e3f31c3a10448ac488b31ada4922ece552b2b17ccf770dde0cd6a8bf2256efd064736f6c63430008130033\n}\n",
				"bytecode": {
					"linkReferences": {},
					"object": "6080604052735b38da6a701c568545dcfcb03fcb875f56beddc46000806101000a81548173ffffffffffffffffffffffffffffffffffffffff021916908373ffffffffffffffffffffffffffffffffffffffff16021790555034801561006457600080fd5b506117c0806100746000396000f3fe608060405234801561001057600080fd5b50600436106100885760003560e01c8063c0fd99d81161005b578063c0fd99d81461012b578063d0148ee014610147578063efe03fdd14610177578063f851a440146101a757610088565b806356c2f3ae1461008d57806368744046146100a95780638a5cd7b2146100dc578063ad1a7d0c146100f8575b600080fd5b6100a760048036038101906100a29190610e2c565b6101c5565b005b6100c360048036038101906100be9190610e8f565b61053c565b6040516100d39493929190610f6a565b60405180910390f35b6100f660048036038101906100f19190611022565b61068c565b005b610112600480360381019061010d9190610e2c565b610867565b6040516101229493929190610f6a565b60405180910390f35b610145600480360381019061014091906110b7565b610a99565b005b610161600480360381019061015c919061115e565b610d13565b60405161016e91906111ab565b60405180910390f35b610191600480360381019061018c9190610e2c565b610d4b565b60405161019e91906111e1565b60405180910390f35b6101af610d6b565b6040516101bc919061123d565b60405180910390f35b60008054906101000a900473ffffffffffffffffffffffffffffffffffffffff1673ffffffffffffffffffffffffffffffffffffffff163373ffffffffffffffffffffffffffffffffffffffff1614610253576040517f08c379a000000000000000000000000000000000000000000000000000000000815260040161024a906112a4565b60405180910390fd5b61025c81610d4b565b61029b576040517f08c379a000000000000000000000000000000000000000000000000000000000815260040161029290611310565b60405180910390fd5b6000600160026000848152602001908152602001600020546102bd919061135f565b9050600060018080805490506102d3919061135f565b815481106102e4576102e3611393565b5b906000526020600020906004020160405180608001604052908160008201548152602001600182018054610317906113f1565b80601f0160208091040260200160405190810160405280929190818152602001828054610343906113f1565b80156103905780601f1061036557610100808354040283529160200191610390565b820191906000526020600020905b81548152906001019060200180831161037357829003601f168201915b50505050508152602001600282015481526020016003820180546103b3906113f1565b80601f01602080910402602001604051908101604052809291908181526020018280546103df906113f1565b801561042c5780601f106104015761010080835404028352916020019161042c565b820191906000526020600020905b81548152906001019060200180831161040f57829003601f168201915b5050505050815250509050806001838154811061044c5761044b611393565b5b906000526020600020906004020160008201518160000155602082015181600101908161047991906115fd565b5060408201518160020155606082015181600301908161049991906115fd565b509050506001826104aa91906116cf565b600260008360000151815260200190815260200160002081905550600260008481526020019081526020016000206000905560018054806104ee576104ed611703565b5b600190038181906000526020600020906004020160008082016000905560018201600061051b9190610d8f565b60028201600090556003820160006105339190610d8f565b50509055505050565b6001818154811061054c57600080fd5b9060005260206000209060040201600091509050806000015490806001018054610575906113f1565b80601f01602080910402602001604051908101604052809291908181526020018280546105a1906113f1565b80156105ee5780601f106105c3576101008083540402835291602001916105ee565b820191906000526020600020905b8154815290600101906020018083116105d157829003601f168201915b505050505090806002015490806003018054610609906113f1565b80601f0160208091040260200160405190810160405280929190818152602001828054610635906113f1565b80156106825780601f1061065757610100808354040283529160200191610682565b820191906000526020600020905b81548152906001019060200180831161066557829003601f168201915b5050505050905084565b60008054906101000a900473ffffffffffffffffffffffffffffffffffffffff1673ffffffffffffffffffffffffffffffffffffffff163373ffffffffffffffffffffffffffffffffffffffff161461071a576040517f08c379a0000000000000000000000000000000000000000000000000000000008152600401610711906112a4565b60405180910390fd5b600060405180608001604052806107318888610d13565b815260200187878080601f016020809104026020016040519081016040528093929190818152602001838380828437600081840152601f19601f82011690508083019250505050505050815260200185815260200184848080601f016020809104026020016040519081016040528093929190818152602001838380828437600081840152601f19601f820116905080830192505050505050508152509050600181908060018154018082558091505060019003906000526020600020906004020160009091909190915060008201518160000155602082015181600101908161081b91906115fd565b5060408201518160020155606082015181600301908161083b91906115fd565b505050600180549050600260008360000151815260200190815260200160002081905550505050505050565b600060606000606061087885610d4b565b6108b7576040517f08c379a00000000000000000000000000000000000000000000000000000000081526004016108ae90611310565b60405180910390fd5b6000600160026000888152602001908152602001600020546108d9919061135f565b9050600181815481106108ef576108ee611393565b5b9060005260206000209060040201600001546001828154811061091557610914611393565b5b90600052602060002090600402016001016001838154811061093a57610939611393565b5b906000526020600020906004020160020154600184815481106109605761095f611393565b5b906000526020600020906004020160030182805461097d906113f1565b80601f01602080910402602001604051908101604052809291908181526020018280546109a9906113f1565b80156109f65780601f106109cb576101008083540402835291602001916109f6565b820191906000526020600020905b8154815290600101906020018083116109d957829003601f168201915b50505050509250808054610a09906113f1565b80601f0160208091040260200160405190810160405280929190818152602001828054610a35906113f1565b8015610a825780601f10610a5757610100808354040283529160200191610a82565b820191906000526020600020905b815481529060010190602001808311610a6557829003601f168201915b505050505090509450945094509450509193509193565b60008054906101000a900473ffffffffffffffffffffffffffffffffffffffff1673ffffffffffffffffffffffffffffffffffffffff163373ffffffffffffffffffffffffffffffffffffffff1614610b27576040517f08c379a0000000000000000000000000000000000000000000000000000000008152600401610b1e906112a4565b60405180910390fd5b610b3086610d4b565b610b6f576040517f08c379a0000000000000000000000000000000000000000000000000000000008152600401610b6690611310565b60405180910390fd5b600060016002600089815260200190815260200160002054610b91919061135f565b90506040518060800160405280610ba88888610d13565b815260200187878080601f016020809104026020016040519081016040528093929190818152602001838380828437600081840152601f19601f82011690508083019250505050505050815260200185815260200184848080601f016020809104026020016040519081016040528093929190818152602001838380828437600081840152601f19601f8201169050808301925050505050505081525060018281548110610c5957610c58611393565b5b9060005260206000209060040201600082015181600001556020820151816001019081610c8691906115fd565b50604082015181600201556060820151816003019081610ca691906115fd565b50905050600181610cb791906116cf565b6002600060018481548110610ccf57610cce611393565b5b906000526020600020906004020160000154815260200190815260200160002081905550600260008881526020019081526020016000206000905550505050505050565b6000808383604051602001610d29929190611771565b6040516020818303038152906040528051906020012090508091505092915050565b600080600260008481526020019081526020016000205414159050919050565b60008054906101000a900473ffffffffffffffffffffffffffffffffffffffff1681565b508054610d9b906113f1565b6000825580601f10610dad5750610dcc565b601f016020900490600052602060002090810190610dcb9190610dcf565b5b50565b5b80821115610de8576000816000905550600101610dd0565b5090565b600080fd5b600080fd5b6000819050919050565b610e0981610df6565b8114610e1457600080fd5b50565b600081359050610e2681610e00565b92915050565b600060208284031215610e4257610e41610dec565b5b6000610e5084828501610e17565b91505092915050565b6000819050919050565b610e6c81610e59565b8114610e7757600080fd5b50565b600081359050610e8981610e63565b92915050565b600060208284031215610ea557610ea4610dec565b5b6000610eb384828501610e7a565b91505092915050565b610ec581610df6565b82525050565b600081519050919050565b600082825260208201905092915050565b60005b83811015610f05578082015181840152602081019050610eea565b60008484015250505050565b6000601f19601f8301169050919050565b6000610f2d82610ecb565b610f378185610ed6565b9350610f47818560208601610ee7565b610f5081610f11565b840191505092915050565b610f6481610e59565b82525050565b6000608082019050610f7f6000830187610ebc565b8181036020830152610f918186610f22565b9050610fa06040830185610f5b565b8181036060830152610fb28184610f22565b905095945050505050565b600080fd5b600080fd5b600080fd5b60008083601f840112610fe257610fe1610fbd565b5b8235905067ffffffffffffffff811115610fff57610ffe610fc2565b5b60208301915083600182028301111561101b5761101a610fc7565b5b9250929050565b60008060008060006060868803121561103e5761103d610dec565b5b600086013567ffffffffffffffff81111561105c5761105b610df1565b5b61106888828901610fcc565b9550955050602061107b88828901610e7a565b935050604086013567ffffffffffffffff81111561109c5761109b610df1565b5b6110a888828901610fcc565b92509250509295509295909350565b600080600080600080608087890312156110d4576110d3610dec565b5b60006110e289828a01610e17565b965050602087013567ffffffffffffffff81111561110357611102610df1565b5b61110f89828a01610fcc565b9550955050604061112289828a01610e7a565b935050606087013567ffffffffffffffff81111561114357611142610df1565b5b61114f89828a01610fcc565b92509250509295509295509295565b6000806020838503121561117557611174610dec565b5b600083013567ffffffffffffffff81111561119357611192610df1565b5b61119f85828601610fcc565b92509250509250929050565b60006020820190506111c06000830184610ebc565b92915050565b60008115159050919050565b6111db816111c6565b82525050565b60006020820190506111f660008301846111d2565b92915050565b600073ffffffffffffffffffffffffffffffffffffffff82169050919050565b6000611227826111fc565b9050919050565b6112378161121c565b82525050565b6000602082019050611252600083018461122e565b92915050565b7f556e6175746f72697a6500000000000000000000000000000000000000000000600082015250565b600061128e600a83610ed6565b915061129982611258565b602082019050919050565b600060208201905081810360008301526112bd81611281565b9050919050565b7f4e6f7420466f756e640000000000000000000000000000000000000000000000600082015250565b60006112fa600983610ed6565b9150611305826112c4565b602082019050919050565b60006020820190508181036000830152611329816112ed565b9050919050565b7f4e487b7100000000000000000000000000000000000000000000000000000000600052601160045260246000fd5b600061136a82610e59565b915061137583610e59565b925082820390508181111561138d5761138c611330565b5b92915050565b7f4e487b7100000000000000000000000000000000000000000000000000000000600052603260045260246000fd5b7f4e487b7100000000000000000000000000000000000000000000000000000000600052602260045260246000fd5b6000600282049050600182168061140957607f821691505b60208210810361141c5761141b6113c2565b5b50919050565b7f4e487b7100000000000000000000000000000000000000000000000000000000600052604160045260246000fd5b60008190508160005260206000209050919050565b60006020601f8301049050919050565b600082821b905092915050565b6000600883026114b37fffffffffffffffffffffffffffffffffffffffffffffffffffffffffffffffff82611476565b6114bd8683611476565b95508019841693508086168417925050509392505050565b6000819050919050565b60006114fa6114f56114f084610e59565b6114d5565b610e59565b9050919050565b6000819050919050565b611514836114df565b61152861152082611501565b848454611483565b825550505050565b600090565b61153d611530565b61154881848461150b565b505050565b5b8181101561156c57611561600082611535565b60018101905061154e565b5050565b601f8211156115b15761158281611451565b61158b84611466565b8101602085101561159a578190505b6115ae6115a685611466565b83018261154d565b50505b505050565b600082821c905092915050565b60006115d4600019846008026115b6565b1980831691505092915050565b60006115ed83836115c3565b9150826002028217905092915050565b61160682610ecb565b67ffffffffffffffff81111561161f5761161e611422565b5b61162982546113f1565b611634828285611570565b600060209050601f8311600181146116675760008415611655578287015190505b61165f85826115e1565b8655506116c7565b601f19841661167586611451565b60005b8281101561169d57848901518255600182019150602085019450602081019050611678565b868310156116ba57848901516116b6601f8916826115c3565b8355505b6001600288020188555050505b505050505050565b60006116da82610e59565b91506116e583610e59565b92508282019050808211156116fd576116fc611330565b5b92915050565b7f4e487b7100000000000000000000000000000000000000000000000000000000600052603160045260246000fd5b600081905092915050565b82818337600083830152505050565b60006117588385611732565b935061176583858461173d565b82840190509392505050565b600061177e82848661174c565b9150819050939250505056fea2646970667358221220e3f31c3a10448ac488b31ada4922ece552b2b17ccf770dde0cd6a8bf2256efd064736f6c63430008130033",
					"opcodes": "PUSH1 0x80 PUSH1 0x40 MSTORE PUSH20 0x5B38DA6A701C568545DCFCB03FCB875F56BEDDC4 PUSH1 0x0 DUP1 PUSH2 0x100 EXP DUP2 SLOAD DUP2 PUSH20 0xFFFFFFFFFFFFFFFFFFFFFFFFFFFFFFFFFFFFFFFF MUL NOT AND SWAP1 DUP4 PUSH20 0xFFFFFFFFFFFFFFFFFFFFFFFFFFFFFFFFFFFFFFFF AND MUL OR SWAP1 SSTORE POP CALLVALUE DUP1 ISZERO PUSH2 0x64 JUMPI PUSH1 0x0 DUP1 REVERT JUMPDEST POP PUSH2 0x17C0 DUP1 PUSH2 0x74 PUSH1 0x0 CODECOPY PUSH1 0x0 RETURN INVALID PUSH1 0x80 PUSH1 0x40 MSTORE CALLVALUE DUP1 ISZERO PUSH2 0x10 JUMPI PUSH1 0x0 DUP1 REVERT JUMPDEST POP PUSH1 0x4 CALLDATASIZE LT PUSH2 0x88 JUMPI PUSH1 0x0 CALLDATALOAD PUSH1 0xE0 SHR DUP1 PUSH4 0xC0FD99D8 GT PUSH2 0x5B JUMPI DUP1 PUSH4 0xC0FD99D8 EQ PUSH2 0x12B JUMPI DUP1 PUSH4 0xD0148EE0 EQ PUSH2 0x147 JUMPI DUP1 PUSH4 0xEFE03FDD EQ PUSH2 0x177 JUMPI DUP1 PUSH4 0xF851A440 EQ PUSH2 0x1A7 JUMPI PUSH2 0x88 JUMP JUMPDEST DUP1 PUSH4 0x56C2F3AE EQ PUSH2 0x8D JUMPI DUP1 PUSH4 0x68744046 EQ PUSH2 0xA9 JUMPI DUP1 PUSH4 0x8A5CD7B2 EQ PUSH2 0xDC JUMPI DUP1 PUSH4 0xAD1A7D0C EQ PUSH2 0xF8 JUMPI JUMPDEST PUSH1 0x0 DUP1 REVERT JUMPDEST PUSH2 0xA7 PUSH1 0x4 DUP1 CALLDATASIZE SUB DUP2 ADD SWAP1 PUSH2 0xA2 SWAP2 SWAP1 PUSH2 0xE2C JUMP JUMPDEST PUSH2 0x1C5 JUMP JUMPDEST STOP JUMPDEST PUSH2 0xC3 PUSH1 0x4 DUP1 CALLDATASIZE SUB DUP2 ADD SWAP1 PUSH2 0xBE SWAP2 SWAP1 PUSH2 0xE8F JUMP JUMPDEST PUSH2 0x53C JUMP JUMPDEST PUSH1 0x40 MLOAD PUSH2 0xD3 SWAP5 SWAP4 SWAP3 SWAP2 SWAP1 PUSH2 0xF6A JUMP JUMPDEST PUSH1 0x40 MLOAD DUP1 SWAP2 SUB SWAP1 RETURN JUMPDEST PUSH2 0xF6 PUSH1 0x4 DUP1 CALLDATASIZE SUB DUP2 ADD SWAP1 PUSH2 0xF1 SWAP2 SWAP1 PUSH2 0x1022 JUMP JUMPDEST PUSH2 0x68C JUMP JUMPDEST STOP JUMPDEST PUSH2 0x112 PUSH1 0x4 DUP1 CALLDATASIZE SUB DUP2 ADD SWAP1 PUSH2 0x10D SWAP2 SWAP1 PUSH2 0xE2C JUMP JUMPDEST PUSH2 0x867 JUMP JUMPDEST PUSH1 0x40 MLOAD PUSH2 0x122 SWAP5 SWAP4 SWAP3 SWAP2 SWAP1 PUSH2 0xF6A JUMP JUMPDEST PUSH1 0x40 MLOAD DUP1 SWAP2 SUB SWAP1 RETURN JUMPDEST PUSH2 0x145 PUSH1 0x4 DUP1 CALLDATASIZE SUB DUP2 ADD SWAP1 PUSH2 0x140 SWAP2 SWAP1 PUSH2 0x10B7 JUMP JUMPDEST PUSH2 0xA99 JUMP JUMPDEST STOP JUMPDEST PUSH2 0x161 PUSH1 0x4 DUP1 CALLDATASIZE SUB DUP2 ADD SWAP1 PUSH2 0x15C SWAP2 SWAP1 PUSH2 0x115E JUMP JUMPDEST PUSH2 0xD13 JUMP JUMPDEST PUSH1 0x40 MLOAD PUSH2 0x16E SWAP2 SWAP1 PUSH2 0x11AB JUMP JUMPDEST PUSH1 0x40 MLOAD DUP1 SWAP2 SUB SWAP1 RETURN JUMPDEST PUSH2 0x191 PUSH1 0x4 DUP1 CALLDATASIZE SUB DUP2 ADD SWAP1 PUSH2 0x18C SWAP2 SWAP1 PUSH2 0xE2C JUMP JUMPDEST PUSH2 0xD4B JUMP JUMPDEST PUSH1 0x40 MLOAD PUSH2 0x19E SWAP2 SWAP1 PUSH2 0x11E1 JUMP JUMPDEST PUSH1 0x40 MLOAD DUP1 SWAP2 SUB SWAP1 RETURN JUMPDEST PUSH2 0x1AF PUSH2 0xD6B JUMP JUMPDEST PUSH1 0x40 MLOAD PUSH2 0x1BC SWAP2 SWAP1 PUSH2 0x123D JUMP JUMPDEST PUSH1 0x40 MLOAD DUP1 SWAP2 SUB SWAP1 RETURN JUMPDEST PUSH1 0x0 DUP1 SLOAD SWAP1 PUSH2 0x100 EXP SWAP1 DIV PUSH20 0xFFFFFFFFFFFFFFFFFFFFFFFFFFFFFFFFFFFFFFFF AND PUSH20 0xFFFFFFFFFFFFFFFFFFFFFFFFFFFFFFFFFFFFFFFF AND CALLER PUSH20 0xFFFFFFFFFFFFFFFFFFFFFFFFFFFFFFFFFFFFFFFF AND EQ PUSH2 0x253 JUMPI PUSH1 0x40 MLOAD PUSH32 0x8C379A000000000000000000000000000000000000000000000000000000000 DUP2 MSTORE PUSH1 0x4 ADD PUSH2 0x24A SWAP1 PUSH2 0x12A4 JUMP JUMPDEST PUSH1 0x40 MLOAD DUP1 SWAP2 SUB SWAP1 REVERT JUMPDEST PUSH2 0x25C DUP2 PUSH2 0xD4B JUMP JUMPDEST PUSH2 0x29B JUMPI PUSH1 0x40 MLOAD PUSH32 0x8C379A000000000000000000000000000000000000000000000000000000000 DUP2 MSTORE PUSH1 0x4 ADD PUSH2 0x292 SWAP1 PUSH2 0x1310 JUMP JUMPDEST PUSH1 0x40 MLOAD DUP1 SWAP2 SUB SWAP1 REVERT JUMPDEST PUSH1 0x0 PUSH1 0x1 PUSH1 0x2 PUSH1 0x0 DUP5 DUP2 MSTORE PUSH1 0x20 ADD SWAP1 DUP2 MSTORE PUSH1 0x20 ADD PUSH1 0x0 KECCAK256 SLOAD PUSH2 0x2BD SWAP2 SWAP1 PUSH2 0x135F JUMP JUMPDEST SWAP1 POP PUSH1 0x0 PUSH1 0x1 DUP1 DUP1 DUP1 SLOAD SWAP1 POP PUSH2 0x2D3 SWAP2 SWAP1 PUSH2 0x135F JUMP JUMPDEST DUP2 SLOAD DUP2 LT PUSH2 0x2E4 JUMPI PUSH2 0x2E3 PUSH2 0x1393 JUMP JUMPDEST JUMPDEST SWAP1 PUSH1 0x0 MSTORE PUSH1 0x20 PUSH1 0x0 KECCAK256 SWAP1 PUSH1 0x4 MUL ADD PUSH1 0x40 MLOAD DUP1 PUSH1 0x80 ADD PUSH1 0x40 MSTORE SWAP1 DUP2 PUSH1 0x0 DUP3 ADD SLOAD DUP2 MSTORE PUSH1 0x20 ADD PUSH1 0x1 DUP3 ADD DUP1 SLOAD PUSH2 0x317 SWAP1 PUSH2 0x13F1 JUMP JUMPDEST DUP1 PUSH1 0x1F ADD PUSH1 0x20 DUP1 SWAP2 DIV MUL PUSH1 0x20 ADD PUSH1 0x40 MLOAD SWAP1 DUP2 ADD PUSH1 0x40 MSTORE DUP1 SWAP3 SWAP2 SWAP1 DUP2 DUP2 MSTORE PUSH1 0x20 ADD DUP3 DUP1 SLOAD PUSH2 0x343 SWAP1 PUSH2 0x13F1 JUMP JUMPDEST DUP1 ISZERO PUSH2 0x390 JUMPI DUP1 PUSH1 0x1F LT PUSH2 0x365 JUMPI PUSH2 0x100 DUP1 DUP4 SLOAD DIV MUL DUP4 MSTORE SWAP2 PUSH1 0x20 ADD SWAP2 PUSH2 0x390 JUMP JUMPDEST DUP3 ADD SWAP2 SWAP1 PUSH1 0x0 MSTORE PUSH1 0x20 PUSH1 0x0 KECCAK256 SWAP1 JUMPDEST DUP2 SLOAD DUP2 MSTORE SWAP1 PUSH1 0x1 ADD SWAP1 PUSH1 0x20 ADD DUP1 DUP4 GT PUSH2 0x373 JUMPI DUP3 SWAP1 SUB PUSH1 0x1F AND DUP3 ADD SWAP2 JUMPDEST POP POP POP POP POP DUP2 MSTORE PUSH1 0x20 ADD PUSH1 0x2 DUP3 ADD SLOAD DUP2 MSTORE PUSH1 0x20 ADD PUSH1 0x3 DUP3 ADD DUP1 SLOAD PUSH2 0x3B3 SWAP1 PUSH2 0x13F1 JUMP JUMPDEST DUP1 PUSH1 0x1F ADD PUSH1 0x20 DUP1 SWAP2 DIV MUL PUSH1 0x20 ADD PUSH1 0x40 MLOAD SWAP1 DUP2 ADD PUSH1 0x40 MSTORE DUP1 SWAP3 SWAP2 SWAP1 DUP2 DUP2 MSTORE PUSH1 0x20 ADD DUP3 DUP1 SLOAD PUSH2 0x3DF SWAP1 PUSH2 0x13F1 JUMP JUMPDEST DUP1 ISZERO PUSH2 0x42C JUMPI DUP1 PUSH1 0x1F LT PUSH2 0x401 JUMPI PUSH2 0x100 DUP1 DUP4 SLOAD DIV MUL DUP4 MSTORE SWAP2 PUSH1 0x20 ADD SWAP2 PUSH2 0x42C JUMP JUMPDEST DUP3 ADD SWAP2 SWAP1 PUSH1 0x0 MSTORE PUSH1 0x20 PUSH1 0x0 KECCAK256 SWAP1 JUMPDEST DUP2 SLOAD DUP2 MSTORE SWAP1 PUSH1 0x1 ADD SWAP1 PUSH1 0x20 ADD DUP1 DUP4 GT PUSH2 0x40F JUMPI DUP3 SWAP1 SUB PUSH1 0x1F AND DUP3 ADD SWAP2 JUMPDEST POP POP POP POP POP DUP2 MSTORE POP POP SWAP1 POP DUP1 PUSH1 0x1 DUP4 DUP2 SLOAD DUP2 LT PUSH2 0x44C JUMPI PUSH2 0x44B PUSH2 0x1393 JUMP JUMPDEST JUMPDEST SWAP1 PUSH1 0x0 MSTORE PUSH1 0x20 PUSH1 0x0 KECCAK256 SWAP1 PUSH1 0x4 MUL ADD PUSH1 0x0 DUP3 ADD MLOAD DUP2 PUSH1 0x0 ADD SSTORE PUSH1 0x20 DUP3 ADD MLOAD DUP2 PUSH1 0x1 ADD SWAP1 DUP2 PUSH2 0x479 SWAP2 SWAP1 PUSH2 0x15FD JUMP JUMPDEST POP PUSH1 0x40 DUP3 ADD MLOAD DUP2 PUSH1 0x2 ADD SSTORE PUSH1 0x60 DUP3 ADD MLOAD DUP2 PUSH1 0x3 ADD SWAP1 DUP2 PUSH2 0x499 SWAP2 SWAP1 PUSH2 0x15FD JUMP JUMPDEST POP SWAP1 POP POP PUSH1 0x1 DUP3 PUSH2 0x4AA SWAP2 SWAP1 PUSH2 0x16CF JUMP JUMPDEST PUSH1 0x2 PUSH1 0x0 DUP4 PUSH1 0x0 ADD MLOAD DUP2 MSTORE PUSH1 0x20 ADD SWAP1 DUP2 MSTORE PUSH1 0x20 ADD PUSH1 0x0 KECCAK256 DUP2 SWAP1 SSTORE POP PUSH1 0x2 PUSH1 0x0 DUP5 DUP2 MSTORE PUSH1 0x20 ADD SWAP1 DUP2 MSTORE PUSH1 0x20 ADD PUSH1 0x0 KECCAK256 PUSH1 0x0 SWAP1 SSTORE PUSH1 0x1 DUP1 SLOAD DUP1 PUSH2 0x4EE JUMPI PUSH2 0x4ED PUSH2 0x1703 JUMP JUMPDEST JUMPDEST PUSH1 0x1 SWAP1 SUB DUP2 DUP2 SWAP1 PUSH1 0x0 MSTORE PUSH1 0x20 PUSH1 0x0 KECCAK256 SWAP1 PUSH1 0x4 MUL ADD PUSH1 0x0 DUP1 DUP3 ADD PUSH1 0x0 SWAP1 SSTORE PUSH1 0x1 DUP3 ADD PUSH1 0x0 PUSH2 0x51B SWAP2 SWAP1 PUSH2 0xD8F JUMP JUMPDEST PUSH1 0x2 DUP3 ADD PUSH1 0x0 SWAP1 SSTORE PUSH1 0x3 DUP3 ADD PUSH1 0x0 PUSH2 0x533 SWAP2 SWAP1 PUSH2 0xD8F JUMP JUMPDEST POP POP SWAP1 SSTORE POP POP POP JUMP JUMPDEST PUSH1 0x1 DUP2 DUP2 SLOAD DUP2 LT PUSH2 0x54C JUMPI PUSH1 0x0 DUP1 REVERT JUMPDEST SWAP1 PUSH1 0x0 MSTORE PUSH1 0x20 PUSH1 0x0 KECCAK256 SWAP1 PUSH1 0x4 MUL ADD PUSH1 0x0 SWAP2 POP SWAP1 POP DUP1 PUSH1 0x0 ADD SLOAD SWAP1 DUP1 PUSH1 0x1 ADD DUP1 SLOAD PUSH2 0x575 SWAP1 PUSH2 0x13F1 JUMP JUMPDEST DUP1 PUSH1 0x1F ADD PUSH1 0x20 DUP1 SWAP2 DIV MUL PUSH1 0x20 ADD PUSH1 0x40 MLOAD SWAP1 DUP2 ADD PUSH1 0x40 MSTORE DUP1 SWAP3 SWAP2 SWAP1 DUP2 DUP2 MSTORE PUSH1 0x20 ADD DUP3 DUP1 SLOAD PUSH2 0x5A1 SWAP1 PUSH2 0x13F1 JUMP JUMPDEST DUP1 ISZERO PUSH2 0x5EE JUMPI DUP1 PUSH1 0x1F LT PUSH2 0x5C3 JUMPI PUSH2 0x100 DUP1 DUP4 SLOAD DIV MUL DUP4 MSTORE SWAP2 PUSH1 0x20 ADD SWAP2 PUSH2 0x5EE JUMP JUMPDEST DUP3 ADD SWAP2 SWAP1 PUSH1 0x0 MSTORE PUSH1 0x20 PUSH1 0x0 KECCAK256 SWAP1 JUMPDEST DUP2 SLOAD DUP2 MSTORE SWAP1 PUSH1 0x1 ADD SWAP1 PUSH1 0x20 ADD DUP1 DUP4 GT PUSH2 0x5D1 JUMPI DUP3 SWAP1 SUB PUSH1 0x1F AND DUP3 ADD SWAP2 JUMPDEST POP POP POP POP POP SWAP1 DUP1 PUSH1 0x2 ADD SLOAD SWAP1 DUP1 PUSH1 0x3 ADD DUP1 SLOAD PUSH2 0x609 SWAP1 PUSH2 0x13F1 JUMP JUMPDEST DUP1 PUSH1 0x1F ADD PUSH1 0x20 DUP1 SWAP2 DIV MUL PUSH1 0x20 ADD PUSH1 0x40 MLOAD SWAP1 DUP2 ADD PUSH1 0x40 MSTORE DUP1 SWAP3 SWAP2 SWAP1 DUP2 DUP2 MSTORE PUSH1 0x20 ADD DUP3 DUP1 SLOAD PUSH2 0x635 SWAP1 PUSH2 0x13F1 JUMP JUMPDEST DUP1 ISZERO PUSH2 0x682 JUMPI DUP1 PUSH1 0x1F LT PUSH2 0x657 JUMPI PUSH2 0x100 DUP1 DUP4 SLOAD DIV MUL DUP4 MSTORE SWAP2 PUSH1 0x20 ADD SWAP2 PUSH2 0x682 JUMP JUMPDEST DUP3 ADD SWAP2 SWAP1 PUSH1 0x0 MSTORE PUSH1 0x20 PUSH1 0x0 KECCAK256 SWAP1 JUMPDEST DUP2 SLOAD DUP2 MSTORE SWAP1 PUSH1 0x1 ADD SWAP1 PUSH1 0x20 ADD DUP1 DUP4 GT PUSH2 0x665 JUMPI DUP3 SWAP1 SUB PUSH1 0x1F AND DUP3 ADD SWAP2 JUMPDEST POP POP POP POP POP SWAP1 POP DUP5 JUMP JUMPDEST PUSH1 0x0 DUP1 SLOAD SWAP1 PUSH2 0x100 EXP SWAP1 DIV PUSH20 0xFFFFFFFFFFFFFFFFFFFFFFFFFFFFFFFFFFFFFFFF AND PUSH20 0xFFFFFFFFFFFFFFFFFFFFFFFFFFFFFFFFFFFFFFFF AND CALLER PUSH20 0xFFFFFFFFFFFFFFFFFFFFFFFFFFFFFFFFFFFFFFFF AND EQ PUSH2 0x71A JUMPI PUSH1 0x40 MLOAD PUSH32 0x8C379A000000000000000000000000000000000000000000000000000000000 DUP2 MSTORE PUSH1 0x4 ADD PUSH2 0x711 SWAP1 PUSH2 0x12A4 JUMP JUMPDEST PUSH1 0x40 MLOAD DUP1 SWAP2 SUB SWAP1 REVERT JUMPDEST PUSH1 0x0 PUSH1 0x40 MLOAD DUP1 PUSH1 0x80 ADD PUSH1 0x40 MSTORE DUP1 PUSH2 0x731 DUP9 DUP9 PUSH2 0xD13 JUMP JUMPDEST DUP2 MSTORE PUSH1 0x20 ADD DUP8 DUP8 DUP1 DUP1 PUSH1 0x1F ADD PUSH1 0x20 DUP1 SWAP2 DIV MUL PUSH1 0x20 ADD PUSH1 0x40 MLOAD SWAP1 DUP2 ADD PUSH1 0x40 MSTORE DUP1 SWAP4 SWAP3 SWAP2 SWAP1 DUP2 DUP2 MSTORE PUSH1 0x20 ADD DUP4 DUP4 DUP1 DUP3 DUP5 CALLDATACOPY PUSH1 0x0 DUP2 DUP5 ADD MSTORE PUSH1 0x1F NOT PUSH1 0x1F DUP3 ADD AND SWAP1 POP DUP1 DUP4 ADD SWAP3 POP POP POP POP POP POP POP DUP2 MSTORE PUSH1 0x20 ADD DUP6 DUP2 MSTORE PUSH1 0x20 ADD DUP5 DUP5 DUP1 DUP1 PUSH1 0x1F ADD PUSH1 0x20 DUP1 SWAP2 DIV MUL PUSH1 0x20 ADD PUSH1 0x40 MLOAD SWAP1 DUP2 ADD PUSH1 0x40 MSTORE DUP1 SWAP4 SWAP3 SWAP2 SWAP1 DUP2 DUP2 MSTORE PUSH1 0x20 ADD DUP4 DUP4 DUP1 DUP3 DUP5 CALLDATACOPY PUSH1 0x0 DUP2 DUP5 ADD MSTORE PUSH1 0x1F NOT PUSH1 0x1F DUP3 ADD AND SWAP1 POP DUP1 DUP4 ADD SWAP3 POP POP POP POP POP POP POP DUP2 MSTORE POP SWAP1 POP PUSH1 0x1 DUP2 SWAP1 DUP1 PUSH1 0x1 DUP2 SLOAD ADD DUP1 DUP3 SSTORE DUP1 SWAP2 POP POP PUSH1 0x1 SWAP1 SUB SWAP1 PUSH1 0x0 MSTORE PUSH1 0x20 PUSH1 0x0 KECCAK256 SWAP1 PUSH1 0x4 MUL ADD PUSH1 0x0 SWAP1 SWAP2 SWAP1 SWAP2 SWAP1 SWAP2 POP PUSH1 0x0 DUP3 ADD MLOAD DUP2 PUSH1 0x0 ADD SSTORE PUSH1 0x20 DUP3 ADD MLOAD DUP2 PUSH1 0x1 ADD SWAP1 DUP2 PUSH2 0x81B SWAP2 SWAP1 PUSH2 0x15FD JUMP JUMPDEST POP PUSH1 0x40 DUP3 ADD MLOAD DUP2 PUSH1 0x2 ADD SSTORE PUSH1 0x60 DUP3 ADD MLOAD DUP2 PUSH1 0x3 ADD SWAP1 DUP2 PUSH2 0x83B SWAP2 SWAP1 PUSH2 0x15FD JUMP JUMPDEST POP POP POP PUSH1 0x1 DUP1 SLOAD SWAP1 POP PUSH1 0x2 PUSH1 0x0 DUP4 PUSH1 0x0 ADD MLOAD DUP2 MSTORE PUSH1 0x20 ADD SWAP1 DUP2 MSTORE PUSH1 0x20 ADD PUSH1 0x0 KECCAK256 DUP2 SWAP1 SSTORE POP POP POP POP POP POP POP JUMP JUMPDEST PUSH1 0x0 PUSH1 0x60 PUSH1 0x0 PUSH1 0x60 PUSH2 0x878 DUP6 PUSH2 0xD4B JUMP JUMPDEST PUSH2 0x8B7 JUMPI PUSH1 0x40 MLOAD PUSH32 0x8C379A000000000000000000000000000000000000000000000000000000000 DUP2 MSTORE PUSH1 0x4 ADD PUSH2 0x8AE SWAP1 PUSH2 0x1310 JUMP JUMPDEST PUSH1 0x40 MLOAD DUP1 SWAP2 SUB SWAP1 REVERT JUMPDEST PUSH1 0x0 PUSH1 0x1 PUSH1 0x2 PUSH1 0x0 DUP9 DUP2 MSTORE PUSH1 0x20 ADD SWAP1 DUP2 MSTORE PUSH1 0x20 ADD PUSH1 0x0 KECCAK256 SLOAD PUSH2 0x8D9 SWAP2 SWAP1 PUSH2 0x135F JUMP JUMPDEST SWAP1 POP PUSH1 0x1 DUP2 DUP2 SLOAD DUP2 LT PUSH2 0x8EF JUMPI PUSH2 0x8EE PUSH2 0x1393 JUMP JUMPDEST JUMPDEST SWAP1 PUSH1 0x0 MSTORE PUSH1 0x20 PUSH1 0x0 KECCAK256 SWAP1 PUSH1 0x4 MUL ADD PUSH1 0x0 ADD SLOAD PUSH1 0x1 DUP3 DUP2 SLOAD DUP2 LT PUSH2 0x915 JUMPI PUSH2 0x914 PUSH2 0x1393 JUMP JUMPDEST JUMPDEST SWAP1 PUSH1 0x0 MSTORE PUSH1 0x20 PUSH1 0x0 KECCAK256 SWAP1 PUSH1 0x4 MUL ADD PUSH1 0x1 ADD PUSH1 0x1 DUP4 DUP2 SLOAD DUP2 LT PUSH2 0x93A JUMPI PUSH2 0x939 PUSH2 0x1393 JUMP JUMPDEST JUMPDEST SWAP1 PUSH1 0x0 MSTORE PUSH1 0x20 PUSH1 0x0 KECCAK256 SWAP1 PUSH1 0x4 MUL ADD PUSH1 0x2 ADD SLOAD PUSH1 0x1 DUP5 DUP2 SLOAD DUP2 LT PUSH2 0x960 JUMPI PUSH2 0x95F PUSH2 0x1393 JUMP JUMPDEST JUMPDEST SWAP1 PUSH1 0x0 MSTORE PUSH1 0x20 PUSH1 0x0 KECCAK256 SWAP1 PUSH1 0x4 MUL ADD PUSH1 0x3 ADD DUP3 DUP1 SLOAD PUSH2 0x97D SWAP1 PUSH2 0x13F1 JUMP JUMPDEST DUP1 PUSH1 0x1F ADD PUSH1 0x20 DUP1 SWAP2 DIV MUL PUSH1 0x20 ADD PUSH1 0x40 MLOAD SWAP1 DUP2 ADD PUSH1 0x40 MSTORE DUP1 SWAP3 SWAP2 SWAP1 DUP2 DUP2 MSTORE PUSH1 0x20 ADD DUP3 DUP1 SLOAD PUSH2 0x9A9 SWAP1 PUSH2 0x13F1 JUMP JUMPDEST DUP1 ISZERO PUSH2 0x9F6 JUMPI DUP1 PUSH1 0x1F LT PUSH2 0x9CB JUMPI PUSH2 0x100 DUP1 DUP4 SLOAD DIV MUL DUP4 MSTORE SWAP2 PUSH1 0x20 ADD SWAP2 PUSH2 0x9F6 JUMP JUMPDEST DUP3 ADD SWAP2 SWAP1 PUSH1 0x0 MSTORE PUSH1 0x20 PUSH1 0x0 KECCAK256 SWAP1 JUMPDEST DUP2 SLOAD DUP2 MSTORE SWAP1 PUSH1 0x1 ADD SWAP1 PUSH1 0x20 ADD DUP1 DUP4 GT PUSH2 0x9D9 JUMPI DUP3 SWAP1 SUB PUSH1 0x1F AND DUP3 ADD SWAP2 JUMPDEST POP POP POP POP POP SWAP3 POP DUP1 DUP1 SLOAD PUSH2 0xA09 SWAP1 PUSH2 0x13F1 JUMP JUMPDEST DUP1 PUSH1 0x1F ADD PUSH1 0x20 DUP1 SWAP2 DIV MUL PUSH1 0x20 ADD PUSH1 0x40 MLOAD SWAP1 DUP2 ADD PUSH1 0x40 MSTORE DUP1 SWAP3 SWAP2 SWAP1 DUP2 DUP2 MSTORE PUSH1 0x20 ADD DUP3 DUP1 SLOAD PUSH2 0xA35 SWAP1 PUSH2 0x13F1 JUMP JUMPDEST DUP1 ISZERO PUSH2 0xA82 JUMPI DUP1 PUSH1 0x1F LT PUSH2 0xA57 JUMPI PUSH2 0x100 DUP1 DUP4 SLOAD DIV MUL DUP4 MSTORE SWAP2 PUSH1 0x20 ADD SWAP2 PUSH2 0xA82 JUMP JUMPDEST DUP3 ADD SWAP2 SWAP1 PUSH1 0x0 MSTORE PUSH1 0x20 PUSH1 0x0 KECCAK256 SWAP1 JUMPDEST DUP2 SLOAD DUP2 MSTORE SWAP1 PUSH1 0x1 ADD SWAP1 PUSH1 0x20 ADD DUP1 DUP4 GT PUSH2 0xA65 JUMPI DUP3 SWAP1 SUB PUSH1 0x1F AND DUP3 ADD SWAP2 JUMPDEST POP POP POP POP POP SWAP1 POP SWAP5 POP SWAP5 POP SWAP5 POP SWAP5 POP POP SWAP2 SWAP4 POP SWAP2 SWAP4 JUMP JUMPDEST PUSH1 0x0 DUP1 SLOAD SWAP1 PUSH2 0x100 EXP SWAP1 DIV PUSH20 0xFFFFFFFFFFFFFFFFFFFFFFFFFFFFFFFFFFFFFFFF AND PUSH20 0xFFFFFFFFFFFFFFFFFFFFFFFFFFFFFFFFFFFFFFFF AND CALLER PUSH20 0xFFFFFFFFFFFFFFFFFFFFFFFFFFFFFFFFFFFFFFFF AND EQ PUSH2 0xB27 JUMPI PUSH1 0x40 MLOAD PUSH32 0x8C379A000000000000000000000000000000000000000000000000000000000 DUP2 MSTORE PUSH1 0x4 ADD PUSH2 0xB1E SWAP1 PUSH2 0x12A4 JUMP JUMPDEST PUSH1 0x40 MLOAD DUP1 SWAP2 SUB SWAP1 REVERT JUMPDEST PUSH2 0xB30 DUP7 PUSH2 0xD4B JUMP JUMPDEST PUSH2 0xB6F JUMPI PUSH1 0x40 MLOAD PUSH32 0x8C379A000000000000000000000000000000000000000000000000000000000 DUP2 MSTORE PUSH1 0x4 ADD PUSH2 0xB66 SWAP1 PUSH2 0x1310 JUMP JUMPDEST PUSH1 0x40 MLOAD DUP1 SWAP2 SUB SWAP1 REVERT JUMPDEST PUSH1 0x0 PUSH1 0x1 PUSH1 0x2 PUSH1 0x0 DUP10 DUP2 MSTORE PUSH1 0x20 ADD SWAP1 DUP2 MSTORE PUSH1 0x20 ADD PUSH1 0x0 KECCAK256 SLOAD PUSH2 0xB91 SWAP2 SWAP1 PUSH2 0x135F JUMP JUMPDEST SWAP1 POP PUSH1 0x40 MLOAD DUP1 PUSH1 0x80 ADD PUSH1 0x40 MSTORE DUP1 PUSH2 0xBA8 DUP9 DUP9 PUSH2 0xD13 JUMP JUMPDEST DUP2 MSTORE PUSH1 0x20 ADD DUP8 DUP8 DUP1 DUP1 PUSH1 0x1F ADD PUSH1 0x20 DUP1 SWAP2 DIV MUL PUSH1 0x20 ADD PUSH1 0x40 MLOAD SWAP1 DUP2 ADD PUSH1 0x40 MSTORE DUP1 SWAP4 SWAP3 SWAP2 SWAP1 DUP2 DUP2 MSTORE PUSH1 0x20 ADD DUP4 DUP4 DUP1 DUP3 DUP5 CALLDATACOPY PUSH1 0x0 DUP2 DUP5 ADD MSTORE PUSH1 0x1F NOT PUSH1 0x1F DUP3 ADD AND SWAP1 POP DUP1 DUP4 ADD SWAP3 POP POP POP POP POP POP POP DUP2 MSTORE PUSH1 0x20 ADD DUP6 DUP2 MSTORE PUSH1 0x20 ADD DUP5 DUP5 DUP1 DUP1 PUSH1 0x1F ADD PUSH1 0x20 DUP1 SWAP2 DIV MUL PUSH1 0x20 ADD PUSH1 0x40 MLOAD SWAP1 DUP2 ADD PUSH1 0x40 MSTORE DUP1 SWAP4 SWAP3 SWAP2 SWAP1 DUP2 DUP2 MSTORE PUSH1 0x20 ADD DUP4 DUP4 DUP1 DUP3 DUP5 CALLDATACOPY PUSH1 0x0 DUP2 DUP5 ADD MSTORE PUSH1 0x1F NOT PUSH1 0x1F DUP3 ADD AND SWAP1 POP DUP1 DUP4 ADD SWAP3 POP POP POP POP POP POP POP DUP2 MSTORE POP PUSH1 0x1 DUP3 DUP2 SLOAD DUP2 LT PUSH2 0xC59 JUMPI PUSH2 0xC58 PUSH2 0x1393 JUMP JUMPDEST JUMPDEST SWAP1 PUSH1 0x0 MSTORE PUSH1 0x20 PUSH1 0x0 KECCAK256 SWAP1 PUSH1 0x4 MUL ADD PUSH1 0x0 DUP3 ADD MLOAD DUP2 PUSH1 0x0 ADD SSTORE PUSH1 0x20 DUP3 ADD MLOAD DUP2 PUSH1 0x1 ADD SWAP1 DUP2 PUSH2 0xC86 SWAP2 SWAP1 PUSH2 0x15FD JUMP JUMPDEST POP PUSH1 0x40 DUP3 ADD MLOAD DUP2 PUSH1 0x2 ADD SSTORE PUSH1 0x60 DUP3 ADD MLOAD DUP2 PUSH1 0x3 ADD SWAP1 DUP2 PUSH2 0xCA6 SWAP2 SWAP1 PUSH2 0x15FD JUMP JUMPDEST POP SWAP1 POP POP PUSH1 0x1 DUP2 PUSH2 0xCB7 SWAP2 SWAP1 PUSH2 0x16CF JUMP JUMPDEST PUSH1 0x2 PUSH1 0x0 PUSH1 0x1 DUP5 DUP2 SLOAD DUP2 LT PUSH2 0xCCF JUMPI PUSH2 0xCCE PUSH2 0x1393 JUMP JUMPDEST JUMPDEST SWAP1 PUSH1 0x0 MSTORE PUSH1 0x20 PUSH1 0x0 KECCAK256 SWAP1 PUSH1 0x4 MUL ADD PUSH1 0x0 ADD SLOAD DUP2 MSTORE PUSH1 0x20 ADD SWAP1 DUP2 MSTORE PUSH1 0x20 ADD PUSH1 0x0 KECCAK256 DUP2 SWAP1 SSTORE POP PUSH1 0x2 PUSH1 0x0 DUP9 DUP2 MSTORE PUSH1 0x20 ADD SWAP1 DUP2 MSTORE PUSH1 0x20 ADD PUSH1 0x0 KECCAK256 PUSH1 0x0 SWAP1 SSTORE POP POP POP POP POP POP POP JUMP JUMPDEST PUSH1 0x0 DUP1 DUP4 DUP4 PUSH1 0x40 MLOAD PUSH1 0x20 ADD PUSH2 0xD29 SWAP3 SWAP2 SWAP1 PUSH2 0x1771 JUMP JUMPDEST PUSH1 0x40 MLOAD PUSH1 0x20 DUP2 DUP4 SUB SUB DUP2 MSTORE SWAP1 PUSH1 0x40 MSTORE DUP1 MLOAD SWAP1 PUSH1 0x20 ADD KECCAK256 SWAP1 POP DUP1 SWAP2 POP POP SWAP3 SWAP2 POP POP JUMP JUMPDEST PUSH1 0x0 DUP1 PUSH1 0x2 PUSH1 0x0 DUP5 DUP2 MSTORE PUSH1 0x20 ADD SWAP1 DUP2 MSTORE PUSH1 0x20 ADD PUSH1 0x0 KECCAK256 SLOAD EQ ISZERO SWAP1 POP SWAP2 SWAP1 POP JUMP JUMPDEST PUSH1 0x0 DUP1 SLOAD SWAP1 PUSH2 0x100 EXP SWAP1 DIV PUSH20 0xFFFFFFFFFFFFFFFFFFFFFFFFFFFFFFFFFFFFFFFF AND DUP2 JUMP JUMPDEST POP DUP1 SLOAD PUSH2 0xD9B SWAP1 PUSH2 0x13F1 JUMP JUMPDEST PUSH1 0x0 DUP3 SSTORE DUP1 PUSH1 0x1F LT PUSH2 0xDAD JUMPI POP PUSH2 0xDCC JUMP JUMPDEST PUSH1 0x1F ADD PUSH1 0x20 SWAP1 DIV SWAP1 PUSH1 0x0 MSTORE PUSH1 0x20 PUSH1 0x0 KECCAK256 SWAP1 DUP2 ADD SWAP1 PUSH2 0xDCB SWAP2 SWAP1 PUSH2 0xDCF JUMP JUMPDEST JUMPDEST POP JUMP JUMPDEST JUMPDEST DUP1 DUP3 GT ISZERO PUSH2 0xDE8 JUMPI PUSH1 0x0 DUP2 PUSH1 0x0 SWAP1 SSTORE POP PUSH1 0x1 ADD PUSH2 0xDD0 JUMP JUMPDEST POP SWAP1 JUMP JUMPDEST PUSH1 0x0 DUP1 REVERT JUMPDEST PUSH1 0x0 DUP1 REVERT JUMPDEST PUSH1 0x0 DUP2 SWAP1 POP SWAP2 SWAP1 POP JUMP JUMPDEST PUSH2 0xE09 DUP2 PUSH2 0xDF6 JUMP JUMPDEST DUP2 EQ PUSH2 0xE14 JUMPI PUSH1 0x0 DUP1 REVERT JUMPDEST POP JUMP JUMPDEST PUSH1 0x0 DUP2 CALLDATALOAD SWAP1 POP PUSH2 0xE26 DUP2 PUSH2 0xE00 JUMP JUMPDEST SWAP3 SWAP2 POP POP JUMP JUMPDEST PUSH1 0x0 PUSH1 0x20 DUP3 DUP5 SUB SLT ISZERO PUSH2 0xE42 JUMPI PUSH2 0xE41 PUSH2 0xDEC JUMP JUMPDEST JUMPDEST PUSH1 0x0 PUSH2 0xE50 DUP5 DUP3 DUP6 ADD PUSH2 0xE17 JUMP JUMPDEST SWAP2 POP POP SWAP3 SWAP2 POP POP JUMP JUMPDEST PUSH1 0x0 DUP2 SWAP1 POP SWAP2 SWAP1 POP JUMP JUMPDEST PUSH2 0xE6C DUP2 PUSH2 0xE59 JUMP JUMPDEST DUP2 EQ PUSH2 0xE77 JUMPI PUSH1 0x0 DUP1 REVERT JUMPDEST POP JUMP JUMPDEST PUSH1 0x0 DUP2 CALLDATALOAD SWAP1 POP PUSH2 0xE89 DUP2 PUSH2 0xE63 JUMP JUMPDEST SWAP3 SWAP2 POP POP JUMP JUMPDEST PUSH1 0x0 PUSH1 0x20 DUP3 DUP5 SUB SLT ISZERO PUSH2 0xEA5 JUMPI PUSH2 0xEA4 PUSH2 0xDEC JUMP JUMPDEST JUMPDEST PUSH1 0x0 PUSH2 0xEB3 DUP5 DUP3 DUP6 ADD PUSH2 0xE7A JUMP JUMPDEST SWAP2 POP POP SWAP3 SWAP2 POP POP JUMP JUMPDEST PUSH2 0xEC5 DUP2 PUSH2 0xDF6 JUMP JUMPDEST DUP3 MSTORE POP POP JUMP JUMPDEST PUSH1 0x0 DUP2 MLOAD SWAP1 POP SWAP2 SWAP1 POP JUMP JUMPDEST PUSH1 0x0 DUP3 DUP3 MSTORE PUSH1 0x20 DUP3 ADD SWAP1 POP SWAP3 SWAP2 POP POP JUMP JUMPDEST PUSH1 0x0 JUMPDEST DUP4 DUP2 LT ISZERO PUSH2 0xF05 JUMPI DUP1 DUP3 ADD MLOAD DUP2 DUP5 ADD MSTORE PUSH1 0x20 DUP2 ADD SWAP1 POP PUSH2 0xEEA JUMP JUMPDEST PUSH1 0x0 DUP5 DUP5 ADD MSTORE POP POP POP POP JUMP JUMPDEST PUSH1 0x0 PUSH1 0x1F NOT PUSH1 0x1F DUP4 ADD AND SWAP1 POP SWAP2 SWAP1 POP JUMP JUMPDEST PUSH1 0x0 PUSH2 0xF2D DUP3 PUSH2 0xECB JUMP JUMPDEST PUSH2 0xF37 DUP2 DUP6 PUSH2 0xED6 JUMP JUMPDEST SWAP4 POP PUSH2 0xF47 DUP2 DUP6 PUSH1 0x20 DUP7 ADD PUSH2 0xEE7 JUMP JUMPDEST PUSH2 0xF50 DUP2 PUSH2 0xF11 JUMP JUMPDEST DUP5 ADD SWAP2 POP POP SWAP3 SWAP2 POP POP JUMP JUMPDEST PUSH2 0xF64 DUP2 PUSH2 0xE59 JUMP JUMPDEST DUP3 MSTORE POP POP JUMP JUMPDEST PUSH1 0x0 PUSH1 0x80 DUP3 ADD SWAP1 POP PUSH2 0xF7F PUSH1 0x0 DUP4 ADD DUP8 PUSH2 0xEBC JUMP JUMPDEST DUP2 DUP2 SUB PUSH1 0x20 DUP4 ADD MSTORE PUSH2 0xF91 DUP2 DUP7 PUSH2 0xF22 JUMP JUMPDEST SWAP1 POP PUSH2 0xFA0 PUSH1 0x40 DUP4 ADD DUP6 PUSH2 0xF5B JUMP JUMPDEST DUP2 DUP2 SUB PUSH1 0x60 DUP4 ADD MSTORE PUSH2 0xFB2 DUP2 DUP5 PUSH2 0xF22 JUMP JUMPDEST SWAP1 POP SWAP6 SWAP5 POP POP POP POP POP JUMP JUMPDEST PUSH1 0x0 DUP1 REVERT JUMPDEST PUSH1 0x0 DUP1 REVERT JUMPDEST PUSH1 0x0 DUP1 REVERT JUMPDEST PUSH1 0x0 DUP1 DUP4 PUSH1 0x1F DUP5 ADD SLT PUSH2 0xFE2 JUMPI PUSH2 0xFE1 PUSH2 0xFBD JUMP JUMPDEST JUMPDEST DUP3 CALLDATALOAD SWAP1 POP PUSH8 0xFFFFFFFFFFFFFFFF DUP2 GT ISZERO PUSH2 0xFFF JUMPI PUSH2 0xFFE PUSH2 0xFC2 JUMP JUMPDEST JUMPDEST PUSH1 0x20 DUP4 ADD SWAP2 POP DUP4 PUSH1 0x1 DUP3 MUL DUP4 ADD GT ISZERO PUSH2 0x101B JUMPI PUSH2 0x101A PUSH2 0xFC7 JUMP JUMPDEST JUMPDEST SWAP3 POP SWAP3 SWAP1 POP JUMP JUMPDEST PUSH1 0x0 DUP1 PUSH1 0x0 DUP1 PUSH1 0x0 PUSH1 0x60 DUP7 DUP9 SUB SLT ISZERO PUSH2 0x103E JUMPI PUSH2 0x103D PUSH2 0xDEC JUMP JUMPDEST JUMPDEST PUSH1 0x0 DUP7 ADD CALLDATALOAD PUSH8 0xFFFFFFFFFFFFFFFF DUP2 GT ISZERO PUSH2 0x105C JUMPI PUSH2 0x105B PUSH2 0xDF1 JUMP JUMPDEST JUMPDEST PUSH2 0x1068 DUP9 DUP3 DUP10 ADD PUSH2 0xFCC JUMP JUMPDEST SWAP6 POP SWAP6 POP POP PUSH1 0x20 PUSH2 0x107B DUP9 DUP3 DUP10 ADD PUSH2 0xE7A JUMP JUMPDEST SWAP4 POP POP PUSH1 0x40 DUP7 ADD CALLDATALOAD PUSH8 0xFFFFFFFFFFFFFFFF DUP2 GT ISZERO PUSH2 0x109C JUMPI PUSH2 0x109B PUSH2 0xDF1 JUMP JUMPDEST JUMPDEST PUSH2 0x10A8 DUP9 DUP3 DUP10 ADD PUSH2 0xFCC JUMP JUMPDEST SWAP3 POP SWAP3 POP POP SWAP3 SWAP6 POP SWAP3 SWAP6 SWAP1 SWAP4 POP JUMP JUMPDEST PUSH1 0x0 DUP1 PUSH1 0x0 DUP1 PUSH1 0x0 DUP1 PUSH1 0x80 DUP8 DUP10 SUB SLT ISZERO PUSH2 0x10D4 JUMPI PUSH2 0x10D3 PUSH2 0xDEC JUMP JUMPDEST JUMPDEST PUSH1 0x0 PUSH2 0x10E2 DUP10 DUP3 DUP11 ADD PUSH2 0xE17 JUMP JUMPDEST SWAP7 POP POP PUSH1 0x20 DUP8 ADD CALLDATALOAD PUSH8 0xFFFFFFFFFFFFFFFF DUP2 GT ISZERO PUSH2 0x1103 JUMPI PUSH2 0x1102 PUSH2 0xDF1 JUMP JUMPDEST JUMPDEST PUSH2 0x110F DUP10 DUP3 DUP11 ADD PUSH2 0xFCC JUMP JUMPDEST SWAP6 POP SWAP6 POP POP PUSH1 0x40 PUSH2 0x1122 DUP10 DUP3 DUP11 ADD PUSH2 0xE7A JUMP JUMPDEST SWAP4 POP POP PUSH1 0x60 DUP8 ADD CALLDATALOAD PUSH8 0xFFFFFFFFFFFFFFFF DUP2 GT ISZERO PUSH2 0x1143 JUMPI PUSH2 0x1142 PUSH2 0xDF1 JUMP JUMPDEST JUMPDEST PUSH2 0x114F DUP10 DUP3 DUP11 ADD PUSH2 0xFCC JUMP JUMPDEST SWAP3 POP SWAP3 POP POP SWAP3 SWAP6 POP SWAP3 SWAP6 POP SWAP3 SWAP6 JUMP JUMPDEST PUSH1 0x0 DUP1 PUSH1 0x20 DUP4 DUP6 SUB SLT ISZERO PUSH2 0x1175 JUMPI PUSH2 0x1174 PUSH2 0xDEC JUMP JUMPDEST JUMPDEST PUSH1 0x0 DUP4 ADD CALLDATALOAD PUSH8 0xFFFFFFFFFFFFFFFF DUP2 GT ISZERO PUSH2 0x1193 JUMPI PUSH2 0x1192 PUSH2 0xDF1 JUMP JUMPDEST JUMPDEST PUSH2 0x119F DUP6 DUP3 DUP7 ADD PUSH2 0xFCC JUMP JUMPDEST SWAP3 POP SWAP3 POP POP SWAP3 POP SWAP3 SWAP1 POP JUMP JUMPDEST PUSH1 0x0 PUSH1 0x20 DUP3 ADD SWAP1 POP PUSH2 0x11C0 PUSH1 0x0 DUP4 ADD DUP5 PUSH2 0xEBC JUMP JUMPDEST SWAP3 SWAP2 POP POP JUMP JUMPDEST PUSH1 0x0 DUP2 ISZERO ISZERO SWAP1 POP SWAP2 SWAP1 POP JUMP JUMPDEST PUSH2 0x11DB DUP2 PUSH2 0x11C6 JUMP JUMPDEST DUP3 MSTORE POP POP JUMP JUMPDEST PUSH1 0x0 PUSH1 0x20 DUP3 ADD SWAP1 POP PUSH2 0x11F6 PUSH1 0x0 DUP4 ADD DUP5 PUSH2 0x11D2 JUMP JUMPDEST SWAP3 SWAP2 POP POP JUMP JUMPDEST PUSH1 0x0 PUSH20 0xFFFFFFFFFFFFFFFFFFFFFFFFFFFFFFFFFFFFFFFF DUP3 AND SWAP1 POP SWAP2 SWAP1 POP JUMP JUMPDEST PUSH1 0x0 PUSH2 0x1227 DUP3 PUSH2 0x11FC JUMP JUMPDEST SWAP1 POP SWAP2 SWAP1 POP JUMP JUMPDEST PUSH2 0x1237 DUP2 PUSH2 0x121C JUMP JUMPDEST DUP3 MSTORE POP POP JUMP JUMPDEST PUSH1 0x0 PUSH1 0x20 DUP3 ADD SWAP1 POP PUSH2 0x1252 PUSH1 0x0 DUP4 ADD DUP5 PUSH2 0x122E JUMP JUMPDEST SWAP3 SWAP2 POP POP JUMP JUMPDEST PUSH32 0x556E6175746F72697A6500000000000000000000000000000000000000000000 PUSH1 0x0 DUP3 ADD MSTORE POP JUMP JUMPDEST PUSH1 0x0 PUSH2 0x128E PUSH1 0xA DUP4 PUSH2 0xED6 JUMP JUMPDEST SWAP2 POP PUSH2 0x1299 DUP3 PUSH2 0x1258 JUMP JUMPDEST PUSH1 0x20 DUP3 ADD SWAP1 POP SWAP2 SWAP1 POP JUMP JUMPDEST PUSH1 0x0 PUSH1 0x20 DUP3 ADD SWAP1 POP DUP2 DUP2 SUB PUSH1 0x0 DUP4 ADD MSTORE PUSH2 0x12BD DUP2 PUSH2 0x1281 JUMP JUMPDEST SWAP1 POP SWAP2 SWAP1 POP JUMP JUMPDEST PUSH32 0x4E6F7420466F756E640000000000000000000000000000000000000000000000 PUSH1 0x0 DUP3 ADD MSTORE POP JUMP JUMPDEST PUSH1 0x0 PUSH2 0x12FA PUSH1 0x9 DUP4 PUSH2 0xED6 JUMP JUMPDEST SWAP2 POP PUSH2 0x1305 DUP3 PUSH2 0x12C4 JUMP JUMPDEST PUSH1 0x20 DUP3 ADD SWAP1 POP SWAP2 SWAP1 POP JUMP JUMPDEST PUSH1 0x0 PUSH1 0x20 DUP3 ADD SWAP1 POP DUP2 DUP2 SUB PUSH1 0x0 DUP4 ADD MSTORE PUSH2 0x1329 DUP2 PUSH2 0x12ED JUMP JUMPDEST SWAP1 POP SWAP2 SWAP1 POP JUMP JUMPDEST PUSH32 0x4E487B7100000000000000000000000000000000000000000000000000000000 PUSH1 0x0 MSTORE PUSH1 0x11 PUSH1 0x4 MSTORE PUSH1 0x24 PUSH1 0x0 REVERT JUMPDEST PUSH1 0x0 PUSH2 0x136A DUP3 PUSH2 0xE59 JUMP JUMPDEST SWAP2 POP PUSH2 0x1375 DUP4 PUSH2 0xE59 JUMP JUMPDEST SWAP3 POP DUP3 DUP3 SUB SWAP1 POP DUP2 DUP2 GT ISZERO PUSH2 0x138D JUMPI PUSH2 0x138C PUSH2 0x1330 JUMP JUMPDEST JUMPDEST SWAP3 SWAP2 POP POP JUMP JUMPDEST PUSH32 0x4E487B7100000000000000000000000000000000000000000000000000000000 PUSH1 0x0 MSTORE PUSH1 0x32 PUSH1 0x4 MSTORE PUSH1 0x24 PUSH1 0x0 REVERT JUMPDEST PUSH32 0x4E487B7100000000000000000000000000000000000000000000000000000000 PUSH1 0x0 MSTORE PUSH1 0x22 PUSH1 0x4 MSTORE PUSH1 0x24 PUSH1 0x0 REVERT JUMPDEST PUSH1 0x0 PUSH1 0x2 DUP3 DIV SWAP1 POP PUSH1 0x1 DUP3 AND DUP1 PUSH2 0x1409 JUMPI PUSH1 0x7F DUP3 AND SWAP2 POP JUMPDEST PUSH1 0x20 DUP3 LT DUP2 SUB PUSH2 0x141C JUMPI PUSH2 0x141B PUSH2 0x13C2 JUMP JUMPDEST JUMPDEST POP SWAP2 SWAP1 POP JUMP JUMPDEST PUSH32 0x4E487B7100000000000000000000000000000000000000000000000000000000 PUSH1 0x0 MSTORE PUSH1 0x41 PUSH1 0x4 MSTORE PUSH1 0x24 PUSH1 0x0 REVERT JUMPDEST PUSH1 0x0 DUP2 SWAP1 POP DUP2 PUSH1 0x0 MSTORE PUSH1 0x20 PUSH1 0x0 KECCAK256 SWAP1 POP SWAP2 SWAP1 POP JUMP JUMPDEST PUSH1 0x0 PUSH1 0x20 PUSH1 0x1F DUP4 ADD DIV SWAP1 POP SWAP2 SWAP1 POP JUMP JUMPDEST PUSH1 0x0 DUP3 DUP3 SHL SWAP1 POP SWAP3 SWAP2 POP POP JUMP JUMPDEST PUSH1 0x0 PUSH1 0x8 DUP4 MUL PUSH2 0x14B3 PUSH32 0xFFFFFFFFFFFFFFFFFFFFFFFFFFFFFFFFFFFFFFFFFFFFFFFFFFFFFFFFFFFFFFFF DUP3 PUSH2 0x1476 JUMP JUMPDEST PUSH2 0x14BD DUP7 DUP4 PUSH2 0x1476 JUMP JUMPDEST SWAP6 POP DUP1 NOT DUP5 AND SWAP4 POP DUP1 DUP7 AND DUP5 OR SWAP3 POP POP POP SWAP4 SWAP3 POP POP POP JUMP JUMPDEST PUSH1 0x0 DUP2 SWAP1 POP SWAP2 SWAP1 POP JUMP JUMPDEST PUSH1 0x0 PUSH2 0x14FA PUSH2 0x14F5 PUSH2 0x14F0 DUP5 PUSH2 0xE59 JUMP JUMPDEST PUSH2 0x14D5 JUMP JUMPDEST PUSH2 0xE59 JUMP JUMPDEST SWAP1 POP SWAP2 SWAP1 POP JUMP JUMPDEST PUSH1 0x0 DUP2 SWAP1 POP SWAP2 SWAP1 POP JUMP JUMPDEST PUSH2 0x1514 DUP4 PUSH2 0x14DF JUMP JUMPDEST PUSH2 0x1528 PUSH2 0x1520 DUP3 PUSH2 0x1501 JUMP JUMPDEST DUP5 DUP5 SLOAD PUSH2 0x1483 JUMP JUMPDEST DUP3 SSTORE POP POP POP POP JUMP JUMPDEST PUSH1 0x0 SWAP1 JUMP JUMPDEST PUSH2 0x153D PUSH2 0x1530 JUMP JUMPDEST PUSH2 0x1548 DUP2 DUP5 DUP5 PUSH2 0x150B JUMP JUMPDEST POP POP POP JUMP JUMPDEST JUMPDEST DUP2 DUP2 LT ISZERO PUSH2 0x156C JUMPI PUSH2 0x1561 PUSH1 0x0 DUP3 PUSH2 0x1535 JUMP JUMPDEST PUSH1 0x1 DUP2 ADD SWAP1 POP PUSH2 0x154E JUMP JUMPDEST POP POP JUMP JUMPDEST PUSH1 0x1F DUP3 GT ISZERO PUSH2 0x15B1 JUMPI PUSH2 0x1582 DUP2 PUSH2 0x1451 JUMP JUMPDEST PUSH2 0x158B DUP5 PUSH2 0x1466 JUMP JUMPDEST DUP2 ADD PUSH1 0x20 DUP6 LT ISZERO PUSH2 0x159A JUMPI DUP2 SWAP1 POP JUMPDEST PUSH2 0x15AE PUSH2 0x15A6 DUP6 PUSH2 0x1466 JUMP JUMPDEST DUP4 ADD DUP3 PUSH2 0x154D JUMP JUMPDEST POP POP JUMPDEST POP POP POP JUMP JUMPDEST PUSH1 0x0 DUP3 DUP3 SHR SWAP1 POP SWAP3 SWAP2 POP POP JUMP JUMPDEST PUSH1 0x0 PUSH2 0x15D4 PUSH1 0x0 NOT DUP5 PUSH1 0x8 MUL PUSH2 0x15B6 JUMP JUMPDEST NOT DUP1 DUP4 AND SWAP2 POP POP SWAP3 SWAP2 POP POP JUMP JUMPDEST PUSH1 0x0 PUSH2 0x15ED DUP4 DUP4 PUSH2 0x15C3 JUMP JUMPDEST SWAP2 POP DUP3 PUSH1 0x2 MUL DUP3 OR SWAP1 POP SWAP3 SWAP2 POP POP JUMP JUMPDEST PUSH2 0x1606 DUP3 PUSH2 0xECB JUMP JUMPDEST PUSH8 0xFFFFFFFFFFFFFFFF DUP2 GT ISZERO PUSH2 0x161F JUMPI PUSH2 0x161E PUSH2 0x1422 JUMP JUMPDEST JUMPDEST PUSH2 0x1629 DUP3 SLOAD PUSH2 0x13F1 JUMP JUMPDEST PUSH2 0x1634 DUP3 DUP3 DUP6 PUSH2 0x1570 JUMP JUMPDEST PUSH1 0x0 PUSH1 0x20 SWAP1 POP PUSH1 0x1F DUP4 GT PUSH1 0x1 DUP2 EQ PUSH2 0x1667 JUMPI PUSH1 0x0 DUP5 ISZERO PUSH2 0x1655 JUMPI DUP3 DUP8 ADD MLOAD SWAP1 POP JUMPDEST PUSH2 0x165F DUP6 DUP3 PUSH2 0x15E1 JUMP JUMPDEST DUP7 SSTORE POP PUSH2 0x16C7 JUMP JUMPDEST PUSH1 0x1F NOT DUP5 AND PUSH2 0x1675 DUP7 PUSH2 0x1451 JUMP JUMPDEST PUSH1 0x0 JUMPDEST DUP3 DUP2 LT ISZERO PUSH2 0x169D JUMPI DUP5 DUP10 ADD MLOAD DUP3 SSTORE PUSH1 0x1 DUP3 ADD SWAP2 POP PUSH1 0x20 DUP6 ADD SWAP5 POP PUSH1 0x20 DUP2 ADD SWAP1 POP PUSH2 0x1678 JUMP JUMPDEST DUP7 DUP4 LT ISZERO PUSH2 0x16BA JUMPI DUP5 DUP10 ADD MLOAD PUSH2 0x16B6 PUSH1 0x1F DUP10 AND DUP3 PUSH2 0x15C3 JUMP JUMPDEST DUP4 SSTORE POP JUMPDEST PUSH1 0x1 PUSH1 0x2 DUP9 MUL ADD DUP9 SSTORE POP POP POP JUMPDEST POP POP POP POP POP POP JUMP JUMPDEST PUSH1 0x0 PUSH2 0x16DA DUP3 PUSH2 0xE59 JUMP JUMPDEST SWAP2 POP PUSH2 0x16E5 DUP4 PUSH2 0xE59 JUMP JUMPDEST SWAP3 POP DUP3 DUP3 ADD SWAP1 POP DUP1 DUP3 GT ISZERO PUSH2 0x16FD JUMPI PUSH2 0x16FC PUSH2 0x1330 JUMP JUMPDEST JUMPDEST SWAP3 SWAP2 POP POP JUMP JUMPDEST PUSH32 0x4E487B7100000000000000000000000000000000000000000000000000000000 PUSH1 0x0 MSTORE PUSH1 0x31 PUSH1 0x4 MSTORE PUSH1 0x24 PUSH1 0x0 REVERT JUMPDEST PUSH1 0x0 DUP2 SWAP1 POP SWAP3 SWAP2 POP POP JUMP JUMPDEST DUP3 DUP2 DUP4 CALLDATACOPY PUSH1 0x0 DUP4 DUP4 ADD MSTORE POP POP POP JUMP JUMPDEST PUSH1 0x0 PUSH2 0x1758 DUP4 DUP6 PUSH2 0x1732 JUMP JUMPDEST SWAP4 POP PUSH2 0x1765 DUP4 DUP6 DUP5 PUSH2 0x173D JUMP JUMPDEST DUP3 DUP5 ADD SWAP1 POP SWAP4 SWAP3 POP POP POP JUMP JUMPDEST PUSH1 0x0 PUSH2 0x177E DUP3 DUP5 DUP7 PUSH2 0x174C JUMP JUMPDEST SWAP2 POP DUP2 SWAP1 POP SWAP4 SWAP3 POP POP POP JUMP INVALID LOG2 PUSH5 0x6970667358 0x22 SLT KECCAK256 0xE3 RETURN SHR GASPRICE LT PREVRANDAO DUP11 0xC4 DUP9 0xB3 BYTE 0xDA 0x49 0x22 0xEC 0xE5 MSTORE 0xB2 0xB1 PUSH29 0xCF770DDE0CD6A8BF2256EFD064736F6C63430008130033000000000000 "
				},
				"gasEstimates": {
					"creation": {
						"codeDepositCost": "1216000",
						"executionCost": "25528",
						"totalCost": "1241528"
					},
					"external": {
						"addBook(string,uint256,string)": "infinite",
						"admin()": "2577",
						"bookExist(bytes32)": "2839",
						"books(uint256)": "infinite",
						"generatorISBN(string)": "infinite",
						"getBook(bytes32)": "infinite",
						"removeBook(bytes32)": "infinite",
						"updateBook(bytes32,string,uint256,string)": "infinite"
					}
				},
				"methodIdentifiers": {
					"addBook(string,uint256,string)": "8a5cd7b2",
					"admin()": "f851a440",
					"bookExist(bytes32)": "efe03fdd",
					"books(uint256)": "68744046",
					"generatorISBN(string)": "d0148ee0",
					"getBook(bytes32)": "ad1a7d0c",
					"removeBook(bytes32)": "56c2f3ae",
					"updateBook(bytes32,string,uint256,string)": "c0fd99d8"
				}
			},
			"storageLayout": {
				"storage": [
					{
						"astId": 4,
						"contract": "contracts/Book.sol:Book",
						"label": "admin",
						"offset": 0,
						"slot": "0",
						"type": "t_address"
					},
					{
						"astId": 17,
						"contract": "contracts/Book.sol:Book",
						"label": "books",
						"offset": 0,
						"slot": "1",
						"type": "t_array(t_struct(BookAtribut)13_storage)dyn_storage"
					},
					{
						"astId": 21,
						"contract": "contracts/Book.sol:Book",
						"label": "indexBooks",
						"offset": 0,
						"slot": "2",
						"type": "t_mapping(t_bytes32,t_uint256)"
					}
				],
				"types": {
					"t_address": {
						"encoding": "inplace",
						"label": "address",
						"numberOfBytes": "20"
					},
					"t_array(t_struct(BookAtribut)13_storage)dyn_storage": {
						"base": "t_struct(BookAtribut)13_storage",
						"encoding": "dynamic_array",
						"label": "struct Book.BookAtribut[]",
						"numberOfBytes": "32"
					},
					"t_bytes32": {
						"encoding": "inplace",
						"label": "bytes32",
						"numberOfBytes": "32"
					},
					"t_mapping(t_bytes32,t_uint256)": {
						"encoding": "mapping",
						"key": "t_bytes32",
						"label": "mapping(bytes32 => uint256)",
						"numberOfBytes": "32",
						"value": "t_uint256"
					},
					"t_string_storage": {
						"encoding": "bytes",
						"label": "string",
						"numberOfBytes": "32"
					},
					"t_struct(BookAtribut)13_storage": {
						"encoding": "inplace",
						"label": "struct Book.BookAtribut",
						"members": [
							{
								"astId": 6,
								"contract": "contracts/Book.sol:Book",
								"label": "isbn",
								"offset": 0,
								"slot": "0",
								"type": "t_bytes32"
							},
							{
								"astId": 8,
								"contract": "contracts/Book.sol:Book",
								"label": "title",
								"offset": 0,
								"slot": "1",
								"type": "t_string_storage"
							},
							{
								"astId": 10,
								"contract": "contracts/Book.sol:Book",
								"label": "year",
								"offset": 0,
								"slot": "2",
								"type": "t_uint256"
							},
							{
								"astId": 12,
								"contract": "contracts/Book.sol:Book",
								"label": "writter",
								"offset": 0,
								"slot": "3",
								"type": "t_string_storage"
							}
						],
						"numberOfBytes": "128"
					},
					"t_uint256": {
						"encoding": "inplace",
						"label": "uint256",
						"numberOfBytes": "32"
					}
				}
			},
			"userdoc": {
				"kind": "user",
				"methods": {},
				"version": 1
			}
		}
	}
}